:100000000C94C4130C9404140C9404140C94041451
:100010000C9404140C9404140C9404140C94041400
:100020000C9404140C9404140C9404140C940414F0
:100030000C9404140C9404140C9404140C940414E0
:100040000C9404140C9433A40C9404140C94041411
:100050000C9404140C9494900C9404140C94B78D88
:100060000C9404140C94DF5A0C94A95A0C940414A4
:100070000C9404140C9404140C9404140C940414A0
:100080000C9404140C9404140C9404140C94041490
:100090000C9404140C9404140C9404140C94041480
:1000A0000C9404140C9404140C9404140C94041470
:1000B0000C9404140C9404140C9404140C94041460
:1000C0000C9404140C9404140C9404140C94041450
:1000D0000C9404140C9404140C9404140C94041440
:1000E0000C940414084AD73B3BCE016E84BCBFFD80
:1000F000C12F3D6C74319ABD56833DDA3D00C77FF8
:1001000011BED9E4BB4C3E916BAAAABE0000008090
:100110003F05A84CCDB2D44EB93836A9020C50B91F
:10012000918688083CA6AAAA2ABE000000803F004B
:100130004E414E494E495459494E46CDCCCC3D0ACC
:10014000D7233C17B7D13877CC2B329595E6241FAF
:10015000B14F0A000020410000C84200401C462068
:10016000BCBE4CCA1B0E5AAEC59D7400407A10F33B
:100170005A00A0724E18090010A5D4E80000E876D5
:1001800048170000E40B54020000CA9A3B0000002C
:10019000E1F505000080969800000040420F000045
:1001A00000A08601000000102700000000E8030006
:1001B0000000006400000000000A000000000001D0
:1001C00000000000002C76D888DC674F0823DFC1D0
:1001D000DFAE59E1B1B796E5E3E453C63AE651998B
:1001E0007696E8E6C28426EB898C9B62ED407C6FB4
:1001F000FCEFBC9C9F40F2BAA56FA5F490055A2A6B
:10020000F75C936B6CF9676DC11BFCE0E40D47FE76
:10021000F520E6B500D0ED902E030094357705006B
:1002200080841E080000204E0A000000C80C3333F2
:1002300033330F986E12831141EF8D2114893BE601
:100240005516CFFEE6DB18D1844B381BF77C1D908A
:100250001DA4BBE424203284725E228100C9F124F3
:10026000ECA1E53D27434F4D4D554E49434154497F
:100270004F4E0044525952554E004552524F525320
:1002800000494E464F004543484F0053544F50508D
:1002900045442E20005072696E7465722073746F2D
:1002A000707065642064756520746F206572726F6C
:1002B00072732E2046697820746865206572726FAB
:1002C0007220616E6420757365204D393939207450
:1002D0006F20726573746172742E202854656D707E
:1002E00065726174757265206973207265736574D7
:1002F0002E205365742069742061667465722072C3
:10030000657374617274696E67290A004E6F2043C9
:100310006865636B73756D2077697468206C696EAE
:1003200065206E756D6265722C204C617374204C73
:10033000696E653A2000636865636B73756D206D47
:1003400069736D617463682C204C617374204C690F
:100350006E653A20004C696E65204E756D6265725F
:10036000206973206E6F74204C617374204C696E29
:1003700065204E756D6265722B312C204C61737453
:10038000204C696E653A20004D3131300053657262
:1003900069616C20737461747573206D69736D612C
:1003A0007463680A00746F6F206D75636820696EEE
:1003B0006163746976652074696D65202D206375AD
:1003C0007272656E7420636F6D6D616E643A2000A9
:1003D0002121204B494C4C20636175736564206278
:1003E000792000627573793A2070617573656420B5
:1003F000666F7220696E7075740A00627573793A5F
:100400002070617573656420666F72207573657204
:100410000A00627573793A2070726F63657373694D
:100420006E670A006563686F3A004572726F723AD0
:10043000004F4646004F4E000A4D65617375726568
:100440006420706F696E74733A0A00357835206DD8
:100450006573682E205A206F66667365743A2000B3
:100460002F2F616374696F6E3A006E6F74696669ED
:10047000636174696F6E2000656E640062757474E8
:100480006F6E00486F74656E6420746F6F20636FC9
:100490006C640A0070617573656400506175736502
:1004A0000057616974696E6720666F7220686561C4
:1004B0007475702E0A004C656176696E672047324C
:1004C00036003F53706563696669656420582C592E
:1004D00020636F6F7264696E617465206F7574203C
:1004E0006F6620626F756E64732E0A003F28522972
:1004F00065706561742076616C7565206E6F74201F
:10050000706C61757369626C653B206D75737420E6
:100510006265206174206C6561737420312E0A005D
:100520003F2852296570656174206D75737420626F
:100530006520737065636966696564207768656EB8
:10054000206E6F74207573696E6720616E204C4356
:10055000442E0A003F537065636966696564206EC6
:100560006F7A7A6C652074656D70657261747572EE
:1005700065206E6F7420706C61757369626C652E96
:100580000A003F5370656369666965642066696C3B
:10059000616D656E742073697A65206E6F7420706A
:1005A0006C61757369626C652E0A003F53706563F8
:1005B0006966696564207072696D65206C656E6737
:1005C0007468206E6F7420706C61757369626C65FD
:1005D0002E0A003F5072696D65206C656E67746805
:1005E000206D757374206265207370656369666938
:1005F0006564207768656E206E6F74207573696E10
:100600006720616E204C43442E0A003F537065639F
:100610006966696564206E6F7A7A6C652073697AA1
:1006200065206E6F7420706C61757369626C652EE5
:100630000A003F52657472616374696F6E204D7574
:100640006C7469706C696572206D75737420626575
:10065000207370656369666965642E0A003F537094
:100660006563696669656420526574726163746963
:100670006F6E204D756C7469706C696572206E6F59
:100680007420706C61757369626C652E0A003F534B
:100690007065636966696564206C6179657220685C
:1006A0006569676874206E6F7420706C617573691A
:1006B000626C652E0A0043292E0A003F5370656361
:1006C0006966696564206265642074656D70657231
:1006D0006174757265206E6F7420706C61757369DA
:1006E000626C65202834302D0047323620737461E7
:1006F0007274696E672E2E2E0A004F46460A004617
:1007000061646520486569676874200042656420FB
:100710004C6576656C696E6720004661696C65643E
:1007200020746F20656E61626C6520426564204CA8
:100730006576656C696E670A004D65736820426571
:1007400064204C6576656C20646174613A0A0049E6
:100750006E76616C6964206D6573682E0A00206E88
:100760006F7420656E74657265642E0A00206F6672
:1007700020004D424C2047323920706F696E742042
:1007800000290A004A206F7574206F662072616E1E
:1007900067652028302D00290A0049206F757420D4
:1007A0006F662072616E67652028302D00473238F1
:1007B0004C30004D6573682070726F62696E6720FF
:1007C000646F6E652E0A005374617274206D6573D8
:1007D000682070726F62696E672077697468202282
:1007E000473239205331222066697273742E0A0011
:1007F0004732395332004732384C300A4732395386
:100800003200686173206E6F20646174612E0A008B
:100810004D65736820426564204C6576656C696E31
:1008200067200053206F7574206F662072616E67B9
:10083000652028302D35292E0A00416363757261C9
:1008400063792044656372656173696E6721004452
:10085000656372656173696E672041636375726178
:1008600063792044657465637465642E0A004732B9
:10087000385A0041636375726163793A2000206FD2
:1008800066200044696420004733342061626F723F
:100890007465642E0A004163637572616379204157
:1008A0006368696576656400546172676574206188
:1008B00063637572616379206163686965766564F5
:1008C0002E0A000A5A322D5A313D0050726F626969
:1008D0006E67204661696C65640050726F62696E74
:1008E00067206661696C65640A000A4733342049F1
:1008F0007465726174696F6E3A20003F2841296DFA
:10090000706C696669636174696F6E206F757420BD
:100910006F6620626F756E64732028302E352D321D
:100920002E30292E0A003F285429617267657420F1
:100930006163637572616379206F7574206F6620DF
:10094000626F756E64732028302E30312D312E3059
:10095000292E0A003F2849297465726174696F6EF7
:10096000206F7574206F6620626F756E6473202827
:10097000312D3330292E0A0020204D3432322053BD
:10098000005A204175746F2D416C69676E0046698D
:100990006E6973686564210A003A207A3A20002063
:1009A0006F662000476F696E6720746F3A205800A9
:1009B00043570A00206469723A0020616E676C65D3
:1009C0003A005374617274207261646975733A00FD
:1009D000506F736974696F6E696E67207468652003
:1009E00070726F62652E2E2E0A003F4C6567732071
:1009F0006F66206D6F76656D656E7420696D706CC5
:100A000061757369626C652028302D3135292E0A95
:100A1000003F2028582C5929206F7574206F6620BC
:100A2000626F756E64732E0A0050726F6265206F7C
:100A30007574206F6620626F756E6473003F53613A
:100A40006D706C652073697A65206E6F7420706CB0
:100A500061757369626C652028342D3530292E0A42
:100A6000004D3438205A2D50726F626520526570E7
:100A70006561746162696C69747920546573740A84
:100A8000003F2856296572626F7365206C65766534
:100A90006C20696D706C61757369626C65202830BB
:100AA0002D34292E0A005374616E646172642044EF
:100AB0006576696174696F6E3A20002052616E67D5
:100AC000653A2000204D61783A2000204D696E3A49
:100AD0002000205369676D613A20004D65616E3AD0
:100AE000200020440020204D3230302053002028A8
:100AF00044697361626C6564293A0046696C616D92
:100B0000656E742073657474696E67730020204D80
:100B10003230312058004D617820416363656C6547
:100B2000726174696F6E2028756E6974732F7332E9
:100B3000290020204D3230332058004D6178206646
:100B400065656472617465732028756E6974732FAE
:100B500073290020520020204D32303420500041B3
:100B60006363656C65726174696F6E2028756E6968
:100B700074732F7332292028503C7072696E742D63
:100B8000616363656C3E20523C726574726163748C
:100B90002D616363656C3E20543C74726176656CB4
:100BA0002D616363656C3E290020540020530020B2
:100BB000204D323035204200416476616E636564B9
:100BC0002028423C6D696E5F7365676D656E745F6A
:100BD00074696D655F75733E20533C6D696E5F6629
:100BE000656564726174653E20543C6D696E5F7426
:100BF000726176656C5F66656564726174653E20DE
:100C0000583C6D61785F6A65726B3E20593C6D613E
:100C1000785F6A65726B3E205A3C6D61785F6A65E9
:100C2000726B3E20453C6D61785F6A65726B3E2950
:100C30000020440020490020204D33303120500056
:100C4000486F74656E642050494400204400204978
:100C50000020204D3330342050004265642050493C
:100C600044003F28422961756420726174652069DF
:100C70006D706C61757369626C652E0A002062612B
:100C8000756420726174652073657420746F200030
:100C90002053657269616C200020580020204D614E
:100CA000783A2000200020204D696E3A2000203B39
:100CB000200020204D323131205300536F667420C4
:100CC000656E6473746F70730020440020204D358E
:100CD0003933205920460020440020204D35393337
:100CE0002058204600496E70757420536861706901
:100CF0006E670047323800203B0020550020204D11
:100D0000363033204C0046696C616D656E74206C22
:100D10006F61642F756E6C6F6164003B2000204929
:100D20006E76616C69642065787472756465722092
:100D30000047322F47332062616420706172616D19
:100D400065746572730A00536C6565702E2E2E00F3
:100D50005A2050726F62652050617374204265643E
:100D60000A005A2050726F626520506173742042ED
:100D7000656400205A3A200020593A2000426564F8
:100D800020583A20004D65736820706F696E74209A
:100D90006F7574206F662072616E67650A007072ED
:100DA0006F6D70745F00626567696E004D3020532F
:100DB000746F70004D312053746F70004E6F204D72
:100DC0006F76652E002569730025696D202569738E
:100DD000002569682025696D2025697300256964EF
:100DE000202569682025696D2025697300256979AA
:100DF00020256964202569682025696D202569738F
:100E0000005072696E742074696D653A20006D3B04
:100E1000002054696D65206C6566743A2000253B9E
:100E2000002050726F67726573733A2000204D374F
:100E300033006F6B006F666600860281027A027370
:100E400002650244454255473A004D313133205343
:100E500000417274696C6C657279205369646577BE
:100E6000696E646572205831204F46462E002F2F40
:100E7000005741524E494E4721204C6F77205A204F
:100E80004A65726B206D6179206C65616420746FB6
:100E900020756E77616E746564207061757365731B
:100EA0002E0A00250A0046523A0020466C6F773A17
:100EB00020004D424C2041646A757374205A0064CE
:100EC000697300656E0043290A0061626C656420E5
:100ED000286D696E2074656D702000436F6C64200E
:100EE00065787472756465732061726520004D6564
:100EF000736820706F696E74206F7574206F662040
:100F000072616E67650A004D34323120696E636F1D
:100F1000727265637420706172616D6574657220B0
:100F200075736167650A004F666673657473204167
:100F300070706C69656400546F6F20666172206622
:100F4000726F6D207265666572656E636520706F85
:100F5000696E740A00454550524F4D204F4B0A00B0
:100F6000206F72203020746F2064697361626C6539
:100F70000A003F4672657175656E637920284629BF
:100F8000206D757374206265206772656174657287
:100F9000207468616E20003F5A65746120284429DE
:100FA0002076616C7565206F7574206F66207261A4
:100FB0006E67652028302D31290A00290A00207427
:100FC0006F20003F5A206F7574206F662072616E2B
:100FD0006765202800290A0020746F20003F5920EF
:100FE0006F7574206F662072616E676520282D0012
:100FF000290A0020746F20003F58206F7574206FFD
:10100000662072616E676520282D002E0A00202858
:10101000302D313029002076616C7565206F757434
:10102000206F662072616E676500416476616E6351
:1010300065204B3D003F285929206F7574206F664D
:1010400020626F756E64732E0A003F285829206F46
:101050007574206F6620626F756E64732E0A0020AF
:10106000696E64657820696E76616C6964202831E8
:101070002E2E32292E0A003F2853292050726F62EB
:10108000652D706F736974696F6E003F2853292056
:1010900069732072657175697265642E0A006F6BE1
:1010A0000020204D323036205800486F6D65206F8B
:1010B000666673657400446966663A2020200046BF
:1010C000726F6D5374703A00537465707065723A44
:1010D00000556E4C6576656C3A004C6576656C65BE
:1010E000643A005261773A20202020000A4C6F6752
:1010F0006963616C3A00436F756E7420453A004332
:1011000061703A007D7D7D0A002C7A3A002C793A94
:10111000007D2C6D61783A7B783A002C7A3A002C6D
:10112000793A007D7D2C776F726B3A7B6D696E3AF0
:101130007B783A002C7A3A002C793A007D2C6D614C
:10114000783A7B783A002C7A3A002C793A0061722E
:1011500065613A7B66756C6C3A7B6D696E3A7B783B
:101160003A00434F4E4649475F4558504F5254004E
:101170004D4541545041434B00434F4F4C45525F06
:1011800054454D5045524154555245004348414DF8
:101190004245525F54454D504552415455524500C9
:1011A000424142595354455050494E4700415243E1
:1011B00053004D4F54494F4E5F4D4F4445530054DB
:1011C0004845524D414C5F50524F54454354494F4E
:1011D0004E00455854454E4445445F4D323000431F
:1011E0005553544F4D5F4649524D574152455F55F7
:1011F000504C4F4144004C464E5F575249544500B5
:101200004C4F4E475F46494C454E414D4500415578
:10121000544F5245504F52545F53445F53544154BE
:1012200055530053445F5752495445005245504569
:101230004154005344434152440050524F4D505486
:101240005F535550504F525400484F53545F4143E1
:1012500054494F4E5F434F4D4D414E445300454D11
:10126000455247454E43595F504152534552004302
:101270004153455F4C494748545F4252494748549F
:101280004E45535300544F47474C455F4C494748E0
:10129000545300534F4654574152455F504F5745A2
:1012A00052004255494C445F50455243454E54000C
:1012B0004C4556454C494E475F44415441005A5FA6
:1012C00050524F42450052554E4F555400415554CF
:1012D0004F4C4556454C005052494E545F4A4F4280
:1012E0000050524F4752455353004155544F5245B9
:1012F000504F52545F54454D50004155544F524544
:10130000504F52545F504F5300564F4C554D45541B
:1013100052494300454550524F4D0042494E4152BB
:10132000595F46494C455F5452414E534645520021
:1013300053455249414C5F584F4E5F584F46460007
:101340004649524D574152455F4E414D453A4D61D8
:10135000726C696E20322E312E32202D2044494786
:10136000412D546563682041535758312076312E02
:101370003020284D61792031342032303233203111
:10138000333A31323A33302920534F555243455F77
:10139000434F44455F55524C3A6769746875622EF5
:1013A000636F6D2F4D61726C696E4669726D776106
:1013B00072652F4D61726C696E2050524F544F43CD
:1013C0004F4C5F56455253494F4E3A312E30204DC7
:1013D000414348494E455F545950453A41727469FA
:1013E0006C6C657279205369646577696E646572A7
:1013F0002058312045585452554445525F434F556B
:101400004E543A3120555549443A6365646532611A
:1014100032662D343161322D343734382D39623112
:10142000322D6335356336326633363766660020D3
:101430003B0020204D3835312058005A2D50726F16
:101440006265204F66667365740042656420436F71
:101450006F6C696E672E2E2E0042656420486561B0
:1014600074696E672E2E2E00206661696C6564219A
:1014700020426164206865617465722069640A00B5
:10148000504944204175746F74756E65002364651E
:1014900066696E652044454641554C545F000062C4
:1014A0006564004B6420004B6920004B70200050A5
:1014B00049442074756E696E6720646F6E65002004
:1014C00066696E697368656421205075742074685C
:1014D00065206C617374204B702C204B6920616E09
:1014E00064204B6420636F6E7374616E7473206646
:1014F000726F6D2062656C6F7720696E746F204328
:101500006F6E66696775726174696F6E2E680A0026
:10151000504944204175746F74756E650020666192
:10152000696C6564212074696D656F75740A00507B
:101530004944204175746F74756E65004175746F10
:1015400074756E65206661696C6564212054696DEF
:10155000656F75742E00206661696C656421205486
:10156000656D706572617475726520746F6F206847
:101570006967680A00504944204175746F74756E3C
:101580006500204B643A2000204B693A2000204B34
:10159000703A200020436C617373696320504944A2
:1015A000200A00204E6F206F76657273686F6F742B
:1015B0000A002054753A2000204B753A2000206D17
:1015C00061783A2000206D696E3A200020643A204C
:1015D0000020626961733A200048656174696E6732
:1015E0002E2E2E002073746172740A00504944201C
:1015F0004175746F74756E65004175746F74756EA6
:1016000065206661696C6564212054656D70657242
:10161000617475726520746F6F20686967682E0049
:10162000206661696C6564212054656D7065726126
:101630007475726520746F6F20686967680A00505E
:101640004944204175746F74756E6500504944209B
:101650004175746F74756E6500486F6D696E6720B3
:101660004661696C6564006F70656E00545249474D
:101670004745524544003A20007A5F6D696E007913
:101680005F6D696E00785F6D696E005265706F7294
:1016900074696E6720656E6473746F702073746113
:1016A0007475730A0020746F6F206C6F6E6720650D
:1016B0007874727573696F6E2070726576656E747A
:1016C00065640A0020636F6C6420657874727573BA
:1016D000696F6E2070726576656E7465640A006E5F
:1016E0006F74696669636174696F6E2000486F6D1D
:1016F0006520257320466972737400000040C000A5
:101700000040C0000000005761726E696E673A20A9
:10171000486F6D696E672042756D70204469766907
:10172000736F72203C20310A00020204008097434C
:10173000008097430000C8430000A0400000A04084
:101740000000004000009643000096430000C8439C
:10175000000040C0000040C00000000053657474E9
:10176000696E67732053746F72656400290A0020E4
:1017700062797465733B20637263200053657474EF
:10178000696E67732053746F726564202800454545
:1017900050524F4D20496E697469616C697A656475
:1017A0000A0048617264636F646564204465666121
:1017B000756C742053657474696E6773204C6F6127
:1017C0006465640020286D6D2900203B204C6576FF
:1017D000656C696E67200020204D34323020530044
:1017E0004D65736820426564204C6576656C696E52
:1017F000670020204D393030204B004C696E656108
:101800007220416476616E63650020204732392082
:101810005334205A00204A002020473239205333C5
:1018200020490020204D3134392043203B20556E83
:1018300069747320696E2043656C736975730A005F
:1018400054656D706572617475726520556E69744A
:1018500073002020473231203B004C696E65617275
:1018600020556E69747300454550524F4D20646198
:10187000746173697A65206572726F722E0A005303
:10188000746F7265642073657474696E6773207217
:10189000657472696576656400290A00206279744E
:1018A00065733B2063726320002073746F726564FC
:1018B0002073657474696E677320726574726965EC
:1018C000766564202800454550524F4D20435243D1
:1018D000204572726F7200202863616C63756C61C1
:1018E00074656429210A0020213D2000454550529D
:1018F0004F4D20435243206D69736D6174636820BE
:101900002D202873746F7265642920002053697A32
:10191000653A2000496E6465783A2000000048432B
:10192000000048430000A04100002042F43DA042D6
:10193000F43DA04296E3C7430080DE43D007000099
:10194000D0070000640000001027000045455052F9
:101950004F4D2056657273696F6E204572726F72BB
:1019600000204D61726C696E3D563837290A00457A
:101970004550524F4D2076657273696F6E206D69C8
:10198000736D617463682028454550524F4D3D008A
:1019900020583A0024F404D9201BC40C5C0E98048F
:1019A000C4095F0265077101F405F900FB04B30087
:1019B00048048700C103690058035500030345002C
:1019C000BE023A008402310053022A002902250097
:1019D00004022000E4011C00C8011900AF01170037
:1019E00098011400840113007101100061011000BE
:1019F00051010E0043010D0036010B002B010B00BD
:101A000020010B00150109000C0109000301080069
:101A1000FB000800F3000800EB000700E4000600EC
:101A2000DE000600D8000600D2000600CC0005004B
:101A3000C7000500C2000500BD000400B900040095
:101A4000B5000400B1000400AD000400A9000400CA
:101A5000A5000300A20003009F0004009B000300F8
:101A6000980003009500020093000300900003001B
:101A70008D0002008B000300880002008600020037
:101A800084000300810002007F0002007D0002004C
:101A90007B0002007900020077000100760002005E
:101AA0007400020072000100710002006F00020069
:101AB0006D0001006C0002006A0001006900020074
:101AC000670001006600010065000100640002007B
:101AD0006200010061000100600001005F0002007F
:101AE0005D0001005C0001005B0001005A00010084
:101AF0005900010058000100570001005600010084
:101B00005500010054000100530000005300010083
:101B10005200010051000100500001004F0001007F
:101B20004E0000004E0001004D0001004C0001007D
:101B30004B0000004B0001004A0001004900010079
:101B40004800000048000100470001004600000076
:101B5000460001004500000045000100440001006E
:101B60004300000043000100420000004200010069
:101B70004100000041000100400001003F00000062
:101B80003F0001003E0000003E0001003D0000005B
:101B90003D0001003C0000003C0000003C00010052
:101BA0003B0000003B0001003A0000003A00010049
:101BB0003900000039000100380000003800000042
:101BC0003800010037000000370001003600000037
:101BD000360000003600010035000000350000002E
:101BE0003500010034000000340000003400010022
:101BF0003300000033000000330001003200000019
:101C0000320000003200010031000000310000000D
:101C10003100010030000000300000003000010001
:101C20002F0000002F0000002F0000002F000100F7
:101C30002E0000002E0000002E0001002D000000EC
:101C40002D0000002D0000002D0001002C000000E0
:101C50002C0000002C0000002C0001002B000000D4
:101C60002B0000002B0000002B0001002A000000C8
:101C70002A0000002A0000002A00010029000000BC
:101C800029000000290000002900000029000100AF
:101C900028000000280000002800000028000000A4
:101CA0002800010027000000270000002700000096
:101CB0002700000027000100260000002600000089
:101CC000260000002600000026000100250000007C
:101CD0002500000025000000250000002500000070
:101CE0002500010024000000240000002400000062
:101CF0002400000024000100230000002300000055
:101D00002300000023000000230000002300000047
:101D10002300010022000000220000002200000039
:101D2000220000002200000022000100210000002B
:101D3000210000002100000021000000210000001F
:101D40002100000021000100200000002000000010
:101D50002000000020000000200000002000000003
:101D600020000000200001001F0000001F000000F4
:101D70001F0000001F0000001F0000001F000000E7
:101D80001F0001001E0000001E0000001E000000D9
:101D90001E00000024F4D43050C38E20C2A240178D
:101DA000828B7011127A910D816CD90AA861E108B9
:101DB000C7586607615143061E4B5D05C145A70420
:101DC0001A411104093D9803713931034036DB0291
:101DD00065339102D4305402802E1D02632CEE0133
:101DE000752AC501B028A001102781018F25640143
:101DF0002B244B01E0223401AC211F018D200D0169
:101E0000801FFC00841EED00971DDF00B81CD2006F
:101E1000E61BC600201BBC00641AB200B219A80061
:101E20000A19A0006A189900D117910040178B0079
:101E3000B516840031167E00B31579003A1573008B
:101E4000C7146F0058146A00EE136600881363000D
:101E500025135E00C7125B006C1257001512540068
:101E6000C111510070114F0021114B00D6104900D3
:101E70008D1047004610440002104200C00F400081
:101E8000800F3E00420F3C00060F3B00CB0E380097
:101E9000930E37005C0E3500270E3400F30D320030
:101EA000C10D3100900D3000600D2E00320D2D005F
:101EB000050D2C00D90C2B00AE0C2900850C290037
:101EC0005C0C2700350C27000E0C2600E80B2400C4
:101ED000C40B2400A00B23007D0B23005A0B210010
:101EE000390B2100180B2000F80A1F00D90A1E0028
:101EF000BB0A1E009D0A1D00800A1D00630A1C000B
:101F0000470A1B002C0A1B00110A1A00F7091A00C5
:101F1000DD091900C4091900AB091900920917005D
:101F20007B091800630917004C09160036091600D2
:101F3000200916000A091500F5081500E00814002C
:101F4000CC081400B8081400A4081400900813006A
:101F50007D0812006B081300580812004608120092
:101F600034081100230811001208110001081100A3
:101F7000F0071000E0071000D0071000C0071000A5
:101F8000B0070F00A107100091070E0083070F0094
:101F900074070F0065070E0057070E0049070E0073
:101FA0003B070D002E070E0020070D0013070D0044
:101FB00006070D00F9060C00ED060D00E0060C000A
:101FC000D4060C00C8060C00BC060C00B0060C00C1
:101FD000A4060B0099060C008D060B0082060B0070
:101FE00077060B006C060B0061060A0057060B0013
:101FF0004C060A0042060A0038060A002E060A00AD
:1020000024060A001A060A001006090007060A003C
:10201000FD050900F4050900EB050900E2050900CA
:10202000D9050900D0050900C7050900BE0509004A
:10203000B5050800AD050800A50509009C050800C8
:10204000940508008C050800840508007C0508003C
:10205000740508006C050700650508005D050700AC
:10206000560508004E050700470507004005080013
:1020700038050700310507002A050700230507007A
:102080001C050600160507000F05070008050600D9
:1020900002050700FB040600F5040700EE04060035
:1020A000E8040600E2040700DB040600D50406008D
:1020B000CF040600C9040600C3040600BD040600E0
:1020C000B7040600B1040500AC040600A60406002F
:1020D000A00405009B04060095040500900406007A
:1020E0008A04050085040500800406007A040500C2
:1020F00075040500700405006B0405006604050006
:10210000610405005C040500570405005204050045
:102110004D04050048040500430405003E04040086
:102120003A04050035040500300404002C040500C1
:1021300027040400230405001E0404001A040400FC
:1021400016040500110404000D0404000904050030
:102150000404040000040400FC030400F803040069
:10216000F4030400F0030400EC030400E80304009B
:10217000E4030400E0030400DC030400D8030400CB
:10218000D4030400D0030400CC030400C8030300FC
:10219000C503030020436F756E7420583A00004554
:1021A00000626564002C2073797374656D2073740C
:1021B0006F7070656421204865617465725F494481
:1021C0003A20004572723A204D415854454D500016
:1021D0004D415854454D502074726967676572656A
:1021E000640048656174696E67204661696C656466
:1021F0000048656174696E67206661696C6564009A
:102200004D3131322053687574646F776E004572BA
:10221000723A204D494E54454D50004D494E54455B
:102220004D50207472696767657265640054484553
:10223000524D414C2052554E41574159005468650A
:10224000726D616C2052756E6177617900202F008C
:102250002042403A0020403A0020573A0020573AA6
:10226000002053004D313036205000496E76616CAD
:1022700069642065787472756465720A0070012C57
:102280000190012701B0012201C0011D01F00118D8
:10229000011002130130020E0160020901900204D4
:1022A00001C002FF000003FA004003F5008003F0C4
:1022B00000D003EB002004E6007004E100E004DC41
:1022C000004005D700C005D2004006CD00D006C8AA
:1022D000008007C3003008BE00F008B900C009B490
:1022E00000B00AAF00B00BAA00D00CA500000EA0F1
:1022F00000500F9B00C01096005012910000148CEB
:1023000000C0158700B0178200B0197D00D01B787F
:1023100000001E730040206E0090226900F02464CB
:102320000040275F0090295A00E02B5500102E50E6
:102330000020304B0010324600E033410090353C25
:10234000001037370070383200A0392D00B03A281D
:1023500000A03B2300603C1E00103D1900903D147E
:1023600000103E0F00703E0A00C03E0500003F0016
:1023700000403FFBFF803FF6FFC03FF1FF202050B1
:102380006C616E6E657242756666657242797465DF
:10239000733A20002046726565204D656D6F727935
:1023A0003A200020436F6D70696C65643A204D617E
:1023B0007920313420323032330A00204C6173747A
:1023C00020557064617465643A20323032322D31A8
:1023D000322D3137207C20417574686F723A202885
:1023E000444947412D546563682C20415357583167
:1023F0002076312E30290A004D61726C696E2032D0
:102400002E312E320A0020536F6674776172652078
:1024100052657365740A00205761746368646F675E
:102420002052657365740A002042726F776E206FC8
:1024300075742052657365740A002045787465725E
:102440006E616C2052657365740A00506F77657217
:1024500055700A0073746172740A00205A3A0020A1
:10246000593A0020583A00656E6473746F70732097
:102470006869743A200000002200250028002B0023
:102480002E003100340002010000050108010B019B
:1024900005050505070508080808020202020A0AE0
:1024A00008080404040401010101010101010303FE
:1024B000030303030303040707070C0C0C0C0C0CA9
:1024C0000C0C0202020206060606060606060B0BA6
:1024D0000B0B0B0B0B0B01021020200808102040E7
:1024E00010204080020102010804020101020408D8
:1024F0001020408080402010080402018004020166
:1025000080402010080402010804020101020408AE
:1025100010204080010204081020408000000A0BB7
:1025200002090C0D0E080703040100000000000062
:10253000000000000000000000000000000000009B
:102540000000000000000000121110000000000058
:10255000000000000000000000000000000000007B
:102560000000D21F0000DA170000E50F00008A0902
:1025700000004C050000CE02000071010000BB000D
:102580000000FFFFFF50726F62696E67204661694D
:102590006C65640A0050726F62696E6720466169FB
:1025A0006C656400205A3A200020593A20004265A8
:1025B0006420583A20009019552751274D277265FD
:1025C00073756D6564004469736D6973730052655A
:1025D00073756D696E670053656E64204D313038D8
:1025E00020746F20726573756D650A00496E73659E
:1025F00072742066696C616D656E7420616E642012
:1026000073656E64204D3130380A0052656865612B
:102610007420446F6E6500526568656174696E6709
:102620002E2E2E00526568656174004865617465E0
:10263000722054696D656F75740053656E64204D2A
:1026400031303820746F2068656174206E6F7A7A3B
:102650006C650A004E6F7A7A6C65205061726B650A
:10266000640073686F7700626567696E0050757209
:1026700067654D6F72650050617573656400436FE7
:102680006E74696E7565004C6F61642046696C619B
:102690006D656E74205400496E73657274206669AE
:1026A0006C616D656E7420616E642073656E64206C
:1026B0004D3130380A00220A00556E6B6E6F776E0E
:1026C00020636F6D6D616E643A202200204500200A
:1026D0005A0020590020204D39322058005374658B
:1026E00070732070657220756E6974004572726F28
:1026F000722077726974696E6720746F2045455047
:10270000524F4D210A0020746F6F206C6F6E67204E
:10271000657874727573696F6E2070726576656E18
:102720007465640A0020636F6C6420657874727548
:1027300073696F6E2070726576656E7465640A00E9
:102740006F6B0A00526573656E643A200020453A4B
:1027500000205A3A0020593A00583A00706F7765C5
:10276000726F6666005072696E7465722068616C83
:102770007465642E206B696C6C28292063616C6C15
:102780006564210A000035BF11241FBECFEFD1E2DE
:10279000DEBFCDBF00E00CBF84B780931E1614BE11
:1027A0000FB6F894A89580916000886180936000CE
:1027B000109260000FBE13E0A0E0B2E0ECE8F8EA8F
:1027C00001E00BBF02C007900D92A634B107D9F704
:1027D00026E1A6E4B3E001C01D92AE31B207E1F7F5
:1027E00013E1C4ECD3E100E006C021970109802F7A
:1027F000FE010E9426D1C33CD10780E00807A9F75B
:102800000E94B9C00C9444D40C9400008F929F9203
:10281000AF92BF92CF92DF92EF92FF920F931F93EE
:10282000CF93DF93EC018A01072E000C880B990BE4
:102830000E9484CA4B015C01C880D980EA80FB8079
:10284000A70196010E9472D318162CF488829982EF
:10285000AA82BB8210C0B801110F880B990B0E948D
:1028600084CA4B015C01AC019B01C701B6010E9407
:1028700072D318165CF3DF91CF911F910F91FF90E7
:10288000EF90DF90CF90BF90AF909F908F90089582
:10289000AF92BF92CF92DF92EF92FF920F931F936E
:1028A000CF93DF93C7E0DEE00AEC1DE087E1A82EBE
:1028B0008EE0B82EC12CD12C7601C3946991799108
:1028C000899199910E9482CA288939894A895B89AC
:1028D0000E94E3CA0E9494D2F8016193719381939C
:1028E00091938F01C616D706E806F90610F46B011E
:1028F0007C01AC16BD0611F76FEF7FEFCB01A7018E
:1029000096010E94A8D02093DA0D3093DB0D4093FE
:10291000DC0D5093DD0DDF91CF911F910F91FF9052
:10292000EF90DF90CF90BF90AF900895CF92DF925D
:10293000EF92FF928091FF03882309F457C0C09063
:10294000FB03D090FC03E090FD03F090FE0320E039
:1029500030E0A901C701B6010E947ECA882309F4AC
:1029600045C020E030E040E05FE3C701B6010E94CF
:10297000E3CA9B01AC010E94E3CA2BED3FE049E4AE
:1029800050E40E94E3CA9B01AC0160E070E080E883
:102990009FE30E9427D26B017C01C092E203D09298
:1029A000E303E092E403F092E50360911702709173
:1029B0001802072E000C880B990B0E9484CA2AE08B
:1029C00037ED43E25CE30E94E3CAA70196010E944F
:1029D000E3CA6093610270936202809363029093F2
:1029E0006402FF90EF90DF90CF900895C12CD12C1E
:1029F00080E8E82E8FE3F82ED0CF2F923F924F92AF
:102A00005F926F927F928F929F92AF92BF92CF927E
:102A1000DF92EF92FF920F931F93CF93DF93CDB787
:102A2000DEB766970FB6F894DEBF0FBECDBFDC01F0
:102A3000CD90DD90ED90FC90139714962D913D91E3
:102A40004D915C9117972B873C874D875E8720E0DF
:102A500030E040E251E4C701B6010E944AD121EAC8
:102A60003EE04AE65CE30E94E3CA0E948FD26430F3
:102A70000CF41EC163E0662E660F7708F301EE0FBB
:102A8000FF1FEE0FFF1FE35FFA4E80809180A28050
:102A9000B380F3013196FA83E98320E030E040E22D
:102AA00051E46B857C858D859E850E944AD121EA03
:102AB0003EE04AE65CE30E94E3CA0E948FD26430A3
:102AC0000CF4FAC063E0062F660F110BF801EE0F4D
:102AD000FF1FEE0FFF1FE750FB4E20813181428127
:102AE00053812B833C834D835E83A8014F5F5F4FEF
:102AF0005E8B4D8BA5E0A69DC001A79D900D112476
:102B0000988B8F87FC01E00FF11FEE0FFF1FEE0F78
:102B1000FF1FE05FFB4F20813181428153812F8372
:102B2000388749875A87E981FA81EE0FFF1FEE0F38
:102B3000FF1FE35FFA4EA5019401608171818281DC
:102B400093810E944AD1698B7A8B8B8B9C8BA501D8
:102B50009401C701B6010E944AD12B013C0185E0D6
:102B600049815A81849F1001859F300C1124F10105
:102B7000E00FF11FEE0FFF1FEE0FFF1FE05FFB4F97
:102B80002F81388549855A85608171818281938141
:102B90000E944AD129893A894B895C890E9427D2AF
:102BA000A30192010E94E3CA2F81388549855A8585
:102BB0000E944BD16B017C01EF85F889AD89BE89FC
:102BC000EA0FFB1FEE0FFF1FEE0FFF1FE05FFB4F33
:102BD00080809180A280B380FD01E20DF31DEE0F95
:102BE000FF1FEE0FFF1FE05FFB4FA5019401608107
:102BF0007181828193810E944AD129893A894B89C6
:102C00005C890E9427D2A30192010E94E3CAA50118
:102C100094010E944BD1A70196010E944AD14B0119
:102C20005C01ED89FE89EE0FFF1FEE0FFF1FE750DD
:102C3000FB4E2B813C814D815E816081718182815F
:102C400093810E944AD19B01AC01C501B4010E944D
:102C500027D24B015C012B813C814D815E816B85CC
:102C60007C858D859E850E944AD19B01AC01C50162
:102C7000B4010E94E3CAA70196010E944BD1669657
:102C80000FB6F894DEBF0FBECDBFDF91CF911F917D
:102C90000F91FF90EF90DF90CF90BF90AF909F90FB
:102CA0008F907F906F905F904F903F902F900895FE
:102CB00067FFE1CE60E0DFCE67FF05CF60E003CFC6
:102CC0004F925F926F927F928F929F92AF92BF923C
:102CD000CF92DF92EF92FF92CF93DF9300D000D09C
:102CE000CDB7DEB72091C30D222309F445C09E83E2
:102CF0008D8383DE2B013C01209174043091750497
:102D00004091760450917704AD81BE8118966D9103
:102D10007D918D919C911B970E944AD14B015C0142
:102D2000A30192010E944AD16B017C018091C40DE4
:102D30009091C50DA091C60DB091C70D89839A835E
:102D4000AB83BC8320E030E0A901BC01CD010E942F
:102D50007ECA882349F020E030E0A901C701B6010E
:102D60000E947ECA1816ECF0AD81BE811896CD92F5
:102D7000DD92ED92FC921B9726960FB6F894DEBF7B
:102D80000FBECDBFDF91CF91FF90EF90DF90CF903E
:102D9000BF90AF909F908F907F906F905F904F907B
:102DA000089529813A814B815C81C501B4010E945B
:102DB00072D387FD07C0ED81FE8180869186A28651
:102DC000B386DACF2091BF0D3091C00D4091C10D77
:102DD0005091C20DC301B2010E94E3CA9B01AC0134
:102DE00060E070E080E89FE30E944AD19B01AC0163
:102DF000C701B6010E9427D2AD81BE8118966D939E
:102E00007D938D939C931B97B7CFFC017081472FC7
:102E100050E0062E02C0559547950A94E2F740FF10
:102E200014C04091D50350E0062E02C05595479539
:102E30000A94E2F740FF09C021E030E001C0220F10
:102E40006A95EAF72095272320830895CF93DF938F
:102E500024E0829FC0011124EC01C85CDB4EFC0120
:102E6000E259F84F8A529C4FDC012D913D914D91D2
:102E70005C9160817181828193810E944BD16883D2
:102E800079838A839B83DF91CF9108958091D103C9
:102E90009091D203A091D303B091D40380935D02AB
:102EA00090935E02A0935F02B09360028091CF0383
:102EB0009091D00390935C0280935B02089580917F
:102EC0005D0290915E02A0915F02B09160028093DA
:102ED000D1039093D203A093D303B093D4038091F2
:102EE0005B0290915C029093D0038093CF0384E6C1
:102EF00090E090935C0280935B02089590E080E004
:102F0000089520918F03833021F425FD0CC024FD0A
:102F10000CC030E0A90102C0559547958A95E2F7AB
:102F2000CA018170089581E0089580E0089580913C
:102F3000AA0384FD0BC08091AC0387FD07C090916C
:102F4000AD03937081E019F480E0089581E0089565
:102F5000FC0165917591859194910895CF92DF92CE
:102F6000EF92FF92CF93DF93EC01CC80DD80EE8077
:102F7000FF8023EA31E040E450ECC701B6010E9433
:102F800072D387FD23C023E030E046E953E4C70154
:102F9000B6010E947ECA1816CCF0C880D980EA809B
:102FA000FB8023EA31E040E450ECC701B6010E9407
:102FB00072D387FD0BC0C1E023E030E046E953E463
:102FC000C701B6010E947ECA18160CF4C0E08C2F0F
:102FD000DF91CF91FF90EF90DF90CF9008952FEB8E
:102FE000280F2A3108F047C0E22FF0E08091AA03B1
:102FF0009091AB03A091AC03B091AD0304C0B69522
:10300000A795979587952A95D2F780FD02C0817084
:103010000895E057FC4FE081EE2341F18091B90D16
:103020009091BA0DE80FF92FF11D808190ED980F66
:103030009A3030F08E3251F4818180538A3098F486
:10304000F0938703E093860381E008958D3211F0B9
:103050008B3249F4818190ED980F9A3088F38E324B
:1030600011F48281EACFF0E0E0E0EACF109287032A
:1030700010928603E9CF80E00895B1DF882341F004
:1030800081E02091860330918703232B09F480E0AF
:1030900008958091E60381110EC020911D023091A8
:1030A0001E022150310981E040917A1450917B1425
:1030B000421753070CF080E008950F931F9341E0EF
:1030C00050E0082E02C0440F551F0A94E2F7052E67
:1030D000000C660B770B00918A0310918B032091F3
:1030E0008C0330918D03402B512B622B732B40931B
:1030F0008A0350938B0360938C0370938D0390919C
:103100000E02891303C081E08093050E1F910F9179
:103110000895282F80930E02803240F580918E030F
:10312000281724F081E0820F80938E0381E090E0E5
:1031300002C0880F991F2A95E2F7092E000CAA0BEE
:10314000BB0B40918A0350918B0360918C0370916B
:103150008D0384239523A623B72321E0892B8A2B73
:103160008B2B09F420E02093050E08951092050E94
:103170000895EF92FF920F931F93CF93DF9300E197
:1031800014E0C5E07801D5E0F7016191719181917A
:1031900091917F0120E030E0A9010E947ECA811157
:1031A0000EC0D15089F7C1500C5E1F4FC111EACF3C
:1031B000DF91CF911F910F91FF90EF90089581E0E3
:1031C000F7CF40917C0421E0422768E070E00C9446
:1031D000F28640917C0421E042276CE070E00C9480
:1031E000F28640917C0421E0422764E070E00C9478
:1031F000F28640917C0421E0422761E070E00C946B
:10320000F28640917C0421E0422761E070E00C945A
:10321000F28640917C0421E0422768E070E00C9443
:10322000F28640917C0421E042276CE070E00C942F
:10323000F28641E061E070E00C94F28640917C04FB
:1032400021E042270C94F2866CE070E00C947E8CB6
:1032500064E070E00C947E8C61E070E00C947E8CF5
:1032600061E070E00C947E8C6CE070E00C947E8CDD
:103270000F931F93CF93DF930BE11EE0C3EFDDE0CD
:10328000F80121913191419151918F0160E070E0FD
:1032900080E89FE30E9427D2699379938993999359
:1032A000FEE0C330DF0761F70E94CE86DF91CF9149
:1032B0001F910F91EDCACF93DF93CDB7DEB72C9757
:1032C0000FB6F894DEBF0FBECDBF19821A821B82E3
:1032D0001C821D821E821F82188619861A861B86F2
:1032E0001C86AE014F5F5F4FBC0185E692E00E94F5
:1032F000E5B82C960FB6F894DEBF0FBECDBFDF91B8
:10330000CF9108950F931F938091920D813019F5FD
:103310000E94E58C0091B7031091B8032091B90386
:103320003091BA03601B710B820B930B28EE33E0D4
:1033300040E050E00E94A8D06091B3037091B403C4
:103340008091B5039091B603620F731F841F951F80
:103350001F910F9108956091BB037091BC03809100
:10336000BD039091BE03D6CF8091920D813079F448
:1033700082E08093920D0E94E58C6093BB03709372
:10338000BC038093BD039093BE0381E0089580E069
:10339000089563E00C94CBBE8091860390918703DF
:1033A000009731F04AE050E070E060E00C94E9C82A
:1033B00060E070E0CB0108958091860390918703CF
:1033C000009731F04AE050E070E060E00C94BDC737
:1033D00060E070E0CB010895EFDF97FD0AC0ECDFFD
:1033E0006F3F71058105910509F02CF4E5DF862F0B
:1033F000089580E008958FEF0895CF93C62F3DDEA6
:10340000882311F0CF91E8CF8C2FCF910895809130
:10341000860390918703892B39F0DEDF91E08111DB
:1034200001C090E0892F089591E0FCCFCF93DF9306
:10343000C82FD62F22DE882319F0DF91CF91E7CF56
:103440008C2FCDDD811101C08D2FDF91CF9108959B
:10345000B3DFCB010895CF93DF93EB010EDE88231A
:1034600019F0DF91CF91F4CFCE01DF91CF91089584
:103470000F931F93CF9380918603909187030097BA
:1034800009F1FC018F01C1912C2F2F7DA1F0C534D2
:1034900031F0C53621F0C83511F0C83799F7F80179
:1034A000108270E060E00E9467C6F801C083CF918F
:1034B0001F910F91089570E060E0CF911F910F91DF
:1034C0000C9467C660E070E0CB01F1CFCF92DF9241
:1034D000EF92FF926A017B01D0DD882329F0FF90F3
:1034E000EF90DF90CF90C4CFC701B601FF90EF906F
:1034F000DF90CF9008954F925F926F927F92AF923C
:10350000BF92CF92DF92EF92FF920F931F93CF93D0
:10351000DF938CE0A82E83E0B82E05E612E0C4E924
:10352000DDE098E3C92E94E1D92EF12CF5018191CB
:103530005F01A3DD882339F09BDF2B013C018091E3
:10354000050E882351F0F80180819181A281B38119
:1035500088839983AA83BB8312C08F2DD2DC8823F2
:1035600009F463C0F8012081318142815381C30194
:10357000B2010E944BD1688379838A839B83F39441
:103580000C5F1F4F2496F4E0CF0ED11C83E0F8129D
:10359000CDCF85E472DD882309F451C069DF6B016A
:1035A0007C0183E0AEDC882371F0209171023091C0
:1035B00072024091730250917402C701B6010E94D9
:1035C0004BD16B017C01C092A00DD092A10DE09275
:1035D000A20DF092A30D40E050E0BA0186E476DF40
:1035E00020E030E0A9010E9472D318167CF440DF7D
:1035F00020E030E040E752E40E9427D260935D0271
:1036000070935E0280935F0290936002DF91CF918E
:103610001F910F91FF90EF90DF90CF90BF90AF90F0
:103620007F906F905F904F900895F60120813181D7
:1036300042815381C301B2010E944AD19CCF809143
:10364000710290917202A0917302B0917402809302
:10365000A00D9093A10DA093A20DB093A30DBBCF8D
:103660008F929F92AF92BF92CF92DF92EF92FF9292
:10367000CF93DF93CDB7DEB760970FB6F894DEBF78
:103680000FBECDBF80E090E0A6E1B3E48D839E83C2
:10369000AF83B8878D879E87AF87B88BE091CE14B4
:1036A000F091CF1480809180A280B38020E030E040
:1036B00040E450E4C501B4010E944AD16B017C0191
:1036C00020E030E040E251E40E947ECA87FF06C05D
:1036D000C12CD12C90E2E92E91E4F92EC982DA8234
:1036E000EB82FC8220E030E046E953E4C501B401FE
:1036F0000E944BD16B017C0120E030E041E953E4B2
:103700000E9472D3181634F4C12CD12C81E9E82E12
:1037100083E4F82EC986DA86EB86FC8680E1FE011A
:103720003196A0E0B4E001900D928A95E1F76096A1
:103730000FB6F894DEBF0FBECDBFDF91CF91FF90E3
:10374000EF90DF90CF90BF90AF909F908F900895B3
:1037500021E030E0082E02C0220F331F0A94E2F766
:103760002095309590917E04292320937E0481300A
:1037700061F020F0823071F081E008955F9A8091CD
:103780008F0D8E7F80938F0DF7CF8A9A80918F0D4A
:103790008D7FF8CF8091080180958170809306011C
:1037A000479A80918F0D8B7FEDCF813089F070F03B
:1037B000823081F021E030E001C0220F8A95EAF7E3
:1037C00080917E04822B80937E0408955F98F2CFCF
:1037D0008A98F0CF909108019170909306014798D4
:1037E000E9CF2091260730912707F901E158FB4FD7
:1037F000908196959695937081E0913009F080E0E4
:103800004091390250913A02609124077091250746
:103810004F5F5F4F2F5F3F4F213E310511F430E086
:1038200020E06217730721F1F901E158FB4F908105
:1038300096959695937061F330932707209326070A
:1038400050933A024093390240912B0750912C0734
:103850006091290770912A07461B570B220F331FCF
:10386000F901E05AFA4F20813181240F351F0AC037
:10387000709327076093260750933A0240933902CA
:103880002FEF3FEF3093440220934302089520919D
:10389000220730912307F901E158FB4F9081937083
:1038A00081E0913009F080E040913B0250913C0270
:1038B00060912407709125074F5F5F4F2F5F3F4F47
:1038C000213E310511F430E020E06217730711F159
:1038D000F901E158FB4F9081937071F33093230706
:1038E0002093220750933C0240933B0240912D07C6
:1038F00050912E076091290770912A07461B570B9C
:10390000220F331FF901E05AFA4F20813181240F31
:10391000351F0AC0709323076093220750933C021F
:1039200040933B022FEF3FEF30934202209341023E
:103930000895CF93DF938091E603811119C0C09160
:103940001D02D0911E02219720E030E040E05FE3AD
:103950006091761470917714809178149091791415
:103960000E944BD10E948FD221E06C177D070CF092
:1039700020E0822FDF91CF9108958F929F92AF9296
:10398000BF92CF92DF92EF92FF92CF93DF9320917D
:10399000C30D222309F490C0EC018090C40D9090D7
:1039A000C50DA090C60DB090C70DC884D984EA8417
:1039B000FB8420E030E0A901C501B4010E947ECA69
:1039C000882309F484C020E030E0A901C701B601D2
:1039D0000E947ECA18160CF07AC0A7019601C50194
:1039E000B4010E947ECA18160CF054C0A7019601BB
:1039F0006091BB0D7091BC0D8091BD0D9091BE0D7D
:103A00000E947ECA882321F1C092BB0DD092BC0DCA
:103A1000E092BD0DF092BE0D2091BF0D3091C00D12
:103A20004091C10D5091C20DC701B6010E94E3CA79
:103A30009B01AC0160E070E080E89FE30E944AD106
:103A40006093190270931A0280931B0290931C02D8
:103A50008090190290901A02A0901B02B0901C0254
:103A600020E030E0A901C501B4010E947ECA88238C
:103A700089F0CE010E94FD149B01AC01C501B40187
:103A80000E94E3CAA70196010E944BD168877987FB
:103A90008A879B8720917404309175044091760445
:103AA00050917704688579858A859B850E944BD1E2
:103AB000688779878A879B87DF91CF91FF90EF9006
:103AC000DF90CF90BF90AF909F908F900895812C02
:103AD000912C80E8A82E8FE3B82ECBCF4F925F9227
:103AE0006F927F928F929F92AF92BF92CF92DF920E
:103AF000EF92FF920F931F93CF93DF93CDB7DEB773
:103B00006E970FB6F894DEBF0FBECDBF9E8F8D8F20
:103B10005B018A01FC01FF96208131814281538142
:103B20002D833E834F835887CA01B9010E9482CA00
:103B30006B017C01D5012D913D914D915C910E94CD
:103B4000E3CA0E9411D22B013C01F801208131818E
:103B500042815381C701B6010E94E3CA0E9411D27B
:103B60004B015C01C301B2010E9494D269877A873C
:103B70008B879C87683771058105910540F428E79C
:103B800030E040E050E029873A874B875C87C501E9
:103B9000B4010E9494D269837A838B839C836837B3
:103BA00071058105910540F488E790E0A0E0B0E060
:103BB00089839A83AB83BC83AD8DBE8D95964D90E2
:103BC0005D906D907C909897FD01E55BFF4F608163
:103BD000718182819381611571058105910509F4D7
:103BE0005BC10E9484CA6D877E878F87988B9B01FB
:103BF000AC0160E070E080E89FE30E9427D220E003
:103C000030E040E05FE30E94E3CA4B015C01A701A2
:103C10009601C701B6010E94E3CA6B017C0169816C
:103C20007A818B819C810E9482CA9B01AC010E9497
:103C3000E3CA9B01AC01C701B6010E944AD1A501AC
:103C400094010E94E3CA6D8B7E8B8F8B988F698560
:103C50007A858B859C850E9482CA9B01AC010E945B
:103C6000E3CA698B7A8B8B8B9C8B9B01AC01C70160
:103C7000B6010E944AD1A50194010E94E3CA698F4E
:103C80007A8F8B8F9C8F0E9411D20E9494D26B01ED
:103C90007C016D897E898F89988D0E94C0D20E9497
:103CA00094D24B015C01D701C601880D991DAA1D54
:103CB000BB1DA3019201281B390B4A0B5B0BDA01D8
:103CC000C901B7FF5DC0C301B2010E9482CA298D3C
:103CD0003A8D4B8D5C8D0E944BD12D893E894F8949
:103CE000588D0E944AD120E030E040E05FE30E941E
:103CF000E3CA0E9411D26B017C0120E030E0A901EF
:103D00000E9472D318161CF0C12CD12C7601C70169
:103D1000B6010E9494D26B017C014C145D046E04C8
:103D20007F0410F473016201530142018C189D0855
:103D3000AE08BF08C701B6010E9482CA6D837E83A8
:103D40008F8398872D853E854F855889CA01B90193
:103D50000E944BD19B01AC016D817E818F81988542
:103D60000E94E3CA29893A894B895C890E944BD118
:103D70000E94B8D30E9494D26D837E838F839887EC
:103D8000AD8DBE8D9996CD92DD92ED92FC929C9771
:103D9000D301C20188199909AA09BB09ED8DFE8DCD
:103DA00085A796A7A7A7B0ABED5BFF4F29853A85FE
:103DB0004B855C852083318342835383ED8DFE8D5B
:103DC000E95BFF4F89819A81AB81BC8180839183BC
:103DD000A283B383ED8DFE8D86A997A9A0ADB1AD69
:103DE000892B8A2B8B2B09F440C061A172A183A17E
:103DF00094A10E9482CA2091EE0D3091EF0D409166
:103E0000F00D5091F10D0E94E3CA6B017C01C301DA
:103E1000B2010E9482CA9B01AC01C701B6010E9497
:103E200027D26B017C016D817E818F8198850E94F4
:103E300082CAA70196010E94E3CA0E9494D2AD8D66
:103E4000BE8DDC967C936E93DB9769817A818B8142
:103E50009C810E9482CAA70196010E94E3CA0E9427
:103E600094D2ED8DFE8D76AF65AF6E960FB6F89459
:103E7000DEBF0FBECDBFDF91CF911F910F91FF909D
:103E8000EF90DF90CF90BF90AF909F908F907F90FA
:103E90006F905F904F900895812C912C5401C12C0C
:103EA000D12C76016DCF8091D3149091D414891BBD
:103EB0008F7019F490E080E008959091D0149923C8
:103EC00051F0833030F48FEF890F19F08093D014C4
:103ED000F1CF1092D0148091D41420E5829FC001BC
:103EE0001124815B914FFC01208120FDE3CF2091C3
:103EF000D4142F5F2F702093D1143091D4142091BB
:103F0000D214321304C02091D1142093D2140895F6
:103F100090916F0081E091FD02C080E00895909142
:103F20006F009D7F90936F000895EFE6F0E0808131
:103F3000826080830895CF92DF92EF92FF92CF93B9
:103F4000DF93C82FE5DF94E0C99FE0011124FE0153
:103F5000E55CF84FC080D180E280F3808111E5DF1D
:103F6000CD50D24FC701B6010E9484CA2881398141
:103F70004A815B810E94E3CADF91CF91FF90EF906D
:103F8000DF90CF900895CF93DF9380E0D4DFC3EC30
:103F9000D3E0688379838A839B8381E0CCDF6C8361
:103FA0007D838E839F8382E0C6DF688779878A87D7
:103FB0009B87DF91CF910895CF92DF92EF92FF928E
:103FC000CF93DF93C82FA4DF94E0C99FE0011124B1
:103FD000FE01E15DF84FC080D180E280F380811165
:103FE000A4DFCD50D24FC701B6010E9484CA2881F8
:103FF00039814A815B810E94E3CADF91CF91FF90B2
:10400000EF90DF90CF900895CF93DF93CDB7DEB7D9
:104010002C970FB6F894DEBF0FBECDBF0E944B8524
:1040200077DF9CE0EBE3F7E0DE01119601900D9263
:104030009A95E1F7811179DFCE0101960E94E19511
:104040002C960FB6F894DEBF0FBECDBFDF91CF9197
:1040500008952F923F924F925F926F927F928F922C
:104060009F92AF92BF92CF92DF92EF92FF920F9307
:104070001F93CF93DF9300D000D01F92CDB7DEB750
:104080008091650290916602A0916702B0916802EA
:104090008A839B83AC83BD834090690250906A02FF
:1040A00060906B0270906C0280906D0290906E0236
:1040B000A0906F02B0907002C0907102D090720216
:1040C000E0907302F09074020E94481481E08093A3
:1040D0007D140E94961400E517E1A1E2B2E0BF83CF
:1040E000AE8384E4282E87E1382E198289810E94CC
:1040F0002617C8010E94A817EE81FF816193719372
:1041000081939193FF83EE83C1010E94A817AE8132
:10411000BF8118966D937D938D939C931B97B98166
:10412000BF5FB9830C5F1F4FE4E02E0E311CB3302C
:10413000E9F688E794E00E9427879AD82A813B8194
:104140004C815D8160916502709166028091670289
:10415000909168020E947ECA81112AC0A301920137
:104160006091690270916A0280916B0290916C0279
:104170000E947ECA81111CC0A501940160916D024C
:1041800070916E0280916F02909170020E947ECABF
:1041900081110EC0A70196016091710270917202A7
:1041A00080917302909174020E947ECA8823C9F0A4
:1041B00027960FB6F894DEBF0FBECDBFDF91CF912B
:1041C0001F910F91FF90EF90DF90CF90BF90AF9035
:1041D0009F908F907F906F905F904F903F902F9027
:1041E00013CF27960FB6F894DEBF0FBECDBFDF9179
:1041F000CF911F910F91FF90EF90DF90CF90BF90E4
:10420000AF909F908F907F906F905F904F903F9076
:104210002F900895CF93DF931F92CDB7DEB7898398
:1042200060E0CE0101960E94051761E0CE01019683
:104230000E94051762E0CE0101960E940517898150
:104240000F90DF91CF9108958F929F92AF92BF927E
:10425000CF92DF92EF92FF92CF93DF9320911F02D4
:10426000222309F48EC0EC018091D503E82E80FF53
:104270002CC08090210290902202A0902302B09046
:104280002402288139814A815B81C501B4010E94E1
:1042900072D3181624F488829982AA82BB828090F5
:1042A0002D0290902E02A0902F02B0903002288113
:1042B00039814A815B81C501B4010E947ECA87FFB2
:1042C00004C088829982AA82BB82E1FE2CC08090C1
:1042D000250290902602A0902702B09028022C81FF
:1042E0003D814E815F81C501B4010E9472D31816D1
:1042F00024F48C829D82AE82BF82809031029090A5
:104300003202A0903302B09034022C813D814E8164
:104310005F81C501B4010E947ECA87FF04C08C8200
:104320009D82AE82BF82E2FE2CC0C0902902D09056
:104330002A02E0902B02F0902C02288539854A85CC
:104340005B85C701B6010E9472D3181624F4C88693
:10435000D986EA86FB86C0903502D0903602E0907E
:104360003702F0903802288539854A855B85C70178
:10437000B6010E947ECA87FF04C0C886D986EA8635
:10438000FB86DF91CF91FF90EF90DF90CF90BF90B1
:10439000AF909F908F9008951F93CF93DF93CDB7E9
:1043A000DEB760970FB6F894DEBF0FBECDBF182FF3
:1043B000EADD1D861E861F86188A8091C3039091B0
:1043C000C403A091C503B091C60389839A83AB83CC
:1043D000BC838091C7039091C803A091C903B09199
:1043E000CA038D839E83AF83B8878091CB0390915E
:1043F000CC03A091CD03B091CE0389879A87AB8778
:10440000BC8783E098DD6D877E878F87988BCE0190
:1044100001960E9460161E3F99F480E1FE013196DC
:10442000A5E6B2E001900D928A95E1F760960FB68D
:10443000F894DEBF0FBECDBFDF91CF911F910895DD
:1044400084E0189FF0011124DF01AB59BD4F81E0DA
:1044500090E08C0F9D1FE80FF91F40815181628110
:1044600073814D935D936D937C931397DFCF0C9481
:10447000CE868091C203659968C081608093C20333
:10448000909103018091C20391FD61C0826080938D
:10449000C2038091C2034B995CC084608093C203C5
:1044A0008091C2039091C103981709F454C092E01F
:1044B0009093C0038093C10380916B07811105C065
:1044C0008091910D882309F453C08091280780FFC3
:1044D00010C080916C0780FF0CC08091BF0380FFEB
:1044E00008C08091900D81608093900D80E00E94C3
:1044F0000E968091280781FF10C080916C0781FF84
:104500000CC08091BF0381FF08C08091900D826034
:104510008093900D81E00E940E968091280782FF83
:1045200027C080916C0782FF23C08091910D882362
:10453000F9F08091BF0382FF1BC08091900D8460D1
:104540008093900D82E00C940E968E7F97CF8D7F96
:104550009ECF8B7FA3CF8091C003882309F4ACCF7B
:1045600081508093C0038111A7CF9093BF03A4CF44
:1045700008958091900D882319F01092900D089560
:1045800060E089E596E10E9485A41092920D109258
:10459000B7031092B8031092B9031092BA031092A5
:1045A000BB031092BC031092BD031092BE03109285
:1045B000B3031092B4031092B5031092B60308959A
:1045C0008091920D8130E9F08230C9F40E94821905
:1045D0006093B3037093B4038093B5039093B603D1
:1045E00081E08093920D0E94E58C6093B7037093F5
:1045F000B8038093B9039093BA0381E00895C5DFAF
:10460000EFCF80E008958091920D8150823070F458
:104610001092920D0E94E58C6093BB037093BC03D3
:104620008093BD039093BE0381E0089580E00895D8
:104630008F929F92AF92BF92CF92DF92EF92FF92B2
:104640000F931F93CF93DF931092AF031092AE039B
:104650002FE32093B2031092B1031092B003109293
:10466000AA031092AB031092AC031092AD039C010D
:10467000F90190812F5F3F4F9032D1F39E34C9F4FE
:10468000818190ED980F9A3020F08D3211F08B32AD
:1046900081F432969F012F5F3F4F808180538A3093
:1046A00008F46BC09F012F5F3F4F8081803209F477
:1046B00066C0F093BA0DE093B90D8F010F5F1F4FE5
:1046C000C0816AE270E0C8010E9419D4009731F0FD
:1046D000FC01319780818032E1F31182CD3421F0E9
:1046E000C43511F0C734E1F5F80180810F5F1F4F29
:1046F0008032D1F380538A3098F5C093B20330E012
:1047000020E06AE0AF014F5F5F4F629FC001639F8F
:10471000900D11249C01205331098081280F311DF7
:1047200087FD3A95FA01808180538A3058F330939F
:10473000B1032093B003DF0131968C918032D9F31D
:10474000CD3449F52E31310539F0D8F42731310512
:1047500019F02C313105F9F4B093AF03A093AE03F7
:10476000DF91CF911F910F91FF90EF90DF90CF904D
:10477000BF90AF909F908F900895F9018BCFF90172
:1047800091CF2537310538F02737310528F3203A06
:1047900083E0380709F3D091B90D40E050E0BA0149
:1047A00010E000E0C12CD12C7601C394FD013196BC
:1047B0008C91882309F47FC08132E1F4CD34D1F4A7
:1047C00020323105B9F44093AA035093AB036093B0
:1047D000AC037093AD03F093AF03E093AE0363E2D9
:1047E00070E0CF010E9419D4009709F4B9CFFC0101
:1047F0001082B6CF81548A3108F058C0DF019D91F4
:10480000903291F0A0EDA90FAA30E8F09E3271F439
:10481000918190539A30B8F00115110519F48F0168
:104820000150110990E013C0FD01E8CF9D3211F055
:104830009B3291F79181A0EDA90FAA3020F09E3212
:1048400059F79281E6CF9E2F9D1B309759F3A82FE1
:10485000B0E04601570104C0880C991CAA1CBB1C7F
:104860008A95D2F7482959296A297B29A057BC4F34
:104870009C9380818154DF018A3108F497CFDF0156
:104880008191882309F492CF90ED980F9A30B8F374
:1048900093ED980F923098F38B3289F3CD01019606
:1048A000EC91E03209F082CFDC01F8CF011511055F
:1048B00001F78D01DECF1093AF030093AE03409359
:1048C000AA035093AB036093AC037093AD0348CF3E
:1048D000CF93DF93C0917A14D0917B14209729F164
:1048E0006091761470917714809178149091791476
:1048F0000E948FD26E5F7F4F24976C177D07ACF4B8
:1049000070936507609364070E94E58C605C734652
:104910008F4F9F4F60936607709367078093680778
:1049200090936907DF91CF910895109266071092D6
:1049300067071092680710926907F4CF843021E06E
:10494000920714F084E091E090937B1480937A14A2
:10495000BFCFCF93DF93C0914E14D0914F142097C7
:1049600029F160914A1470914B1480914C149091EC
:104970004D140E948FD26E5F7F4F24976C177D0776
:10498000ACF470934D0760934C070E94E58C605A1D
:1049900075418F4F9F4F60934E0770934F078093E1
:1049A000500790935107DF91CF91089510924E07D1
:1049B00010924F071092500710925107F4CFCF93E7
:1049C000DF93EC01688170E085E00E94B085698129
:1049D00070E084E00E94B0856A8170E086E00E9409
:1049E000B08588819981482F490F5527551F8A81A5
:1049F000840F952F911D21E0833091050CF420E068
:104A000020934B0703974CF088819981AA8180936A
:104A1000F5149093F614A093F714DF91CF910895B5
:104A20008F929F92AF92BF92CF92DF92EF92FF92BE
:104A3000CF93DF9300D0CDB7DEB72FEF8417950764
:104A400031F16A01052E000CEE08FF084C01092E19
:104A5000000CAA08BB08681779072CF0CB01461791
:104A600057070CF4CA019C01990F440B550B2819E8
:104A700039094A095B09AFEFB0E00E94E6D0A7010F
:104A80009601281939094A095B090E94CAD0809108
:104A90005F07821751F020935F078FEF89831A8297
:104AA00020952B83CE0101968ADF0F900F900F90F7
:104AB000DF91CF91FF90EF90DF90CF90BF90AF90BC
:104AC0009F908F9008958F929F92AF92BF92CF92B6
:104AD000DF92EF92FF92CF93DF9300D0CDB7DEB796
:104AE0002FEF8417950731F16A01052E000CEE08AF
:104AF000FF084C01092E000CAA08BB0868177907AB
:104B00002CF0CB01461757070CF4CA019C01990FF2
:104B1000440B550B281939094A095B09AFEFB0E07E
:104B20000E94E6D0A7019601281939094A095B09B4
:104B30000E94CAD080915F07821749F020935F07D7
:104B400029831A828FEF8B83CE01019638DF0F9075
:104B50000F900F90DF91CF91FF90EF90DF90CF906B
:104B6000BF90AF909F908F90089510927404109210
:104B700075041092760410927704E0E1F4E084E684
:104B8000DF011D928A95E9F70895CF92DF92EF92A7
:104B9000FF926B017C0183E3C816D104E104F104A8
:104BA00070F082E3C81AD108E108F10862E370E00E
:104BB00080E090E00E944B8C0E945BA6ECCFC70186
:104BC000B6010E944B8CFF90EF90DF90CF900C9439
:104BD0005BA680916B07811104C08091910D8823A1
:104BE00029F062E070E080E090E0CFCF08958091FE
:104BF000930D811119C08091920D8230A9F010920D
:104C00008A0310928B0310928C0310928D031092E2
:104C10008E038FEF0E948918109273031092740311
:104C20001092750310927603CBCC81E00895CF9358
:104C3000DF93EC01E62F660FFF0BE45EFA4DE49183
:104C4000E250E13108F0B0C0F0E08827E55DF94DB1
:104C50008F4F0C9426D13C26D426D426D426D42695
:104C6000662648268A2688266826AE26AC268C2606
:104C7000D426D226D026B02682E1E9E7F2E0DE0192
:104C800001900D928A95E1F7CE01DF91CF910895C1
:104C900081E020EB30E03983288321EB30E03B8357
:104CA0002A831D821C8223EB30E03F832E8324EB7A
:104CB00030E0398728871B861A861D861C8692E07D
:104CC0009E878F8781E0888B198ADECF80E0E1CFD5
:104CD00081E08F5F20E930E03983288321E930E0EB
:104CE0003B832A8322E930E03D832C8328E930E0AE
:104CF0003F832E832AE930E0398728872CE930E08A
:104D00003B872A8726E930E03D872C8793E0D8CF80
:104D100080E0DFCF80E0DECF81E08F5F20EA30E00F
:104D20003983288321EA30E03B832A8322EA30E07A
:104D30003D832C8328EA30E03F832E832AEA30E04B
:104D4000398728872CEA30E03B872A8726EA30E03B
:104D50003D872C8794E0B4CF80E0DFCF80E0DECFCA
:104D600081E08F5F20E231E03983288321E231E066
:104D70003B832A8322E231E03D832C8328E231E029
:104D80003F832E832AE231E0398728872CE231E005
:104D90003B872A8726E231E03D872C8795E090CF3C
:104DA00080E0DFCF80E0DECF82E1FE0111928A95C4
:104DB000E9F76ACF9091C10095FD0CC09091C000B9
:104DC00095FF08C08093C6008091C00080648093E6
:104DD000C000089520914B032F5F2F700FB607FC82
:104DE00027C090914C03921328C09091C00095FF6A
:104DF0001EC090914C0340914B03941306C09091B8
:104E0000C1009F7D9093C10012C0E92FF0E0E55BE7
:104E1000FC4F32819F5F9F703093C60090934C038C
:104E20003091C00030643093C000491741F3D9CFAE
:104E300090914C03921301C0FBCFE0914B03F0E043
:104E4000E55BFC4F828320934B038091C10080621D
:104E50008093C1000895CF93DF93EC01899188235B
:104E600011F0A8DFFBCFDF91CF9108958DE0A2DF95
:104E70008AE0A0CFCF93DF93EC01FE0184912196CD
:104E8000882311F097DFF9CFDF91CF9108950F9329
:104E90001F93CF938C01C62F8FEF90E1EBDFC801FA
:104EA000E9DF8AE387DF80E38C0F84DF8AE0CF913C
:104EB0001F910F917FCFCF92DF92EF92FF926A0105
:104EC0007B01D8DFC701B6010E9431858AE0FF90DF
:104ED000EF90DF90CF906ECFAF92BF92CF92DF92E4
:104EE000EF920F931F93CF93DF935B01EA01690168
:104EF000882309F45AC08BED9AE0BCDFF50160818C
:104F000071818281938146E00E942B8EE1100AC05C
:104F100082ED9AE0AFDF688179818A819B8146E0EA
:104F20000E942B8E8BEC9AE0A5DFF60160817181E7
:104F30008281938143E00E942B8E84EC9AE09ADF79
:104F4000F801608171818281938143E00E942B8E00
:104F50008BEB9AE08FDFF601208131814281538112
:104F6000F80160817181828193810E944AD143E07E
:104F70000E942B8EEE20D9F08AE01CDF86EA9AE0B0
:104F800079DF688179818A819B8146E00E942B8E3E
:104F90008AE010DF8AE0DF91CF911F910F91EF90AF
:104FA000DF90CF90BF90AF9005CFE110E7CFDF91BA
:104FB000CF911F910F91EF90DF90CF90BF90AF9066
:104FC0000895F8DE8EE597E055CF0F931F93CF93AA
:104FD0008C01C62F80E694E04DDFC8014BDFCC2367
:104FE00029F08AE0CF911F910F91E4CECF911F91CC
:104FF0000F9108950F931F93CF938C01C62F60E0FC
:105000008EE99DE0E2DFC80135DFCC2329F08AE09C
:10501000CF911F910F91CECECF911F910F910895F7
:1050200061E088E794E0E6CFCF93DF93EC0160E0A6
:105030008EE99DE0CADF8CE794E01CDF80E2BADEF7
:10504000CE0118DF8AE0DF91CF91B4CEDF92EF92EC
:10505000FF920F931F93CF93DF93D82E7B018A018A
:10506000E901DEDFD092B40D60E087E696E2C2DFB0
:1050700080E2A0DEC701FEDE8AE09CDE011511059C
:1050800011F0C801D1DF209711F0CE01CDDF61E032
:1050900082E696E2DF91CF911F910F91FF90EF9002
:1050A000DF90A8CF811105C081E394E0E3DE8AE0C0
:1050B00081CE85E394E0FACF8AE294E0DBCE84E20D
:1050C00094E0D8CECF92DF92EF92FF920F931F938E
:1050D000CF93DF93CDB7DEB7A6970FB6F894DEBFB8
:1050E0000FBECDBF182F96D8812309F46DC0409113
:1050F0003E0350913F0360914003709141034F8FF5
:1051000058A369A37AA330E020E0E0E090E0AC018E
:10511000022E02C0559547950A94E2F740FF11C050
:1051200063E270E06C0F7D1F6E0F711D4FE150E068
:105130004C0F5D1F420F531FDA014C91DB014C9362
:10514000EF5F2F5F3F4F2330310509F78E010D5D73
:105150001F4FE00FF12FF11D10821F930F938DEE63
:10516000C82E86E1D82EDF92CF92CE0101967C0127
:105170009F938F930E944FCAA2DFC7016CDE76DE39
:105180001F930F93DF92CF92FF92EF920E944FCA2C
:1051900060E08FED96E119DFC7015DDE67DE0FB6D7
:1051A000F894DEBF0FBECDBF81E0A6960FB6F8948F
:1051B000DEBF0FBECDBFDF91CF911F910F91FF904A
:1051C000EF90DF90CF90089580E0EFCFCF9384E50C
:1051D0000E943D18C0E08823E9F00E94EC19C82F16
:1051E0001816C4F46CDF8DE4E5DD6091B0037091B6
:1051F000B10390E080E00E94C7848EE19DE03ADE3A
:105200006C2FCC0F770B880B990B0E9431858AE0AD
:10521000D1DDCFEF8C2FCF910895FF920F931F9385
:10522000CF93DF939091060E93FD60C0C82FCEDF21
:10523000D82F87FD5BC083E50E943D18182F882377
:1052400009F446C00E94281A79DB61E08C2F0E9485
:10525000CB9001E083E50E943D18882331F00E9445
:10526000281A909316028093150282E40E943D183A
:10527000882331F00E94281A90931402809313021D
:1052800086E40E94EF17882369F10E94381A609320
:105290000F02709310028093110290931202FF2468
:1052A000F39420E030E0A9010E947ECA811101C080
:1052B000F12CF0925E07CC23C9F00023B9F0612FE6
:1052C0008D2FDF91CF911F910F91FF900C94E6925B
:1052D000C11102C000E0BECF82E50E943D188111DD
:1052E000B1CFF8CF60E070E0CB01D1CFDF91CF91AB
:1052F0001F910F91FF9008950F931F93CF938111EA
:1053000011C0C42F8B01DBDE8BE19DE0B3DDC80152
:10531000B1DDCC2339F08AE34DDD8AE0CF911F91D6
:105320000F9148CDCF911F910F910895811101C028
:10533000C6CE0895CF92DF92EF92FF926A017B0171
:1053400099DD44E0C701B601FF90EF90DF90CF9068
:105350000C942B8E4F925F926F927F928F929F92BE
:10536000AF92BF92CF92DF92EF92FF92CF93DF93F3
:10537000CDB7DEB7E0970FB6F894DEBF0FBECDBF56
:1053800080E493E177DD8AE015DD60E080E393E17E
:105390007EDD60E08BE193E17ADD61E084E193E121
:1053A00076DD61E089E093E172DD61E08AEF92E110
:1053B0006EDD61E08AEE92E16ADD60E081EE92E10D
:1053C00066DD61E087ED92E162DD60E08DEC92E107
:1053D0005EDD60E086EC92E15ADD61E08EEB92E109
:1053E00056DD61E080EB92E152DD61E082EA92E11C
:1053F0004EDD60E083E992E14ADD60E085E892E11C
:1054000046DD60E08FE692E142DD61E08EE592E10B
:105410003EDD61E089E492E13ADD61E08AE392E118
:1054200036DD60E083E392E132DD60E08CE292E120
:105430002EDD60E083E292E12ADD60E08EE092E121
:1054400026DD60E080E092E122DD60E086EF91E120
:105450001EDD60E08FED91E11ADD60E082ED91E10B
:1054600016DD61E08FEB91E112DD60E082EB91E10E
:105470000EDD61E08DEA91E10ADD61E080EA91E113
:1054800006DD60E08CE891E102DD60E089E791E112
:10549000FEDC60E081E295E10E947E17682F61707A
:1054A00080E791E1F4DC60E082E691E1F0DCCE019E
:1054B00001962CE0FC0111922A95E9F72CE0EBE82B
:1054C000F2E0DE011D9601900D922A95E1F70E940F
:1054D0002421CE010D960E942421E8E3F4E14080CE
:1054E00051806280738084809580A680B780C0845C
:1054F000D184E284F38429813A814B815C81C301A8
:10550000B2010E944BD1698F7A8F8B8F9C8F2D8136
:105510003E814F815885C501B4010E944BD16D8FEA
:105520007E8F8F8F98A329853A854B855C85C7012F
:10553000B6010E944BD169A37AA38BA39CA32D85AE
:105540003E854F855889C301B2010E944BD16DA39E
:105550007EA38FA398A729893A894B895C89C501C5
:10556000B4010E944BD169A77AA78BA79CA72D896C
:105570003E894F89588DC701B6010E944BD16DA756
:105580007EA78FA798AB20E030E040E450E4C30151
:10559000B2010E944AD1AB01BC018EE491E1CADEA6
:1055A00020E030E040E450E4C501B4010E944AD15B
:1055B000AB01BC018AE491E1BDDE20E030E0A9014D
:1055C000C701B6010E944BD1AB01BC0186E491E159
:1055D000B1DE20E030E046E953E4C301B2010E94AD
:1055E0004BD1AB01BC018CE391E1A4DE20E030E0C3
:1055F00046E953E4C501B4010E944BD1AB01BC01A3
:1056000088E391E197DE20E030E048EC53E4C70105
:10561000B6010E944BD1AB01BC0184E391E18ADE6B
:10562000498D5A8D6B8D7C8D83E291E183DE4D8DAA
:105630005E8D6F8D78A18FE191E17CDE49A15AA149
:105640006BA17CA18BE191E175DE4DA15EA16FA103
:1056500078A581E191E16EDE49A55AA56BA57CA5EF
:105660008DE091E167DE4DA55EA56FA578A989E083
:1056700091E160DE84E091E1FDDBE0960FB6F89405
:10568000DEBF0FBECDBFDF91CF91FF90EF90DF90D7
:10569000CF90BF90AF909F908F907F906F905F90D2
:1056A0004F9008954F925F926F927F928F929F9248
:1056B000AF92BF92CF92DF92EF92FF92CF93DF93A0
:1056C000CDB7DEB72C970FB6F894DEBF0FBECDBFB7
:1056D00083E50E94EF178823C9F00E94071A809380
:1056E0001F022C960FB6F894DEBF0FBECDBFDF9120
:1056F000CF91FF90EF90DF90CF90BF90AF909F90B1
:105700008F907F906F905F904F9008956BEB7CE04F
:1057100081E00E94A58780911F02898382EB9CE033
:10572000A9DB8981805D46DB8EEA9CE0A3DB898171
:10573000B9DC409038145090391460903A1470904D
:105740003B1420912102309122024091230250917A
:105750002402C301B2010E944BD169837A838B83F7
:105760009C8380903C1490903D14A0903E14B09087
:105770003F1420912502309126024091270250913A
:105780002802C501B4010E944BD16D837E838F83B3
:105790009887C0904014D0904114E0904214F0904B
:1057A00043142091290230912A0240912B025091FA
:1057B0002C02C701B6010E944BD169877A878B877B
:1057C0009C8720912D0230912E0240912F02509102
:1057D0003002C301B2010E944BD12B013C01209148
:1057E0003102309132024091330250913402C501AE
:1057F000B4010E944BD14B015C01209135023091E4
:1058000036024091370250913802C701B6010E941A
:105810004BD16B017C0186EA9CE02CDB49815A81EB
:105820006B817C8189E99CE085DD4D815E816F81A2
:10583000788582ED96E27EDD49855A856B857C858B
:105840008FEC96E277DD84EA9CE014DB8CE99CE047
:1058500011DBB301A20189E99CE06CDDB501A40173
:1058600082ED96E267DDB701A6018FEC96E262DD7C
:105870008AE02C960FB6F894DEBF0FBECDBFDF9145
:10588000CF91FF90EF90DF90CF90BF90AF909F901F
:105890008F907F906F905F904F908CCACF93DF93E3
:1058A000C82F41E060E47CE027DD8C2F3FDDC2E7BC
:1058B000D4E148A159A16AA17BA187E39CE03ADD2C
:1058C0002CEA35EC47E25EE36CA17DA18EA19FA19D
:1058D0000E9427D2AB01BC0184E39CE02BDD2CEAC3
:1058E00035EC47E25EE368A579A58AA59BA50E94F1
:1058F000E3CAAB01BC0181E39CE01CDD8AE0DF91DF
:10590000CF9158CA17DD8AE055CACF93DF936AEA70
:1059100070E10E94A587CEE6D7E0488159816A816F
:105920007B8181EA90E106DD4C815D816E817F8122
:1059300082ED96E2FFDC488559856A857B858FEC90
:1059400096E2DF91CF91DECF0F931F93CF93DF933A
:10595000C82F65EE7CE00E94A58700EB14E1F801FA
:1059600040815181628173818AED9CE0E3DCF80122
:10597000448155816681778187ED9CE0C3DF8C2F60
:10598000D5DCCEE9D4E1488159816A817B818CECF8
:105990009CE0D0DC4C815D816E817F8189EC9CE054
:1059A000DF91CF911F910F91ADCFCF93DF936AE538
:1059B0007CE00E94A587C6E4D4E148A159A16AA170
:1059C0007BA181E59CE0B6DC2CEA35EC47E25EE3A6
:1059D0006CA17DA18EA19FA10E9427D2AB01BC0129
:1059E0008EE49CE0A7DC2CEA35EC47E25EE368A598
:1059F00079A58AA59BA50E94E3CAAB01BC018BE4F3
:105A00009CE0DF91CF917ECFCF93DF9368EB7BE07B
:105A10000E94A5876091170E7091180E8091190E43
:105A200090911A0E0E9482CAAB01BC018FEA9BE0E2
:105A300081DC4091470E5091480E6091490E709163
:105A40004A0E8CEA9BE076DC40914B0E50914C0E56
:105A500060914D0E70914E0E89EA9BE06BDCCEEDAD
:105A6000DDE0488159816A817B8189E99CE062DCC3
:105A70004C815D816E817F8182ED96E25BDC4885A1
:105A800059856A857B858FEC96E254DC4C855D8573
:105A90006E857F858CEC96E2DF91CF9133CFCF93EB
:105AA000DF936FE57BE00E94A587C7E0DEE04CA9AD
:105AB0005DA96EA97FA986E59BE03CDC48AD59ADA8
:105AC0006AAD7BAD83E59BE035DC4CAD5DAD6EAD85
:105AD0007FAD89EA9BE0DF91CF9114CFCF93DF9325
