:100000000C94BE180C94FE180C94FE180C94FE1858
:100010000C94FE180C94FE180C94FE180C94FE1808
:100020000C94FE180C94FE180C94FE180C94FE18F8
:100030000C94FE180C94FE180C94FE180C94FE18E8
:100040000C94FE180C9464CF0C94FE180C94FE18BB
:100050000C94FE180C94BBBB0C94FE180C943CBA88
:100060000C94FE180C945F560C9429560C94FE18B0
:100070000C94FE180C94FE180C94FE180C94FE18A8
:100080000C94FD3E0C94FE180C94FE180C94FE1873
:100090000C94FE180C94FE180C94FE180C94FE1888
:1000A0000C94FE180C94FE180C94CF3E0C94FE1881
:1000B0000C94FE180C94FE180C94FE180C94FE1868
:1000C0000C94FE180C94FE180C94FE180C94FE1858
:1000D0000C94FE180C94FE180C94FE180C94FE1848
:1000E0000C94FE18084AD73B3BCE016E84BCBFFD82
:1000F000C12F3D6C74319ABD56833DDA3D00C77FF8
:1001000011BED9E4BB4C3E916BAAAABE0000008090
:100110003F05A84CCDB2D44EB93836A9020C50B91F
:10012000918688083CA6AAAA2ABE000000803F0744
:10013000634236B79BD8A71A39685618AEBAAB5582
:100140008C1D3CB7CC5763BD6DEDFD753EF6177247
:1001500031BF000000803F08000000BE9224491219
:100160003EABAAAA2ABECDCCCC4C3E00000080BE3D
:10017000ABAAAAAA3E00000000BF000000803F001A
:1001800000000000084178D3BB4387D1133D190E0E
:100190003CC3BD4282AD2B3E68EC8276BED98FE176
:1001A000A93E4C80EFFFBE01C4FF7F3F000000006E
:1001B00000004E414E494E495459494E46CDCCCC93
:1001C0003D0AD7233C17B7D13877CC2B329595E62B
:1001D000241FB14F0A000020410000C84200401C0B
:1001E0004620BCBE4CCA1B0E5AAEC59D7400407A58
:1001F00010F35A00A0724E18090010A5D4E80000B0
:10020000E87648170000E40B54020000CA9A3B004D
:100210000000E1F505000080969800000040420FC4
:10022000000000A08601000000102700000000E888
:1002300003000000006400000000000A000000004D
:10024000000100000000002C76D888DC674F0823EE
:10025000DFC1DFAE59E1B1B796E5E3E453C63AE654
:1002600051997696E8E6C28426EB898C9B62ED4034
:100270007C6FFCEFBC9C9F40F2BAA56FA5F4900583
:100280005A2AF75C936B6CF9676DC11BFCE0E40DB7
:1002900047FEF520E6B500D0ED902E0300943577AB
:1002A000050080841E080000204E0A000000C80CD3
:1002B000333333330F986E12831141EF8D2114893C
:1002C0003BE65516CFFEE6DB18D1844B381BF77C96
:1002D0001D901DA4BBE424203284725E228100C9DB
:1002E000F124ECA1E53D27E902363726033C3D38F1
:1002F0000E2E303E1224221E131A1C180A07430920
:100300000844000170012C0190012701B001220175
:10031000C0011D01F00118011002130130020E018D
:100320006002090190020401C002FF000003FA000C
:100330004003F5008003F000D003EB002004E6004A
:100340007004E100E004DC004005D700C005D200E5
:100350004006CD00D006C8008007C3003008BE00AC
:10036000F008B900C009B400B00AAF00B00BAA0091
:10037000D00CA500000EA000500F9B00C0109600EE
:100380005012910000148C00C0158700B017820035
:10039000B0197D00D01B7800001E730040206E0055
:1003A00090226900F024640040275F0090295A00E1
:1003B000E02B5500102E500020304B00103246002C
:1003C000E033410090353C00103737007038320080
:1003D000A0392D00B03A2800A03B2300603C1E004D
:1003E000103D1900903D1400103E0F00703E0A00B1
:1003F000C03E0500003F0000403FFBFF803FF6FF8E
:10040000C03FF1FF726F746174696F6E206D61742B
:100410007269783A0A0070012C0190012701B0013D
:100420002201C0011D01F001180110021301300268
:100430000E016002090190020401C002FF000003E6
:10044000FA004003F5008003F000D003EB00200425
:10045000E6007004E100E004DC004005D700C005C0
:10046000D2004006CD00D006C8008007C300300887
:10047000BE00F008B900C009B400B00AAF00B00B6C
:10048000AA00D00CA500000EA000500F9B00C010C9
:1004900096005012910000148C00C0158700B01710
:1004A0008200B0197D00D01B7800001E7300402030
:1004B0006E0090226900F024640040275F009029BC
:1004C0005A00E02B5500102E500020304B00103207
:1004D0004600E033410090353C001037370070385B
:1004E0003200A0392D00B03A2800A03B2300603C28
:1004F0001E00103D1900903D1400103E0F00703E8C
:100500000A00C03E0500003F0000403FFBFF803F67
:10051000F6FFC03FF1FF5A5F6D6F76655F636F6DE9
:10052000700A003F28532920616E64202857292033
:100530006D6179206E6F7420626520636F6D6269F2
:100540006E65642E0A00616C736F20656E61626C6B
:100550006564290A00206E6F742064697361626C9F
:1005600065642E2053686172656420776974680041
:100570002E0A00417869732000206D696E3A0020D0
:100580006D61783A00416363656C65726174696F8F
:100590006E206C696D697465642E0A00464153547F
:1005A00000534C4F570006000007010005000701EB
:1005B00000070600000007000500434F4D4D554E53
:1005C00049434154494F4E0044525952554E0045FB
:1005D00052524F525300494E464F004543484F0038
:1005E0004572726F722077726974696E6720746FDA
:1005F00020454550524F4D210A0053544F5050450D
:10060000442E20005072696E7465722073746F708E
:100610007065642064756520746F206572726F72F6
:10062000732E2046697820746865206572726F7237
:1006300020616E6420757365204D39393920746FDF
:1006400020726573746172742E202854656D706514
:100650007261747572652069732072657365742E9A
:100660002053657420697420616674657220726518
:100670007374617274696E67290A004E6F20436853
:1006800065636B73756D2077697468206C696E653E
:10069000206E756D6265722C204C617374204C69FC
:1006A0006E653A2000636865636B73756D206D69D4
:1006B000736D617463682C204C617374204C696E97
:1006C000653A20004C696E65204E756D626572203A
:1006D0006973206E6F74204C617374204C696E6571
:1006E000204E756D6265722B312C204C6173742025
:1006F0004C696E653A20004D3131300053657269A6
:10070000616C20737461747573206D69736D6174AD
:1007100063680A00746F6F206D75636820696E618D
:1007200063746976652074696D65202D2063757228
:1007300072656E7420636F6D6D616E643A20002186
:1007400021204B494C4C20636175736564206279AC
:100750002000627573793A20706175736564206654
:100760006F7220696E7075740A00627573793A2031
:1007700070617573656420666F7220757365720AA7
:1007800000627573793A2070726F63657373696E76
:10079000670A006563686F3A004572726F723A00CB
:1007A0004F4646004F4E00204A0020204D34323143
:1007B000204900202047323920493939390A00556B
:1007C0006E696669656420426564204C6576656C77
:1007D000696E67006163746976650A00696E00007E
:1007E0002053797374656D2076312E3031200020CE
:1007F00020207C0A004E414E0020202E2020200088
:10080000207C0020666F7220004C43443A0A00436B
:1008100053563A0A003A0A0A000A42656420546FA5
:10082000706F677261706879205265706F727400C2
:1008300050726F62696E67204661696C65640A0078
:1008400050726F62696E67204661696C6564002052
:100850005A3A200020593A200042656420583A2034
:10086000004732384C3000446F6E652E0A003F4915
:100870006E76616C69642073746F72616765207352
:100880006C6F742E0A3F557365203020746F200002
:100890003F454550524F4D2073746F72616765201C
:1008A0006E6F7420617661696C61626C652E0A00FE
:1008B000446F6E652E0A003F496E76616C69642054
:1008C00073746F7261676520736C6F742E0A3F5585
:1008D0007365203020746F20003F454550524F4DC6
:1008E0002073746F72616765206E6F74206176612A
:1008F000696C61626C652E0A003F50342069732078
:100900006F6E6C7920617661696C61626C652077CD
:1009100068656E20616E204C4344206973207072BC
:100920006573656E742E0A003F5032206973206F24
:100930006E6C7920617661696C61626C65207768A4
:10094000656E20616E204C4344206973207072658F
:1009500073656E742E0A00292E0A0A0050726F62A7
:10096000696E672061726F756E642028004D657333
:100970006820696E76616C6964617465642E2050CC
:10098000726F62696E67206D6573682E0A004D652F
:100990007368207A65726F65642E0A00446566612B
:1009A000756C742073746F7261676520736C6F74FB
:1009B00020302073656C65637465642E0A00417095
:1009C000706C79696E6720746573742070617474DB
:1009D00065726E2E0A0A003F496E76616C6964206A
:1009E0002851292074657374207061747465726E67
:1009F0002E20283020746F2032290A0A0020696EC8
:100A000076616C6964617465642E0A0A004C6F63D8
:100A10006174696F6E7300456E74697265204D650F
:100A20007368005374616E64617264204465766912
:100A30006174696F6E3A20004D65616E204D65737B
:100A400068204865696768743A200023206F662033
:100A500073616D706C65733A20002E0A002F005090
:100A6000726F62696E67206D65736820706F696E62
:100A7000742000496E76616C6964206D6170207429
:100A80007970652E0A0A003F28462961646520684E
:100A9000656967687420666F7220426564204C65E2
:100AA00076656C20436F7272656374696F6E206E39
:100AB0006F7420706C61757369626C652E0A0A0030
:100AC0003F43616E277420616374697661746520A9
:100AD000616E642064656163746976617465206128
:100AE00074207468652073616D652074696D652E6E
:100AF0000A0A00426F7468205820262059206C6F23
:100B0000636174696F6E73206D7573742062652004
:100B10007370656369666965642E0A0A003F496EF1
:100B200076616C696420677269642073697A6520F4
:100B3000284A2920737065636966696564202832D4
:100B40002D39292E0A0A003F285029686173652033
:100B500076616C756520696E76616C6964202830F9
:100B60002D36292E0A0A003F2856296572626F73B6
:100B700065206C6576656C20696D706C6175736954
:100B8000626C652028302D34292E0A0A003F285235
:100B900029657065746974696F6E20636F756E7412
:100BA00020696E76616C69642028312B292E0A0A2F
:100BB00000B505B005AB05A6055D0A0062656420B9
:100BC000706C616E65206E6F726D616C203D205B94
:100BD00000436F756C64206E6F7420636F6D706C72
:100BE000657465204C53462100436F7272656374CF
:100BF00065645F5A3D000A0A002F0054696C7469ED
:100C00006E67206D65736820706F696E7420003F99
:100C10004572726F722070726F62696E6720706FBA
:100C2000696E742E2041626F7274696E67206F70F6
:100C300065726174696F6E2E0A00436F727265632C
:100C40007465645F5A3D0054696C74696E67206D09
:100C50006573682028332F33290A00436F72726549
:100C6000637465645F5A3D0054696C74696E6720F3
:100C70006D6573682028322F33290A00436F727222
:100C800065637465645F5A3D0054696C74696E678E
:100C9000206D6573682028312F33290A00646F6E38
:100CA000650A00496E73756666696369656E7420CE
:100CB000646174610A004578747261706F6C61746C
:100CC000696E67206D6573682E2E2E00000020412E
:100CD000ABAA6242ABAACE4200001643ABAA444381
:100CE000565573430000914300002041ABAA624275
:100CF000ABAACE4200001643ABAA444356557343F9
:100D0000000091432F2F616374696F6E3A006E6F1C
:100D100074696669636174696F6E2000656E640052
:100D2000627574746F6E00486F74656E6420746FC2
:100D30006F20636F6C640A007061757365640050A6
:100D4000617573650057616974696E6720666F72BB
:100D5000206865617475702E0A004C656176696E55
:100D60006720473236003F53706563696669656482
:100D700020582C5920636F6F7264696E617465200E
:100D80006F7574206F6620626F756E64732E0A0033
:100D90003F28522965706561742076616C75652005
:100DA0006E6F7420706C61757369626C653B206D49
:100DB000757374206265206174206C6561737420A2
:100DC000312E0A003F2852296570656174206D75C7
:100DD0007374206265207370656369666965642059
:100DE0007768656E206E6F74207573696E67206119
:100DF0006E204C43442E0A003F5370656369666958
:100E00006564206E6F7A7A6C652074656D706572AA
:100E10006174757265206E6F7420706C6175736992
:100E2000626C652E0A003F5370656369666965648C
:100E30002066696C616D656E742073697A65206ED9
:100E40006F7420706C61757369626C652E0A003F67
:100E5000537065636966696564207072696D6520A9
:100E60006C656E677468206E6F7420706C6175734A
:100E700069626C652E0A003F5072696D65206C6571
:100E80006E677468206D7573742062652073706579
:100E9000636966696564207768656E206E6F74208B
:100EA0007573696E6720616E204C43442E0A003FC3
:100EB000537065636966696564206E6F7A7A6C65E4
:100EC0002073697A65206E6F7420706C6175736928
:100ED000626C652E0A003F52657472616374696FBB
:100EE0006E204D756C7469706C696572206D7573D8
:100EF00074206265207370656369666965642E0A93
:100F0000003F537065636966696564205265747259
:100F1000616374696F6E204D756C7469706C69657E
:100F200072206E6F7420706C61757369626C652ECF
:100F30000A003F537065636966696564206C617976
:100F4000657220686569676874206E6F7420706CC4
:100F500061757369626C652E0A0043292E0A003F91
:100F600053706563696669656420626564207465B1
:100F70006D7065726174757265206E6F7420706C2F
:100F800061757369626C65202834302D00473236F4
:100F9000207374617274696E672E2E2E0A004F469C
:100FA000460A0046616465204865696768742000E8
:100FB000426564204C6576656C696E672000466109
:100FC000696C656420746F20656E61626C65204297
:100FD0006564204C6576656C696E670A00496E76BB
:100FE000616C6964206D6573682E0A0076616C69B6
:100FF000640A53746F7261676520736C6F743A2072
:1010000000696E004D65736820697320003F557359
:1010100065203020746F20003F496E76616C6964F2
:101020002073746F7261676520736C6F742E0A0091
:101030003F454550524F4D2073746F726167652074
:101040006E6F7420617661696C61626C652E0A0056
:10105000416363757261637920446563726561738E
:10106000696E67210044656372656173696E67200C
:101070004163637572616379204465746563746567
:10108000642E0A004732385A004163637572616307
:10109000793A2000206F66200044696420004733BD
:1010A000342061626F727465642E0A004163637557
:1010B0007261637920416368696576656400546193
:1010C000726765742061636375726163792061631F
:1010D0006869657665642E0A000A5A322D5A313DD8
:1010E0000050726F62696E67204661696C656400CA
:1010F00050726F62696E67206661696C65640A0090
:101100000A47333420497465726174696F6E3A20FE
:10111000003F2841296D706C696669636174696F6D
:101120006E206F7574206F6620626F756E64732019
:1011300028302E352D322E30292E0A003F285429F2
:101140006172676574206163637572616379206F92
:101150007574206F6620626F756E64732028302E60
:1011600030312D312E30292E0A003F28492974654F
:10117000726174696F6E206F7574206F6620626F84
:10118000756E64732028312D3330292E0A002020FB
:101190004D3432322053005A204175746F2D416C0A
:1011A00069676E0046696E6973686564210A003A72
:1011B000207A3A2000206F662000476F696E672012
:1011C000746F3A20580043570A00206469723A004D
:1011D00020616E676C653A005374617274207261AD
:1011E000646975733A00506F736974696F6E696EE4
:1011F00067207468652070726F62652E2E2E0A005B
:101200003F4C656773206F66206D6F76656D656E08
:101210007420696D706C61757369626C652028302B
:101220002D3135292E0A003F2028582C5929206FAE
:101230007574206F6620626F756E64732E0A00509D
:10124000726F6265206F7574206F6620626F756EB5
:101250006473003F53616D706C652073697A65201B
:101260006E6F7420706C61757369626C65202834D0
:101270002D3530292E0A004D3438205A2D50726FEA
:101280006265205265706561746162696C69747928
:1012900020546573740A003F2856296572626F7383
:1012A00065206C6576656C20696D706C617573691D
:1012B000626C652028302D34292E0A005374616E2B
:1012C0006461726420446576696174696F6E3A2066
:1012D000002052616E67653A2000204D61783A2007
:1012E00000204D696E3A2000205369676D613A20F5
:1012F000004D65616E3A200020440020204D3230C0
:1013000030205300202844697361626C6564293A77
:101310000046696C616D656E742073657474696EE6
:1013200067730020204D3230312058004D61782005
:10133000416363656C65726174696F6E2028756EB8
:101340006974732F7332290020204D3230332058B6
:10135000004D61782066656564726174657320284C
:10136000756E6974732F73290020520020204D324E
:101370003034205000416363656C65726174696F3D
:101380006E2028756E6974732F7332292028503CA3
:101390007072696E742D616363656C3E20523C729D
:1013A0006574726163742D616363656C3E20543CA7
:1013B00074726176656C2D616363656C3E290057BC
:1013C00041524E494E4721204C6F77205A204A65A2
:1013D000726B206D6179206C65616420746F20757B
:1013E0006E77616E746564207061757365732E0A23
:1013F0000020540020530020204D32303520420080
:10140000416476616E6365642028423C6D696E5F5D
:101410007365676D656E745F74696D655F75733E46
:1014200020533C6D696E5F66656564726174653EEC
:1014300020543C6D696E5F74726176656C5F6665A1
:101440006564726174653E20583C6D61785F6A65C1
:10145000726B3E20593C6D61785F6A65726B3E200D
:101460005A3C6D61785F6A65726B3E20453C6D61E8
:10147000785F6A65726B3E29002044002049002095
:10148000204D333031205000486F74656E64205019
:1014900049440020440020490020204D33303420AE
:1014A000500042656420504944003F28422961753C
:1014B00064207261746520696D706C617573696216
:1014C0006C652E0A0020626175642072617465206B
:1014D00073657420746F20002053657269616C20FD
:1014E0000020580020204D61783A20002000202064
:1014F0004D696E3A2000203B200020204D323131D2
:10150000205300536F667420656E6473746F70733C
:101510000020440020204D3539332059204600203A
:10152000440020204D3539332058204600496E7044
:1015300075742053686170696E6700473238002007
:101540003B0020550020204D363033204C004669AA
:101550006C616D656E74206C6F61642F756E6C6F5D
:101560006164003B200020496E76616C69642065EF
:1015700078747275646572200047322F4733206299
:10158000616420706172616D65746572730A0053E5
:101590006C6565702E2E2E005A2050726F62652089
:1015A00050617374204265640A005A2050726F6261
:1015B0006520506173742042656400205A3A20000F
:1015C00020593A200042656420583A20004D657346
:1015D0006820706F696E74206F7574206F6620725A
:1015E000616E67650A0070726F6D70745F0062658E
:1015F00067696E004D302053746F70004D31205379
:10160000746F70004E6F204D6F76652E00256973E4
:101610000025696D20256973002569682025696D9D
:101620002025697300256964202569682025696D76
:10163000202569730025697920256964202569685A
:101640002025696D20256973005072696E742074BD
:10165000696D653A20006D3B002054696D65206C12
:101660006566743A2000253B002050726F677265F2
:1016700073733A2000204D3733006F6B006F66663E
:1016800000DB05D605CF05C805BA054445425547D8
:101690003A004D313133205300417274696C6C65EE
:1016A0007279205369646577696E64657220583178
:1016B000204F46462E002F2F00250A0046523A00A2
:1016C00020466C6F773A20003A20002053657276EE
:1016D0006F2000206F7574206F662072616E6765E1
:1016E0000A00536572766F200050726F6265204F5A
:1016F0006666736574205A0050726F6265204F668B
:1017000066736574205A0064697300656E0043292E
:101710000A0061626C656420286D696E2074656DD5
:10172000702000436F6C6420657874727564657313
:10173000206172652000424C546F756368204853E5
:10174000206D6F646520004D65736820706F696E51
:1017500074206F7574206F662072616E67650A0071
:101760004D34323120696E636F727265637420701C
:101770006172616D657465722075736167650A00D9
:101780004F666673657473204170706C69656400A0
:10179000546F6F206661722066726F6D207265668D
:1017A0006572656E636520706F696E740A004545E9
:1017B00050524F4D204F4B0A00206F722030207442
:1017C0006F2064697361626C650A003F46726571DF
:1017D00075656E637920284629206D7573742062C3
:1017E000652067726561746572207468616E20009F
:1017F0003F5A657461202844292076616C75652004
:101800006F7574206F662072616E67652028302DB9
:1018100031290A00290A0020746F20003F5A206FE6
:101820007574206F662072616E6765202800290A32
:101830000020746F20003F59206F7574206F662060
:1018400072616E676520282D00290A0020746F20C0
:10185000003F58206F7574206F662072616E676557
:1018600020282D002E0A002028302D31302900207C
:1018700076616C7565206F7574206F662072616E7D
:10188000676500416476616E6365204B3D003F28CB
:101890005929206F7574206F6620626F756E6473AE
:1018A0002E0A003F285829206F7574206F66206229
:1018B0006F756E64732E0A0020696E646578206906
:1018C0006E76616C69642028312E2E32292E0A0032
:1018D0003F2853292050726F62652D706F736974B1
:1018E000696F6E003F2853292069732072657175F6
:1018F000697265642E0A006F6B0020204D3230360D
:10190000205800486F6D65206F66667365740044EB
:101910006966663A2020200046726F6D5374703AF3
:1019200000537465707065723A00556E4C6576654B
:101930006C3A004C6576656C65643A005261773AA2
:1019400020202020000A4C6F676963616C3A0043D5
:101950006F756E7420453A004361703A007D7D7D5D
:101960000A002C7A3A002C793A007D2C6D61783A85
:101970007B783A002C7A3A002C793A007D7D2C77DE
:101980006F726B3A7B6D696E3A7B783A002C7A3ACB
:10199000002C793A007D2C6D61783A7B783A002CE6
:1019A0007A3A002C793A00617265613A7B66756C0F
:1019B0006C3A7B6D696E3A7B783A00434F4E4649EC
:1019C000475F4558504F5254004D45415450414394
:1019D0004B00434F4F4C45525F54454D504552418B
:1019E00054555245004348414D4245525F54454D80
:1019F0005045524154555245004241425953544575
:101A00005050494E470041524353004D4F54494FA7
:101A10004E5F4D4F44455300544845524D414C5F35
:101A200050524F54454354494F4E00455854454E2B
:101A30004445445F4D323000435553544F4D5F464B
:101A400049524D574152455F55504C4F4144004C0F
:101A5000464E5F5752495445004C4F4E475F4649EA
:101A60004C454E414D45004155544F5245504F5203
:101A7000545F53445F5354415455530053445F578C
:101A80005249544500524550454154005344434146
:101A900052440050524F4D50545F535550504F5286
:101AA0005400484F53545F414354494F4E5F434F96
:101AB0004D4D414E445300454D455247454E4359C7
:101AC0005F50415253455200434153455F4C494793
:101AD00048545F4252494748544E45535300544F6F
:101AE00047474C455F4C494748545300534F465471
:101AF000574152455F504F574552004255494C445B
:101B00005F50455243454E54004C4556454C494E56
:101B1000475F44415441005A5F50524F4245005282
:101B2000554E4F5554004155544F4C4556454C0069
:101B30005052494E545F4A4F420050524F4752450F
:101B40005353004155544F5245504F52545F5445E2
:101B50004D50004155544F5245504F52545F504FD5
:101B60005300564F4C554D4554524943004545503E
:101B7000524F4D0042494E4152595F46494C455FD4
:101B80005452414E534645520053455249414C5FD1
:101B9000584F4E5F584F4646004649524D574152A6
:101BA000455F4E414D453A4D61726C696E20322E53
:101BB000312E32202D20444947412D546563682041
:101BC00041535758312076312E3020284D617920ED
:101BD000313420323032332031333A30343A3535F3
:101BE0002920534F555243455F434F44455F55525B
:101BF0004C3A6769746875622E636F6D2F4D617220
:101C00006C696E4669726D776172652F4D61726C99
:101C1000696E2050524F544F434F4C5F56455253BC
:101C2000494F4E3A312E30204D414348494E455F91
:101C3000545950453A417274696C6C6572792053FD
:101C400069646577696E646572205831204558541F
:101C500052554445525F434F554E543A31205555E5
:101C600049443A63656465326132662D34316132CC
:101C70002D343734382D396231322D6335356336A2
:101C80003266333637666600203B0020204D3835FB
:101C9000312058005A2D50726F6265204F6666736E
:101CA00065740042656420436F6F6C696E672E2E09
:101CB0002E004265642048656174696E672E2E2E81
:101CC00000206661696C656421204261642068655A
:101CD000617465722069640A00504944204175743A
:101CE0006F74756E650023646566696E6520444592
:101CF0004641554C545F0000626564004B6420000F
:101D00004B6920004B7020005049442074756E6967
:101D10006E6720646F6E65002066696E6973686522
:101D200064212050757420746865206C6173742080
:101D30004B702C204B6920616E64204B6420636FD4
:101D40006E7374616E74732066726F6D2062656C61
:101D50006F7720696E746F20436F6E666967757266
:101D60006174696F6E2E680A005049442041757491
:101D70006F74756E6500206661696C6564212074FE
:101D8000696D656F75740A00504944204175746F20
:101D900074756E65004175746F74756E652066614B
:101DA000696C6564212054696D656F75742E00201F
:101DB0006661696C6564212054656D70657261743B
:101DC00075726520746F6F20686967680A005049F2
:101DD00044204175746F74756E6500204B643A2021
:101DE00000204B693A2000204B703A200020436CC1
:101DF000617373696320504944200A00204E6F20AC
:101E00006F76657273686F6F740A002054753A209C
:101E100000204B753A2000206D61783A2000206D3B
:101E2000696E3A200020643A200020626961733AAA
:101E3000200048656174696E672E2E2E0020737431
:101E40006172740A00504944204175746F74756E54
:101E500065004175746F74756E65206661696C65A7
:101E600064212054656D70657261747572652074AB
:101E70006F6F20686967682E00206661696C656411
:101E8000212054656D706572617475726520746F80
:101E90006F20686967680A00504944204175746F73
:101EA00074756E6500504944204175746F74756E89
:101EB0006500486F6D696E67204661696C656400F6
:101EC0006F70656E00545249474745524544003A89
:101ED00020007A5F70726F6265007A5F6D696E00D4
:101EE000795F6D696E00785F6D696E005265706F25
:101EF0007274696E6720656E6473746F702073749A
:101F0000617475730A0020746F6F206C6F6E6720A8
:101F1000657874727573696F6E2070726576656E20
:101F20007465640A0020636F6C6420657874727550
:101F300073696F6E2070726576656E7465640A00F1
:101F40006E6F74696669636174696F6E2000486FB3
:101F50006D6520257320466972737400000040C0CF
:101F6000000040C0000000005761726E696E673A61
:101F700020486F6D696E672042756D7020446976E8
:101F800069736F72203C20310A00020204008097BE
:101F900043008097430000C8430000A0400000A019
:101FA000400000004053544F505045442E200050F4
:101FB00072696E7465722073746F707065642064EA
:101FC000756520746F206572726F72732E2046697A
:101FD0007820746865206572726F7220616E64206B
:101FE000757365204D39393920746F2072657374AB
:101FF0006172742E202854656D70657261747572FB
:10200000652069732072657365742E205365742092
:10201000697420616674657220726573746172748C
:10202000696E67290A00206572726F72202D207216
:102030006573746172742077697468204D39393919
:102040000A00424C546F7563680021212053544F9D
:10205000502063616C6C65642062656361757365B3
:10206000206F66200000009643000096430000C8E1
:1020700043000040C0000040C000000000536574F1
:1020800074696E67732053746F72656400290A0067
:102090002062797465733B2063726320005365741A
:1020A00074696E67732053746F72656420280045ED
:1020B0004550524F4D20496E697469616C697A656B
:1020C000640A004D65736820736176656420696EEB
:1020D00020736C6F7420003F556E61626C652074D4
:1020E0006F2073617665206D65736820646174612B
:1020F0002E0A0020736C6F743D00206D6573686557
:10210000735F656E643D004532454E443D00206D71
:1021100065736820736C6F747320617661696C619C
:10212000626C652E0A003F496E76616C69642073AB
:102130006C6F742E0A004D657368206C6F61646566
:10214000642066726F6D20736C6F7420003F556E53
:1021500061626C6520746F206C6F6164206D6573C3
:102160006820646174612E0A0048617264636F6460
:1021700065642044656661756C7420536574746988
:102180006E6773204C6F616465640020583A0020CC
:10219000286D6D2900203B204C6576656C696E6763
:1021A000200020204D343230205300556E6966697E
:1021B000656420426564204C6576656C696E6700D5
:1021C00020204D393030204B004C696E6561722003
:1021D000416476616E636500206D65736865732E7A
:1021E0000A0A00454550524F4D2063616E20686FCA
:1021F0006C642000416374697665204D65736820C6
:10220000536C6F74200020204D3134392043203B23
:1022100020556E69747320696E2043656C7369750F
:10222000730A0054656D706572617475726520552E
:102230006E697473002020473231203B004C696E78
:1022400065617220556E697473003F4D6573682037
:10225000746F6F2062696720666F72204545505227
:102260004F4D2E0A00454550524F4D206461746118
:1022700073697A65206572726F722E0A0055424C3E
:102280002072657365740A00206C6F616465642058
:1022900066726F6D2073746F726167652E0A004DF0
:1022A000657368200053746F72656420736574747D
:1022B000696E67732072657472696576656400295A
:1022C0000A002062797465733B20637263200020EA
:1022D00073746F7265642073657474696E677320BC
:1022E00072657472696576656420280045455052B0
:1022F0004F4D20435243204572726F720020286375
:10230000616C63756C6174656429210A0020213D4C
:102310002000454550524F4D20435243206D697374
:102320006D61746368202D202873746F7265642951
:1023300020002053697A653A2000496E6465783A36
:10234000200000004843000048430000A041000076
:102350002042F43DA042F43DA04296E3C7430080F2
:10236000DE43D0070000D007000064000000102703
:102370000000454550524F4D2056657273696F6E8F
:10238000204572726F7200204D61726C696E3D560D
:102390003837290A00454550524F4D2076657273F3
:1023A000696F6E206D69736D61746368202845459F
:1023B00050524F4D3D0024F404D9201BC40C5C0E38
:1023C0009804C4095F0265077101F405F900FB0474
:1023D000B30048048700C103690058035500030394
:1023E0004500BE023A008402310053022A0029024D
:1023F000250004022000E4011C00C8011900AF01FF
:10240000170098011400840113007101100061018C
:10241000100051010E0043010D0036010B002B018D
:102420000B0020010B00150109000C01090003013C
:102430000800FB000800F3000800EB000700E400C0
:102440000600DE000600D8000600D2000600CC0020
:102450000500C7000500C2000500BD000400B9006A
:102460000400B5000400B1000400AD000400A900A0
:102470000400A5000300A20003009F0004009B00CD
:1024800003009800030095000200930003009000F1
:1024900003008D0002008B0003008800020086000C
:1024A000020084000300810002007F0002007D0022
:1024B00002007B0002007900020077000100760034
:1024C00002007400020072000100710002006F003F
:1024D00002006D0001006C0002006A00010069004A
:1024E0000200670001006600010065000100640051
:1024F00002006200010061000100600001005F0055
:1025000002005D0001005C0001005B0001005A0058
:102510000100590001005800010057000100560059
:102520000100550001005400010053000000530059
:1025300001005200010051000100500001004F0055
:1025400001004E0000004E0001004D0001004C0053
:1025500001004B0000004B0001004A00010049004F
:10256000010048000000480001004700010046004B
:102570000000460001004500000045000100440045
:10258000010043000000430001004200000042003F
:1025900001004100000041000100400001003F0037
:1025A00000003F0001003E0000003E0001003D0031
:1025B00000003D0001003C0000003C0000003C0029
:1025C00001003B0000003B0001003A0000003A001F
:1025D0000100390000003900010038000000380017
:1025E000000038000100370000003700010036000D
:1025F0000000360000003600010035000000350004
:1026000000003500010034000000340000003400F8
:1026100001003300000033000000330001003200ED
:1026200000003200000032000100310000003100E3
:1026300000003100010030000000300000003000D8
:1026400001002F0000002F0000002F0000002F00CD
:1026500001002E0000002E0000002E0001002D00C1
:1026600000002D0000002D0000002D0001002C00B6
:1026700000002C0000002C0000002C0001002B00AA
:1026800000002B0000002B0000002B0001002A009E
:1026900000002A0000002A0000002A000100290092
:1026A0000000290000002900000029000000290086
:1026B0000100280000002800000028000000280079
:1026C000000028000100270000002700000027006C
:1026D000000027000000270001002600000026005F
:1026E0000000260000002600000026000100250052
:1026F0000000250000002500000025000000250046
:102700000000250001002400000024000000240037
:10271000000024000000240001002300000023002A
:10272000000023000000230000002300000023001D
:10273000000023000100220000002200000022000F
:102740000000220000002200000022000100210001
:1027500000002100000021000000210000002100F5
:1027600000002100000021000100200000002000E6
:1027700000002000000020000000200000002000D9
:10278000000020000000200001001F0000001F00CA
:1027900000001F0000001F0000001F0000001F00BD
:1027A00000001F0001001E0000001E0000001E00AF
:1027B00000001E00000024F4D43050C38E20C2A2BA
:1027C0004017828B7011127A910D816CD90AA86121
:1027D000E108C7586607615143061E4B5D05C145B8
:1027E000A7041A411104093D980371393103403699
:1027F000DB0265339102D4305402802E1D02632C1B
:10280000EE01752AC501B028A001102781018F258E
:1028100064012B244B01E0223401AC211F018D20E7
:102820000D01801FFC00841EED00971DDF00B81C09
:10283000D200E61BC600201BBC00641AB200B2190D
:10284000A8000A19A0006A189900D1179100401732
:102850008B00B516840031167E00B31579003A1549
:102860007300C7146F0058146A00EE1366008813D3
:10287000630025135E00C7125B006C12570015122F
:102880005400C111510070114F0021114B00D6109E
:1028900049008D1047004610440002104200C00F4E
:1028A0004000800F3E00420F3C00060F3B00CB0E65
:1028B0003800930E37005C0E3500270E3400F30D00
:1028C0003200C10D3100900D3000600D2E00320D30
:1028D0002D00050D2C00D90C2B00AE0C2900850C09
:1028E00029005C0C2700350C27000E0C2600E80B95
:1028F0002400C40B2400A00B23007D0B23005A0BE3
:102900002100390B2100180B2000F80A1F00D90AFA
:102910001E00BB0A1E009D0A1D00800A1D00630ADE
:102920001C00470A1B002C0A1B00110A1A00F70999
:102930001A00DD091900C4091900AB091900920930
:1029400017007B091800630917004C0916003609A7
:102950001600200916000A091500F5081500E00800
:102960001400CC081400B8081400A408140090083F
:1029700013007D0812006B08130058081200460867
:102980001200340811002308110012081100010878
:102990001100F0071000E0071000D0071000C0077A
:1029A0001000B0070F00A107100091070E00830769
:1029B0000F0074070F0065070E0057070E00490748
:1029C0000E003B070D002E070E0020070D00130719
:1029D0000D0006070D00F9060C00ED060D00E006DF
:1029E0000C00D4060C00C8060C00BC060C00B00697
:1029F0000C00A4060B0099060C008D060B00820645
:102A00000B0077060B006C060B0061060A005706E8
:102A10000B004C060A0042060A0038060A002E0681
:102A20000A0024060A001A060A0010060900070612
:102A30000A00FD050900F4050900EB050900E2059F
:102A40000900D9050900D0050900C7050900BE0520
:102A50000900B5050800AD050800A50509009C059D
:102A60000800940508008C050800840508007C0512
:102A70000800740508006C050700650508005D0581
:102A80000700560508004E050700470507004005EA
:102A9000080038050700310507002A05070023054F
:102AA00007001C050600160507000F0507000805AE
:102AB000060002050700FB040600F5040700EE040B
:102AC0000600E8040600E2040700DB040600D50463
:102AD0000600CF040600C9040600C3040600BD04B6
:102AE0000600B7040600B1040500AC040600A60405
:102AF0000600A00405009B04060095040500900450
:102B000006008A04050085040500800406007A0496
:102B1000050075040500700405006B0405006604DB
:102B20000500610405005C0405005704050052041B
:102B300005004D04050048040500430405003E045B
:102B400004003A04050035040500300404002C0498
:102B5000050027040400230405001E0404001A04D1
:102B6000040016040500110404000D040400090407
:102B700005000404040000040400FC030400F8033E
:102B80000400F4030400F0030400EC030400E80371
:102B90000400E4030400E0030400DC030400D803A1
:102BA0000400D4030400D0030400CC030400C803D1
:102BB0000300C503030020436F756E7420583A006C
:102BC000004500626564002C2073797374656D2084
:102BD00073746F7070656421204865617465725FFD
:102BE00049443A20004572723A204D415854454DAF
:102BF00050004D415854454D5020747269676765C7
:102C00007265640048656174696E67204661696C2D
:102C100065640048656174696E67206661696C650A
:102C200064004D3131322053687574646F776E00E3
:102C30004572723A204D494E54454D50004D494E13
:102C400054454D502074726967676572656400541D
:102C50004845524D414C2052554E41574159005420
:102C60006865726D616C2052756E617761790020C4
:102C70002F002042403A0020403A0020573A0020DE
:102C8000573A002053004D313036205000496E76BF
:102C9000616C69642065787472756465720A00708D
:102CA000012C0190012701B0012201C0011D01F09A
:102CB0000118011002130130020E01600209019097
:102CC000020401C002FF000003FA004003F5008087
:102CD00003F000D003EB002004E6007004E100E004
:102CE00004DC004005D700C005D2004006CD00D06E
:102CF00006C8008007C3003008BE00F008B900C055
:102D000009B400B00AAF00B00BAA00D00CA50000B7
:102D10000EA000500F9B00C01096005012910000B2
:102D2000148C00C0158700B0178200B0197D00D048
:102D30001B7800001E730040206E0090226900F096
:102D400024640040275F0090295A00E02B550010B2
:102D50002E500020304B0010324600E033410090EE
:102D6000353C001037370070383200A0392D00B0E4
:102D70003A2800A03B2300603C1E00103D19009043
:102D80003D1400103E0F00703E0A00C03E050000DA
:102D90003F0000403FFBFF803FF6FFC03FF1FF20B8
:102DA00020506C616E6E657242756666657242791E
:102DB0007465733A20002046726565204D656D6F1D
:102DC00072793A200020436F6D70696C65643A2017
:102DD0004D617920313420323032330A00204C6189
:102DE000737420557064617465643A2032303232F5
:102DF0002D31322D3137207C20417574686F723A45
:102E00002028444947412D546563682C204153577D
:102E100058312076312E30290A004D61726C696E6E
:102E200020322E312E320A0020536F667477617281
:102E3000652052657365740A002057617463686485
:102E40006F672052657365740A002042726F776E57
:102E5000206F75742052657365740A00204578747C
:102E600065726E616C2052657365740A00506F77ED
:102E7000657255700A0073746172740A0020503ACA
:102E800000205A3A0020593A0020583A00656E64F2
:102E900073746F7073206869743A200000000A0B25
:102EA00002090C0D0E0807030401000000000000D9
:102EB0000000000000000000000000000000000012
:102EC00000000000000000001211100000000000CF
:102ED00000000000000000000000000000000000F2
:102EE0000000D21F0000DA170000E50F00008A0979
:102EF00000004C050000CE02000071010000BB0084
:102F00000000FFFFFF8B214A314631423172657369
:102F1000756D6564004469736D6973730052657300
:102F2000756D696E670053656E64204D31303820D1
:102F3000746F20726573756D650A00496E736572F2
:102F4000742066696C616D656E7420616E642073B7
:102F5000656E64204D3130380A00526568656174D1
:102F600020446F6E6500526568656174696E672EF6
:102F70002E2E005265686561740048656174657243
:102F80002054696D656F75740053656E64204D3112
:102F9000303820746F2068656174206E6F7A7A6CA7
:102FA000650A004E6F7A7A6C65205061726B6564B9
:102FB0000073686F7700626567696E0050757267AD
:102FC000654D6F72650050617573656400436F6E87
:102FD00074696E7565004C6F61642046696C616D43
:102FE000656E74205400496E736572742066696C56
:102FF000616D656E7420616E642073656E64204D32
:103000003130380A00220A00556E6B6E6F776E20E1
:10301000636F6D6D616E643A202200204500205A76
:103020000020590020204D3932205800537465701B
:10303000732070657220756E69740000002200258F
:103040000028002B002E0031003400020100000592
:103050000108010B0100002100240027002A002D97
:10306000003000330001010000040107010A0105DE
:10307000050505070508080808020202020A0A08F1
:103080000804040404010101010101010103030317
:103090000303030303040707070C0C0C0C0C0C0CB4
:1030A0000C0202020206060606060606060B0B0BBB
:1030B0000B0B0B0B0B0102102020080810204010F6
:1030C00020408002010201080402010102040810EC
:1030D000204080804020100804020180040201800A
:1030E0004020100804020108040201010204081033
:1030F000204080010204081020408020746F6F205F
:103100006C6F6E6720657874727573696F6E20706E
:10311000726576656E7465640A0020636F6C642066
:10312000657874727573696F6E2070726576656EFE
:103130007465640A006F6B0A00526573656E643AC9
:10314000200020453A00205A3A0020593A00583AC7
:1031500000706F7765726F6666005072696E746595
:10316000722068616C7465642E206B696C6C282910
:103170002063616C6C6564210A0040F111241FBE5C
:10318000CFEFD1E2DEBFCDBF00E00CBF84B78093AC
:103190001A1714BE0FB6F894A89580916000886144
:1031A00080936000109260000FBE13E0A0E0B2E0D8
:1031B000E6ECFFE002E00BBF02C007900D92A639DB
:1031C000B107D9F727E1A6E9B3E001C01D92AA3102
:1031D000B207E1F718E1CEEBD8E100E006C0219795
:1031E0000109802FFE010F949903CD3BD10780E0A8
:1031F0000807A9F70E949DF20D94E1070C940000C6
:103200008F929F92AF92BF92CF92DF92EF92FF92F6
:103210000F931F93CF93DF93EC018A01072E000CCD
:10322000880B990B0E94F8FC4B015C01C880D98087
:10323000EA80FB80A70196010F94D90518162CF49B
:1032400088829982AA82BB8210C0B801110F880BB4
:10325000990B0E94F8FC4B015C01AC019B01C7017A
:10326000B6010F94D90518165CF3DF91CF911F9129
:103270000F91FF90EF90DF90CF90BF90AF909F9015
:103280008F900895AF92BF92CF92DF92EF92FF920C
:103290000F931F93CF93DF93C2E3DCE005EF1BE0B6
:1032A00082E4A82E8CE0B82EC12CD12C7601C394D8
:1032B00069917991899199910E94F6FC28893989BF
:1032C0004A895B890E9457FD0F94FB04F8016193C2
:1032D0007193819391938F01C616D706E806F9067C
:1032E00010F46B017C01AC16BD0611F76FEF7FEF98
:1032F000CB01A70196010F941C032093050C30937A
:10330000060C4093070C5093080CDF91CF911F914E
:103310000F91FF90EF90DF90CF90BF90AF90089506
:10332000CF92DF92EF92FF9280914705882309F4B4
:1033300057C0C0904305D0904405E0904505F090FB
:10334000460520E030E0A901C701B6010E94F2FC69
:10335000882309F445C020E030E040E05FE3C70186
:10336000B6010E9457FD9B01AC010E9457FD2BED59
:103370003FE049E450E40E9457FD9B01AC0160E04E
:1033800070E080E89FE30F948E046B017C01C09293
:103390005804D0925904E0925A04F0925B04609170
:1033A0001A0270911B02072E000C880B990B0E94C9
:1033B000F8FC2AE037ED43E25CE30E9457FDA701E9
:1033C00096010E9457FD609364027093650280939A
:1033D000660290936702FF90EF90DF90CF90089580
:1033E000C12CD12C80E8E82E8FE3F82ED0CFFC0141
:1033F0007081472F50E0062E02C0559547950A94DC
:10340000E2F740FF14C040914B0450E0062E02C08A
:10341000559547950A94E2F740FF09C021E030E056
:1034200001C0220F6A95EAF720952723208308958B
:10343000CF93DF9324E0829FC0011124EC01CD598A
:10344000DD4EFC01E555FA4F845B9B4FDC012D916D
:103450003D914D915C9160817181828193810F9446
:10346000B203688379838A839B83DF91CF91089528
:103470008091470490914804A0914904B0914A0476
:103480008093600290936102A0936202B093630202
:10349000809145049091460490935F0280935E0270
:1034A00008958091600290916102A0916202B091B2
:1034B00063028093470490934804A0934904B09317
:1034C0004A0480915E0290915F029093460480933B
:1034D000450484E690E090935F0280935E02089535
:1034E000CF92DF92EF92FF92CF93DF93EC01FB013B
:1034F000C080D180E280F38023EA31E040E450ECE8
:10350000C701B6010F94D90587FD23C023E030E041
:1035100046E953E4C701B6010E94F2FC1816CCF04C
:10352000C880D980EA80FB8023EA31E040E450EC97
:10353000C701B6010F94D90587FD0BC0C1E023E098
:1035400030E046E953E4C701B6010E94F2FC1816C8
:103550000CF4C0E08C2FDF91CF91FF90EF90DF90C3
:10356000CF9008954F925F926F927F928F929F9229
:10357000AF92BF92CF92DF92EF92FF92CF93DF9301
:10358000CDB7DEB76E970FB6F894DEBF0FBECDBFD6
:103590009E8F8D8FFC01C4A8D5A8E6A8F7A820E0CF
:1035A00030E0A901C701B6010E94F2FC882309F4AA
:1035B00097C1A701960160E070E080E89FE30F9457
:1035C0008E046B017C01ED8DFE8D20813181428165
:1035D00053810E9457FD6D837E838F839887ED8D85
:1035E000FE8D2481358146815781C701B6010E9435
:1035F00057FD2B013C01ED8DFE8D248535854685DB
:103600005785C701B6010E9457FD4B015C012D8112
:103610003E814F815885CA01B9010E9457FD9B0127
:10362000AC01C501B4010F94B103698B7A8B8B8B0C
:103630009C8BED8DFE8D2089318942895389C7018C
:10364000B6010E9457FD4B015C01A3019201C30129
:10365000B2010E9457FD9B01AC01C501B4010F945A
:10366000B1036D8B7E8B8F8B988FED8DFE8D2489B2
:10367000358946895789C701B6010E9457FD4B011C
:103680005C01A30192016D817E818F8198850E94EA
:1036900057FD9B01AC01C501B4010F94B1036983CF
:1036A0007A838B839C832D893E894F89588D6989C4
:1036B0007A898B899C890E9457FD4B015C01298185
:1036C0003A814B815C81CA01B9010E9457FD9B017F
:1036D000AC01C501B4010F94B10369877A878B8768
:1036E0009C8720E030E0A9010F94D90589849A8451
:1036F000AB84BC8487FF04C0B7FAB094B7F8B09429
:10370000ED8DFE8D24A135A146A157A160A171A127
:1037100082A193A10F94B2032FEF36EE4BED5EE240
:103720000E9457FDA50194010F94D90587FFD8C0C9
:10373000ED8DFE8D2085318542855385C701B6010B
:103740000E9457FD6D877E878F87988BED8DFE8D4C
:10375000248D358D468D578DC701B6010E9457FDCA
:103760004B015C012D853E854F855889C301B2010F
:103770000E9457FD9B01AC01C501B4010F94B10338
:103780004B015C01ED8DFE8D208D318D428D538D71
:10379000C701B6010E9457FD6B017C012D853E8556
:1037A0004F8558896D817E818F8198850E9457FD54
:1037B0009B01AC01C701B6010F94B103698F7A8FE9
:1037C0008B8F9C8FA501940169817A818B819C816B
:1037D0000E9457FD6B017C01298D3A8D4B8D5C8DCC
:1037E0006D897E898F89988D0E9457FD9B01AC0160
:1037F000C701B6010F94B10329853A854B855C85D5
:103800000F948E046B017C01ED8DFE8DC0A6D1A6B8
:10381000E2A6F3A6298D3A8D4B8D5C8D69817A8164
:103820008B819C810E9457FD69837A838B839C8363
:10383000A501940169897A898B899C890E9457FD29
:103840009B01AC0169817A818B819C810F94B103CA
:1038500029853A854B855C850F948E044B015C016C
:10386000ED8DFE8D84A695A6A6A6B7A62D813E81D8
:103870004F815885C701B6010E9457FD2D853E85B1
:103880004F8558890F94B2036B017C01A30192010B
:10389000C501B4010E9457FD9B01AC01C701B601EF
:1038A0000F94B2039058ED8DFE8D60AB71AB82AB7F
:1038B00093AB90E080E06E960FB6F894DEBF0FBE3B
:1038C000CDBFDF91CF91FF90EF90DF90CF90BF9071
:1038D000AF909F908F907F906F905F904F900895E2
:1038E00081E090E0E8CF90E080E008952091050429
:1038F000833021F425FD0CC024FD0CC030E0A9016B
:1039000002C0559547958A95E2F7CA0181700895DE
:1039100081E0089580E008958091200484FD0BC02B
:103920008091220487FD07C090912304937081E069
:1039300019F480E0089581E00895FC016591759186
:103940008591949108958091640481110EC0209115
:103950002002309121022150310981E04091A312CF
:103960005091A412421753070CF080E008950F9372
:103970001F9341E050E0082E02C0440F551F0A94E7
:10398000E2F7052E000C660B770B009100041091F6
:1039900001042091020430910304402B512B622B2F
:1039A000732B4093000450930104609302047093BE
:1039B000030490911102891303C081E08093300CBD
:1039C0001F910F910895282F80931102803240F5A6
:1039D00080910404281724F081E0820F809304046E
:1039E00081E090E002C0880F991F2A95E2F7092E26
:1039F000000CAA0BBB0B4091000450910104609194
:103A000002047091030484239523A623B72321E0A5
:103A1000892B8A2B8B2B09F420E02093300C0895FE
:103A20001092300C0895840F911DFC01808190E06C
:103A300002C0959587956A95E2F781700895FC011B
:103A400020812617170611F00CF0608308954F921D
:103A50005F926F927F928F929F92AF92BF92CF921E
:103A6000DF92EF92FF920F931F93CF93DF93C82FB4
:103A7000062F542E622EE62EF12C37E0732EC82E20
:103A8000D12CF701789EE00DF11D1124EE0FFF1FE0
:103A9000EE0FFF1FEF58FB4F608171818281938190
:103AA0009B01AC010F94B506882309F47AC0C50DBB
:103AB0000C2E000CDD0B060D002E000C110B7C9E55
:103AC000F0017D9EF00D1124E00FF11FEE0FFF1F9E
:103AD000EE0FFF1FEF58FB4F80809180A280B380D4
:103AE000A5019401C501B4010F94B506811159C017
:103AF000C50DD11D57FCDA957C9EF0017D9EF00D21
:103B00001124060D111D67FC1A95E00FF11FEE0F31
:103B1000FF1FEE0FFF1FEF58FB4F40805180628068
:103B20007380A3019201C301B2010F94B506811104
:103B300038C0A3019201C501B4010E94F2FC87FDC7
:103B40000CC0A5019401C501B4010F94B203A301F7
:103B500092010F94B1034B015C0187E08C9DF00151
:103B60008D9DF00D1124EE0DFF1DEE0FFF1FEE0FCA
:103B7000FF1FEF58FB4F80829182A282B38281E0C7
:103B8000DF91CF911F910F91FF90EF90DF90CF9039
:103B9000BF90AF909F908F907F906F905F904F906D
:103BA000089580E0EDCF8F929F92AF92BF92CF9217
:103BB000DF92EF92FF920F931F93CF93DF9381EBEE
:103BC000E82E8BE0F82E99EBC92E9BE0D92EF70159
:103BD00085919491FC01A4903296B4903197C49150
:103BE000329604910496FC0184918823F1F0882494
:103BF0008A94AC1614F488248394002E000C110BC4
:103C00000C2E000CDD0BB016110669F19A2C9C16D7
:103C10001D0649F020E0482D6B2D892D18DF8111FC
:103C200002C0980CF4CFB394EECF88248A94B016D7
:103C300014F4882483940C2E000CDD0B002E000C51
:103C4000110BAC161D0679F09B2C9016110649F04D
:103C5000282D40E0692D8A2DFADE811102C0980CD2
:103C6000F4CFA394EECFF2E0EF0EF11CCE14DF04FC
:103C700009F0ADCFDF91CF911F910F91FF90EF90A1
:103C8000DF90CF90BF90AF909F908F9008954F920C
:103C90005F926F927F928F929F92AF92BF92CF92DC
:103CA000DF92EF92FF920F931F93CF93DF93409099
:103CB000CF035090D0036090D1037090D20301E7FE
:103CC00014E0C7E07801D7E0F70181909190A190CE
:103CD000B1907F01A5019401C501B4010F94B5060F
:103CE00081110FC06701F4E0CF1AD108A50194013A
:103CF000C301B2010F94B203F60160837183828322
:103D00009383D15009F7C150045E1F4FC111DACF20
:103D1000DF91CF911F910F91FF90EF90DF90CF90A7
:103D2000BF90AF909F908F907F906F905F904F90DB
:103D300008958F929F92AF92BF92CF92DF92EF92AF
:103D4000FF920F931F93CF93DF93EC017B018A01C6
:103D50006901FB0120813181428153816881798130
:103D60008A819B810F94B203688379838A839B83C2
:103D7000F80120813181428153816C817D818E8166
:103D80009F810F94B2036C837D838E839F83F601A2
:103D90002081318142815381688579858A859B851F
:103DA0000F94B203688779878A879B87F7016081C0
:103DB0007181828193819B01AC010E9457FD9B011F
:103DC000AC016C857D858E859F850F94B2036C87D1
:103DD0007D878E879F87F8016081718182819381C1
:103DE0009B01AC010E9457FD9B01AC016889798958
:103DF0008A899B890F94B203688B798B8A8B9B8B02
:103E0000F8012081318142815381F7016081718104
:103E1000828193810E9457FD9B01AC016C897D8951
:103E20008E899F890F94B2036C8B7D8B8E8B9F8BB9
:103E3000F6012081318142815381F70160817181D6
:103E4000828193810E9457FD9B01AC01688D798D21
:103E50008A8D9B8D0F94B203688F798F8A8F9B8F89
:103E6000F6012081318142815381F80160817181A5
:103E7000828193810E9457FD9B01AC016C8D7D8DE9
:103E80008E8D9F8D0F94B2036C8F7D8F8E8F9F8F41
:103E900088A099A0AAA0BBA0F701C080D180E28031
:103EA000F38020E030E0A901C701B6010F94D905E5
:103EB00087FF04C0F7FAF094F7F8F094A701960191
:103EC000B401C5010E94F2FC87FD02C064017501C6
:103ED000C8A2D9A2EAA2FBA28CA09DA0AEA0BFA0BE
:103EE000F801C080D180E280F38020E030E0A901B9
:103EF000C701B6010F94D90587FF04C0F7FAF09403
:103F0000F7F8F094A7019601B401C5010E94F2FCF4
:103F100087FD02C064017501CCA2DDA2EEA2FFA262
:103F200020E030E040E85FE36CA97DA98EA99FA95D
:103F30000F94B2036CAB7DAB8EAB9FABDF91CF9197
:103F40001F910F91FF90EF90DF90CF90BF90AF90B7
:103F50009F908F9008952FEB280F2A3108F047C0CB
:103F6000E22FF0E08091200490912104A09122049E
:103F7000B091230404C0B695A795979587952A9587
:103F8000D2F780FD02C081700895EA5FFB4FE081A7
:103F9000EE2341F18091F30B9091F40BE80FF92F90
:103FA000F11D808190ED980F9A3030F08E3251F4EF
:103FB000818180538A3098F4F093FD03E093FC03F1
:103FC00081E008958D3211F08B3249F4818190EDBA
:103FD000980F9A3088F38E3211F48281EACFF0E0A4
:103FE000E0E0EACF1092FD031092FC03E9CF80E0FD
:103FF0000895B1DF882341F081E02091FC033091E6
:10400000FD03232B09F480E00895CF92DF92EF9215
:10401000FF92E0914513F091461320E030E046E92D
:1040200053E464817581868197810F94B2036B019B
:104030007C0120E030E041E953E40F94D9051816E3
:1040400034F4C12CD12C81E9E82E83E4F82EC70189
:10405000B601FF90EF90DF90CF900895CF92DF925E
:10406000EF92FF92E0914513F091461320E030E08B
:1040700040E450E464817581868197810F94B10397
:104080006B017C0120E030E040E251E40E94F2FC50
:1040900087FF06C0C12CD12C80E2E82E81E4F82EE7
:1040A000C701B601FF90EF90DF90CF900895CF92B7
:1040B000DF92EF92FF92E0914513F091461320E0DA
:1040C00030E046E953E460817181828193810F94ED
:1040D000B2036B017C0120E030E041E953E40F942E
:1040E000D905181634F4C12CD12C81E9E82E83E4CB
:1040F000F82EC701B601FF90EF90DF90CF900895A2
:10410000CF92DF92EF92FF92E0914513F091461328
:1041100020E030E040E450E460817181828193814D
:104120000F94B1036B017C0120E030E040E251E4E8
:104130000E94F2FC87FF06C0C12CD12C80E2E82E41
:1041400081E4F82EC701B601FF90EF90DF90CF9089
:10415000089508954F925F926F927F928F929F92EF
:10416000AF92BF92CF92DF92EF92FF921F93CF93C5
:10417000DF9300D000D01F921F92CDB7DEB76C0145
:104180007B01442309F487C0FB0180809180A280D9
:10419000B380E0904513F0904613F70124813581F8
:1041A00046815781C501B4010F94B1036D837E83AD
:1041B0008F839887F6014080518062807380F70179
:1041C0002081318142815381C301B2010F94B10337
:1041D00069837A838B839C83BE016B5F7F4FCE01A3
:1041E00001967ED9182F882309F43EC089DF27E184
:1041F00037EB41ED58E30F94B1039B01AC01C301D0
:10420000B2010F94D90587FD2EC051DF27E137EBAE
:1042100041ED58E30F94B2039B01AC01C301B2011D
:104220000E94F2FC1816FCF019DF27E137EB41ED94
:1042300058E30F94B1039B01AC01C501B4010F9485
:10424000D90587FD10C0E1DE27E137EB41ED58E3EA
:104250000F94B2039B01AC0111E0C501B4010E94AF
:10426000F2FC18160CF410E0812F28960FB6F89483
:10427000DEBF0FBECDBFDF91CF911F91FF90EF90BA
:10428000DF90CF90BF90AF909F908F907F906F9076
:104290005F904F90089524D9182F882329F3A09078
:1042A0004513B0904613F50120813181428153813D
:1042B000F60160817181828193810F94B2032B0199
:1042C0003C011EDF27E137EB41ED58E30F94B103CA
:1042D0009B01AC01C301B2010F94D90587FDC3CF87
:1042E000E6DE27E137EB41ED58E30F94B2039B0183
:1042F000AC01C301B2010E94F2FC18160CF4B3CF5A
:10430000F5012481358146815781F70160817181F2
:10431000828193810F94B2036B017C019FDE27E1C0
:1043200037EB41ED58E30F94B1039B01AC01C7019A
:10433000B6010F94D90587FD96CF67DE27E137EBED
:1043400041ED58E30F94B2039B01AC0111E0C701AA
:10435000B60185CF462FBC016C5F7F4FFBCE2FEFA0
:10436000FC01208321830895682F70E08730A0F43A
:10437000660F771F660F771FFB01E453F34F4591DC
:10438000559165917491F42FE52F362F272F6F2FBC
:104390007E2F832F922F0895072E000C880B990BE8
:1043A0000E94F8FC2BEA3AEA4AE352E40E9457FDE5
:1043B00020E030E040E251E40F94B203F62FE72F03
:1043C000382F292FE4CF682F70E08730A0F4660FD4
:1043D000771F660F771FFB01E851F34F4591559109
:1043E00065917491F42FE52F362F272F6F2F7E2F95
:1043F000832F922F0895072E000C880B990B0E9493
:10440000F8FC2BEA3AEA4AE352E40E9457FD20E026
:1044100030E040E251E40F94B203F62FE72F382F3B
:10442000292FE4CF0F931F93CF93DF9300D000D0B9
:104430001F921F92CDB7DEB78C01FC018081C3DFD4
:1044400069837A838B839C83F80181818DDFE62FDA
:10445000462F572FBC014D835E836F837887298158
:104460003A814B815C816E2F7E818F819885289661
:104470000FB6F894DEBF0FBECDBFDF91CF911F9175
:104480000F910895861797070CF4CB010895BC018E
:104490006C5F7F4F25C8EAE7F1E180818183089551
:1044A000681779070CF4CB010895CF92DF92EF9251
:1044B000FF92DC0141E754E097E030E020E0CD904E
:1044C000DD90ED90FC901397F901EE0FFF1FEE0FBA
:1044D000FF1FE40FF51FC082D182E282F3822F5FBB
:1044E0003F4F2730310559F79150445E5F4F91118E
:1044F000E4CFFF90EF90DF90CF9008959091C303A9
:104500008093C303892F08950F931F93CF938C013A
:1045100020E030E040E251E4FC0160817181828161
:1045200093810F94B1032BEA3AEA4AEB51E40F94DA
:10453000B20328EF3AE84FEA5CE30E9457FD0F947C
:10454000F604C62F673008F0CFEF20E030E040E2FD
:1045500051E4F80164817581868197810F94B103DC
:104560002BEA3AEA4AEB51E40F94B20328EF3AE817
:104570004FEA5CE30E9457FD0F94F604962F6730D4
:1045800008F09FEF8C2FCF911F910F91089580918C
:10459000C2038823D1F10FB607FC2DC09091B00360
:1045A0008091B103981304C08091C00086FD2DC096
:1045B0008091C00085FF1EC08091B1032091B0039F
:1045C000821306C08091C1008F7D8093C10012C00C
:1045D000E82FF0E0E055FC4F92818F5F8F70909351
:1045E000C6008093B1039091C00090649093C00086
:1045F000281741F3D3CF9091B0038091B103981362
:1046000003C08091C00086FFF6CF0895EF92FF921D
:104610001F93CF93DF9391E7E92E94E0F92E17E0F3
:10462000D0E0C0E0FE01EE0FFF1FEE0FFF1FEE0D0A
:10463000FF1D60817181828193819B01AC010F9488
:10464000B506811111C02196C730D10559F7115017
:104650008CE1E80EF11C1111E3CF81E0DF91CF91E5
:104660001F91FF90EF90089580E0F8CF0F931F9374
:10467000CF93DF9306E41CE0CEE1DCE0F80121916A
:104680003191419151918F0160E070E080E89FE3AA
:104690000F948E046993799389939993FCE0CE32B9
:1046A000DF0761F70E942FB6DF91CF911F910F9125
:1046B0000C9442194F925F926F927F928F929F92C9
:1046C000AF92BF92CF92DF92EF92FF92CF93DF93A0
:1046D00000D000D0CDB7DEB79E838D83DC014D9036
:1046E0005D906D907C90139714968D909D90AD90F9
:1046F000BC90179718968D919D910D90BC91A02D0F
:1047000089839A83AB83BC83A3019201C301B20165
:104710000E9457FD6B017C01A5019401C501B40104
:104720000E9457FD9B01AC01C701B6010F94B20373
:104730006B017C0129813A814B815C81CA01B901FD
:104740000E9457FD9B01AC01C701B6010F94B20353
:104750000F946C069B01AC0160E070E080E89FE381
:104760000F948E046B017C01AC019B01C301B2016B
:104770000E9457FDED81FE81608371838283938364
:10478000A7019601C501B4010E9457FDAD81BE810C
:1047900014966D937D938D939C931797A701960123
:1047A00069817A818B819C810E9457FDED81FE8118
:1047B000608771878287938726960FB6F894DEBF4D
:1047C0000FBECDBFDF91CF91FF90EF90DF90CF90E4
:1047D000BF90AF909F908F907F906F905F904F9021
:1047E000089520E030E040E251E40F94B10328EF57
:1047F0003AE84FEA5CE30E9457FD0F9427050F94B7
:10480000F604862F663014F085E0089567FD80E099
:1048100008952F923F924F925F926F927F928F9264
:104820009F92AF92BF92CF92DF92EF92FF920F933F
:104830001F93CF93DF93CDB7DEB72C970FB6F894C5
:10484000DEBF0FBECDBF9A8389837A876987FC015B
:104850006081718182819381C4DFB82EE985FA85F8
:104860006081718182819381BCDF382E2B2D0B2CCE
:10487000000C330B3C872B87082F880F110B8B2DD7
:10488000A2DD6B017C0181E08B0D9DDD2B013C01E4
:104890008B85EB85FC8536970CF085E08F5F282FA4
:1048A00030E03E832D83C701B6010F94FB0470E016
:1048B00090E080E00E94F6FC4B015C0127E0222E94
:1048C0008B859C85289EF001299EF00D1124E00F18
:1048D000F11FEE0FFF1FEE0FFF1FEF58FB4FC080C1
:1048E000D180E280F380A5019401E981FA816081A1
:1048F0007181828193810F94B10369837A838B8361
:104900009C83C301B2010F94FB0470E090E080E04F
:104910000E94F6FCA50194010F94B1034B015C01C8
:104920002D813E81229EF001239EF00D1124E00F87
:10493000F11FEE0FFF1FEE0FFF1FEF58FB4FA701F8
:10494000960160817181828193810F94B1032981E5
:104950003A814B815C810E9457FDA50194010F941F
:104960008E04A70196010F94B2032B013C0106307F
:10497000110514F005E010E00F5F10E027E08B85D3
:104980009C85289FF001299FF00D1124E00FF11F55
:10499000EE0FFF1FEE0FFF1FEF58FB4FC080D180BF
:1049A000E280F3808D819E81289FF001299FF00D88
:1049B0001124E00FF11FEE0FFF1FEE0FFF1FEF5846
:1049C000FB4FA701960160817181828193810F94D1
:1049D000B10329813A814B815C810E9457FDA50179
:1049E00094010F948E04A70196010F94B20369837A
:1049F0007A838B839C8381E0830DB6DC6D837E8319
:104A00008F839887832DB0DC6B017C01AC019B0107
:104A1000E985FA8560817181828193810F94B10368
:104A20004B015C01A301920169817A818B819C8198
:104A30000F94B1039B01AC01C501B4010E9457FD65
:104A40004B015C01A70196016D817E818F81988564
:104A50000F94B1039B01AC01C501B4010F948E0406
:104A6000A30192010F94B2036B017C01AC019B0185
:104A70000F94B506882319F0C12CD12C7601C701FB
:104A8000B6012C960FB6F894DEBF0FBECDBFDF91F6
:104A9000CF911F910F91FF90EF90DF90CF90BF903B
:104AA000AF909F908F907F906F905F904F903F90CE
:104AB0002F9008954F925F926F927F928F929F9264
:104AC000AF92BF92CF92DF92EF92FF92CF93DF939C
:104AD00000D000D0CDB7DEB72091CD0B222309F452
:104AE0003EC09E838D83BC016C5F7F4F92DE4B0185
:104AF0005C01AD81BE8118964D905D906D907C906B
:104B00001B97AC019B01C301B2010F94B1036B0170
:104B10007C018091350590913605A0913705B091C3
:104B2000380589839A83AB83BC8320E030E0A901F8
:104B3000BC01CD010E94F2FC882349F020E030E066
:104B4000A901C701B6010E94F2FC1816ECF0AD8174
:104B5000BE811896CD92DD92ED92FC921B9726961F
:104B60000FB6F894DEBF0FBECDBFDF91CF91FF909F
:104B7000EF90DF90CF90BF90AF909F908F907F90FD
:104B80006F905F904F90089529813A814B815C81AD
:104B9000C301B2010F94D90587FFE1CF20916004D2
:104BA000309161044091620450916304C501B401E5
:104BB0000E9457FD9B01AC0160E070E080E89FE33C
:104BC0000F94B1039B01AC01C701B6010F948E0491
:104BD000ED81FE816087718782879387C0CFCF93F5
:104BE000DF93CDB7DEB72C970FB6F894DEBF0FBEBC
:104BF000CDBF19821A821B821C821D821E821F82D7
:104C0000188619861A861B861C86AE014F5F5F4F79
:104C1000BC0188E692E00E9460E42C960FB6F894FE
:104C2000DEBF0FBECDBFDF91CF9108952F923F928F
:104C30004F925F926F927F928F929F92AF92BF92AC
:104C4000CF92DF92EF92FF920F931F93CF93DF9358
:104C5000CDB7DEB7CB54D1090FB6F894DEBF0FBE87
:104C6000CDBF9AAF89AF62ED7BE08EEC9BE00E94F6
:104C7000701A882309F481C12091D60B3091D70B8B
:104C80004091D80B5091D90B2DA33EA34FA358A709
:104C9000409168025091690260916A0270916B02C2
:104CA0004DA75EA76FA778AB9A01AB016091CE0BC1
:104CB0007091CF0B8091D00B9091D10B0F94B103D9
:104CC0002B013C0160916C0270916D0280916E022B
:104CD00090916F0269AB7AAB8BAB9CAB9B01AC0143
:104CE0006091D20B7091D30B8091D40B9091D50B26
:104CF0000F94B10369A77AA78BA79CA78091700234
:104D000090917102A0917202B09173028DAB9EAB33
:104D1000AFABB8AF9C01AD016DA17EA18FA198A5ED
:104D20000F94B103362E272E4C012091740230913E
:104D3000750240917602509177022BAF3CAF4DAF98
:104D40005EAF6091DA0B7091DB0B8091DC0B909180
:104D5000DD0B0F94B10323966CAF7DAF8EAF9FAF89
:104D60002397A3019201C301B2010E9457FD6B0179
:104D70007C0129A53AA54BA55CA5CA01B9010E94F1
:104D800057FD9B01AC01C701B6010F94B20369A3A3
:104D90007AA38BA39CA30F946C062DEC3CEC4CE403
:104DA0005EE30E9457FD0F94E5056D8F7E8F8F8F18
:104DB00098A3AD8CBE8CA114B10409F4C9C0B5018F
:104DC00090E080E00E94F6FC9B01AC0160E070E0A6
:104DD00080E89FE30F948E046B017C01AC019B0182
:104DE000C301B2010E9457FD2B013C01A7019601AE
:104DF00069A57AA58BA59CA50E9457FD69A77AA7EE
:104E00008BA79CA7A7019601632D722DC4010E9458
:104E100057FD28966FAF289729967FAF29972A9636
:104E20008FAF2A972B969FAF2B97A70196012396BA
:104E30006CAD7DAD8EAD9FAD23970E9457FD23963F
:104E40006CAF7DAF8EAF9FAF2397C50101978501F2
:104E50005C01232D322DA401632D722DC4010E940B
:104E600057FD29A13AA14BA15CA10F94B2030F9465
:104E70006C06A70196010E9457FD698B7A8B8B8B7C
:104E80009C8B1D8A1E8A1F8A188E198E1A8E1B8E65
:104E90001C8E80E1E8E6F2E0DE01119601900D92B1
:104EA0008A95E1F78091CD0B882309F481C0C090E9
:104EB0003505D0903605E0903705F090380520E0B4
:104EC00030E0A901C701B6010E94F2FC882309F471
:104ED000D0C0A70196016DA17EA18FA198A50E94C7
:104EE000F2FC87FF65C020E030E0A9016DA17EA142
:104EF0008FA198A50E94F2FC18160CF04BC4A701D4
:104F000096016DA17EA18FA198A50F94D90587FF69
:104F10003AC420915C0430915D0440915E0450914C
:104F20005F046DA17EA18FA198A50E94F2FC811162
:104F30003CC480911C0290911D02A0911E02B09170
:104F40001F0227968CAF9DAFAEAFBFAF27979BC018
:104F500028963FAE289729962FAE29972A968FAE8E
:104F60002A972B969FAE2B97C12CD12C50E8E52E7B
:104F70005FE3F52E01E010E06CCF81E0C55BDF4F11
:104F80000FB6F894DEBF0FBECDBFDF91CF911F915A
:104F90000F91FF90EF90DF90CF90BF90AF909F90D8
:104FA0008F907F906F905F904F903F902F900895DB
:104FB000AE014F5E5F4F1A01A114B10409F450C055
:104FC000BE016F5E7F4F1B01A301920169817A814F
:104FD0008B819C810F94B20369837A838B839C833A
:104FE00029A53AA54BA55CA56D817E818F81988509
:104FF0000F94B2036D837E838F83988728962FAD9D
:10500000289729963FAD29972A964FAD2A972B9638
:105010005FAD2B9769857A858B859C850F94B2034C
:1050200069877A878B879C8723962CAD3DAD4EADE3
:105030005FAD23976D857E858F8598890F94B20328
:105040006D877E878F87988BA10169AD7AADCE0180
:1050500001960E9460E471E0A71AB10809F0B4CF8C
:10506000A10169AD7AAD8EEC9BE00E9460E480E026
:1050700085CF40E050E060E87FE327964CAF5DAF1E
:105080006EAF7FAF2797A30192016DA57EA58FA577
:1050900098A90F94B2036DA77EA78FA798AB6983D9
:1050A0007A838B839C8329A53AA54BA55CA569A926
:1050B0007AA98BA99CA90F94B20369AB7AAB8BAB8D
:1050C0009CAB6D837E838F83988728962FAD28971E
:1050D00029963FAD29972A964FAD2A972B965FAD1B
:1050E0002B976DA97EA98FA998AD0F94B2036987FC
:1050F0007A878B879C8723962CAD3DAD4EAD5FADF7
:1051000023976BAD7CAD8DAD9EAD0F94B2036D87D3
:105110007E878F87988BCE0141961C0120E030E07E
:1051200040E251E46DA57EA58FA598A90F94B10327
:1051300028EF3AE84FEA5CE30E9457FD0F94F6042B
:10514000D62E20E030E040E251E469A97AA98BA98B
:105150009CA90F94B10328EF3AE84FEA5CE30E9460
:1051600057FD0F94F6042D2D0D2C000C330B862FBC
:10517000062E000C990B37FD86C2273031050CF046
:1051800096C27901AFEFEA1AFA0ACD2CAD2CB12CF8
:1051900097FD3CC3873091050CF0A2C2FC0131960B
:1051A000D62E862E912CB6E0EB16F1041CF046E0CC
:1051B000E42EF12CE630F10514F0E6E0F0E0A90170
:1051C000440F551F440F551F440F551FBA01621B52
:1051D000730B7EA36DA3DB01A80FB91FAA0FBB1F22
:1051E000AA0FBB1FAF58BB4F2D913D914D915C91C4
:1051F0002D8F3E8F4F8F58A39701220F331F220F01
:10520000331F220F331F2E193F09D901A80FB91FD1
:10521000AA0FBB1FAA0FBB1FAF58BB4F4D915D918B
:105220006D917C9149A35AA36BA37CA3ADA1BEA1B0
:10523000AE0FBF1FAA0FBB1FAA0FBB1FAF58BB4F9C
:105240006D917D918D919C916DA37EA38FA398A765
:10525000E20FF31FEE0FFF1FEE0FFF1FEF58FB4F84
:1052600080819181A281B3818BAF9CAFADAFBEAF86
:105270002D8D3E8D4F8D58A1CA01B9010F94B506F1
:10528000811155C229A13AA14BA15CA1CA01B90162
:105290000F94B506811155C22DA13EA14FA158A56D
:1052A000CA01B9010F94B506811146C22BAD3CADC0
:1052B0004DAD5EADCA01B9010F94B506811132C280
:1052C00096E09C1508F4C7C1F501EE0FFF1FEE0F25
:1052D000FF1FE851F34F85919591A591B4918DAB46
:1052E0002C969FAF2C975D01A6E0AD1508F49EC1EA
:1052F000F401EE0FFF1FEE0FFF1FE453F34F8591F4
:105300009591A591B4916C017D012DA92C963FAD8D
:105310002C97A5016DA57EA58FA598A90F94B10323
:105320004B015C019601A70169A97AA98BA99CA9E7
:105330000F94B1036B017C012D8D3E8D4F8D58A1D3
:1053400069A17AA18BA19CA10F94B10328EF3AE83F
:105350004FEA5CE30E9457FD6DAB7EAB8FAB98AF1D
:105360002DA13EA14FA158A56BAD7CAD8DAD9EADDD
:105370000F94B10328EF3AE84FEA5CE30E9457FD2F
:105380006BAF7CAF8DAF9EAF2DA93EA94FA958AD95
:10539000C501B4010E9457FD2D8D3E8D4F8D58A142
:1053A0000F94B20369A37AA38BA39CA32BAD3CAD4E
:1053B0004DAD5EADC501B4010E9457FD2DA13EA1CA
:1053C0004FA158A50F94B20329A13AA14BA15CA10A
:1053D0000F94B10328EF3AE84FEA5CE30E9457FDCF
:1053E0006DA37EA38FA398A70150110909F4EDC006
:1053F00029853A854B855C852D8F3E8F4F8F58A32D
:10540000A70196016DA17EA18FA198A50E9457FDCD
:1054100029A13AA14BA15CA10F94B20327962CAD10
:105420003DAD4EAD5FAD27970E9457FD2D8D3E8D52
:105430004F8D58A10F94B20369877A878B879C8719
:10544000A10169AD7AADCE0101960E9460E4298187
:105450003A814B815C81C301B2010F94B2036DA705
:105460007EA78FA798AB69837A838B839C832D81DA
:105470003E814F81588569A57AA58BA59CA50F947F
:10548000B20369AB7AAB8BAB9CAB6D837E838F83AE
:10549000988728962FAD289729963FAD29972A9669
:1054A0004FAD2A972B965FAD2B976D8D7E8D8F8D8F
:1054B00098A10F94B2036D8F7E8F8F8F98A3698709
:1054C0007A878B879C8723962CAD3DAD4EAD5FAD23
:1054D00023976D857E858F8598890F94B2036D879C
:1054E0007E878F87988BA3019201C501B4010F9429
:1054F000B2034B015C0129A53AA54BA55CA5C701E8
:10550000B6010F94B2036B017C0120E030E0A901E9
:10551000C501B4010F94D90587FD00CE2BEA3AEA04
:105520004AE352E4C501B4010E94F2FC18160CF4DF
:10553000F5CD20E030E0A901C701B6010F94D905EF
:1055400087FDECCD2BEA3AEA4AE352E4C701B60103
:105550000E94F2FC18160CF4E1CDA30192016DA992
:105560007EA98FA998AD0E9457FD9B01AC0169A14E
:105570007AA18BA19CA10F94B20369A37AA38BA3F8
:105580009CA32DA93EA94FA958AD6BAD7CAD8DADA7
:105590009EAD0F94B10328EF3AE84FEA5CE30E9416
:1055A00057FDA30192010E9457FD9B01AC016DA123
:1055B0007EA18FA198A50F94B2036DA37EA38FA3A4
:1055C00098A70150110909F01BCF80E1EEECFBE038
:1055D000DE01119601900D928A95E1F72DA13EA171
:1055E0004FA158A5C701B6010E9457FD29A13AA1B4
:1055F0004BA15CA10F94B20327962CAD3DAD4EADEF
:105600005FAD27970E9457FD9B01AC0169857A85A4
:105610008B859C850F94B20369877A878B879C87DB
:10562000A10169AD7AADCE0101961FCDB401990CEF
:10563000880B990B0E94F8FC2BEA3AEA4AE352E401
:105640000E9457FD20E030E040E251E40F94B203A5
:105650006B017C015ACEB501BB0C880B990B0E94E3
:10566000F8FC2BEA3AEA4AE352E40E9457FD20E0B4
:1056700030E040E251E40F94B2036DAB2C967FAF63
:105680002C975C0131CE97FD24C0873091050CF03A
:105690005DC0FC013196D62E862E912CB12CA12C0A
:1056A000C12CEE24E394F12C30E020E083CD97FF71
:1056B00029C046E0C42E26E030E056E0E52EF12C6D
:1056C0005901912C812CD12C90E080E0E1E0F0E0B8
:1056D00076CDC12C30E020E0EE24E394F12CF0CF25
:1056E00076E0872E912CE6E0DE2E86E090E056E014
:1056F000E516F1040CF461CD86E090E046E0E42E7E
:10570000F12C5BCD873091058CF156E0852E912CE4
:1057100066E0D62E76E0A72EB12CE6E0CE2E26E06F
:1057200030E0EACF1BAE1CAE1DAE1EAEC9CD1D8E45
:105730001E8E1F8E18A2A6CD1DA21EA21FA218A6E5
:10574000B5CD19A21AA21BA21CA2A6CDF6E08F2EDF
:10575000912CA6E0DA2EB12CA12CC12C30E020E057
:1057600086E090E0EE24E394F12C27CDFC01319605
:10577000D62E862E912C26E0A22EB12C36E0C32EFA
:1057800026E030E014CD27961CAE1DAE1EAE1FAE37
:10579000279779CC60E070E080E89FE327966CAFB4
:1057A0007DAF8EAF9FAF27976ECC2DA13EA14FA1AD
:1057B00058A520935C0430935D0440935E0450939D
:1057C0005F04209160043091610440916204509123
:1057D00063046DA17EA18FA198A50E9457FD9B0136
:1057E000AC0160E070E080E89FE30F94B10327967E
:1057F0006CAF7DAF8EAF9FAF279760931C02709305
:105800001D0280931E0290931F023DCC46E0E416D9
:10581000F1040CF456CF912C812CD12CE1E0F0E076
:1058200090E080E0A6E0EA2EF12CC9CC0F931F9304
:105830008091CB0B813019F50E946BB900912D043A
:1058400010912E0420912F0430913004601B710BB5
:10585000820B930B28EE33E040E050E00F941C03E2
:105860006091290470912A0480912B0490912C045A
:10587000620F731F841F951F1F910F9108956091F0
:105880003104709132048091330490913404D6CF66
:105890008091CB0B813079F482E08093CB0B0E9416
:1058A0006BB9609331047093320480933304909306
:1058B000340481E0089580E00895682F880F770B05
:1058C000880B990B0C943FB5BC01990F880B990B71
:1058D0000C943FB563E00C9474EB8091FC039091C1
:1058E000FD03009731F04AE050E070E060E00C9476
:1058F0005DFB60E070E0CB010895CF93DF93CDB7FF
:10590000DEB760970FB6F894DEBF0FBECDBF80E064
:1059100090E0A6E1B3E48D839E83AF83B8878D8743
:105920009E87AF87B88B0E94802069837A838B83A0
:105930009C830E94572069877A878B879C8780E1A8
:10594000FE013196A8E4B5E001900D928A95E1F749
:1059500060960FB6F894DEBF0FBECDBFDF91CF913A
:1059600008958091FC039091FD03009731F04AE087
:1059700050E070E060E00C9431FA60E070E0CB0140
:105980000895EFDF97FD0AC0ECDF6F3F71058105D9
:10599000910509F02CF4E5DF862F089580E0089545
:1059A0008FEF08958091FC039091FD03892B39F0CE
:1059B000E8DF91E0811101C090E0892F089591E026
:1059C000FCCFCF93DF93C82FD62F0E94F91F8823D7
:1059D00019F0DF91CF91E6CF8C2F0E94AB1F811180
:1059E00001C08D2FDF91CF910895CF93C62F0E94D4
:1059F000F91F882311F0CF91C4CF8C2FCF91089538
:105A0000B0DFCB010895CF93DF93EB010E94F91F24
:105A1000882319F0DF91CF91F3CFCE01DF91CF91A1
:105A200008950F931F93CF938091FC039091FD03F2
:105A3000009709F1FC018F01C1912C2F2F7DA1F05E
:105A4000C53431F0C53621F0C83511F0C83799F7A3
:105A5000F801108270E060E00E94DBF8F801C0837A
:105A6000CF911F910F91089570E060E0CF911F9149
:105A70000F910C94DBF860E070E0CB01F1CFCF9296
:105A8000DF92EF92FF926A017B010E94F91F882347
:105A900029F0FF90EF90DF90CF90C3CFC701B60100
:105AA000FF90EF90DF90CF9008954F925F926F92AA
:105AB0007F92AF92BF92CF92DF92EF92FF920F93BD
:105AC0001F93CF93DF938CE5A82E83E0B82E08E6D2
:105AD00012E0CEECDBE093E6C92E92E1D92EF12C58
