:100000000C94B8180C94F8180C94F8180C94F81870
:100010000C94F8180C94F8180C94F8180C94F81820
:100020000C94F8180C94F8180C94F8180C94F81810
:100030000C94F8180C94F8180C94F8180C94F81800
:100040000C94F8180C943DCF0C94F8180C94F818F4
:100050000C94F8180C9494BB0C94F8180C9415BAE2
:100060000C94F8180C9438560C9402560C94F8180A
:100070000C94F8180C94F8180C94F8180C94F818C0
:100080000C94DE3E0C94F8180C94F8180C94F818A4
:100090000C94F8180C94F8180C94F8180C94F818A0
:1000A0000C94F8180C94F8180C94B03E0C94F818B2
:1000B0000C94F8180C94F8180C94F8180C94F81880
:1000C0000C94F8180C94F8180C94F8180C94F81870
:1000D0000C94F8180C94F8180C94F8180C94F81860
:1000E0000C94F818084AD73B3BCE016E84BCBFFD88
:1000F000C12F3D6C74319ABD56833DDA3D00C77FF8
:1001000011BED9E4BB4C3E916BAAAABE0000008090
:100110003F05A84CCDB2D44EB93836A9020C50B91F
:10012000918688083CA6AAAA2ABE000000803F0744
:10013000634236B79BD8A71A39685618AEBAAB5582
:100140008C1D3CB7CC5763BD6DEDFD753EF6177247
:1001500031BF000000803F08000000BE9224491219
:100160003EABAAAA2ABECDCCCC4C3E00000080BE3D
:10017000ABAAAAAA3E00000000BF000000803F001A
:1001800000000000084178D3BB4387D1133D190E0E
:100190003CC3BD4282AD2B3E68EC8276BED98FE176
:1001A000A93E4C80EFFFBE01C4FF7F3F000000006E
:1001B00000004E414E494E495459494E46CDCCCC93
:1001C0003D0AD7233C17B7D13877CC2B329595E62B
:1001D000241FB14F0A000020410000C84200401C0B
:1001E0004620BCBE4CCA1B0E5AAEC59D7400407A58
:1001F00010F35A00A0724E18090010A5D4E80000B0
:10020000E87648170000E40B54020000CA9A3B004D
:100210000000E1F505000080969800000040420FC4
:10022000000000A08601000000102700000000E888
:1002300003000000006400000000000A000000004D
:10024000000100000000002C76D888DC674F0823EE
:10025000DFC1DFAE59E1B1B796E5E3E453C63AE654
:1002600051997696E8E6C28426EB898C9B62ED4034
:100270007C6FFCEFBC9C9F40F2BAA56FA5F4900583
:100280005A2AF75C936B6CF9676DC11BFCE0E40DB7
:1002900047FEF520E6B500D0ED902E0300943577AB
:1002A000050080841E080000204E0A000000C80CD3
:1002B000333333330F986E12831141EF8D2114893C
:1002C0003BE65516CFFEE6DB18D1844B381BF77C96
:1002D0001D901DA4BBE424203284725E228100C9DB
:1002E000F124ECA1E53D27E902363726033C3D38F1
:1002F0000E2E303E1224221E1A1C180A074309082B
:1003000044000170012C0190012701B0012201C0BD
:10031000011D01F00118011002130130020E0160ED
:1003200002090190020401C002FF000003FA00402C
:1003300003F5008003F000D003EB002004E600701A
:1003400004E100E004DC004005D700C005D2004015
:1003500006CD00D006C8008007C3003008BE00F0FC
:1003600008B900C009B400B00AAF00B00BAA00D0B1
:100370000CA500000EA000500F9B00C0109600506E
:1003800012910000148C00C0158700B0178200B0D5
:10039000197D00D01B7800001E730040206E009075
:1003A000226900F024640040275F0090295A00E091
:1003B0002B5500102E500020304B0010324600E02C
:1003C00033410090353C001037370070383200A0C0
:1003D000392D00B03A2800A03B2300603C1E0010DD
:1003E0003D1900903D1400103E0F00703E0A00C001
:1003F0003E0500003F0000403FFBFF803FF6FFC08E
:100400003FF1FF726F746174696F6E206D61747279
:1004100069783A0A0070012C0190012701B001228D
:1004200001C0011D01F00118011002130130020E7C
:10043000016002090190020401C002FF000003FAFA
:10044000004003F5008003F000D003EB002004E639
:10045000007004E100E004DC004005D700C005D2D4
:10046000004006CD00D006C8008007C3003008BE9B
:1004700000F008B900C009B400B00AAF00B00BAA80
:1004800000D00CA500000EA000500F9B00C01096DD
:10049000005012910000148C00C0158700B0178224
:1004A00000B0197D00D01B7800001E730040206E44
:1004B0000090226900F024640040275F0090295AD0
:1004C00000E02B5500102E500020304B001032461B
:1004D00000E033410090353C00103737007038326F
:1004E00000A0392D00B03A2800A03B2300603C1E3C
:1004F00000103D1900903D1400103E0F00703E0AA0
:1005000000C03E0500003F0000403FFBFF803FF67B
:10051000FFC03FF1FF5A5F6D6F76655F636F6D706F
:100520000A003F28532920616E6420285729206D36
:100530006179206E6F7420626520636F6D62696EF1
:1005400065642E0A00616C736F20656E61626C6574
:1005500064290A00206E6F742064697361626C659F
:10056000642E205368617265642077697468002E78
:100570000A00417869732000206D696E3A00206D91
:1005800061783A00416363656C65726174696F6E8E
:10059000206C696D697465642E0A004641535400ED
:1005A000534C4F57000600000701000500070100EB
:1005B000070600000007000500434F4D4D554E490A
:1005C000434154494F4E0044525952554E004552F2
:1005D000524F525300494E464F004543484F004545
:1005E00072726F722077726974696E6720746F20FF
:1005F000454550524F4D210A0053544F50504544E9
:100600002E20005072696E7465722073746F707062
:1006100065642064756520746F206572726F7273F3
:100620002E2046697820746865206572726F72208A
:10063000616E6420757365204D39393920746F20DF
:10064000726573746172742E202854656D706572C2
:1006500061747572652069732072657365742E20EC
:1006600053657420697420616674657220726573C5
:1006700074617274696E67290A004E6F2043686561
:10068000636B73756D2077697468206C696E652083
:100690006E756D6265722C204C617374204C696EAE
:1006A000653A2000636865636B73756D206D6973CF
:1006B0006D617463682C204C617374204C696E65A5
:1006C0003A20004C696E65204E756D626572206936
:1006D00073206E6F74204C617374204C696E6520BA
:1006E0004E756D6265722B312C204C617374204CF9
:1006F000696E653A20004D31313000536572696191
:100700006C20737461747573206D69736D617463AB
:10071000680A00746F6F206D75636820696E61638D
:10072000746976652074696D65202D206375727219
:10073000656E7420636F6D6D616E643A20002121D7
:10074000204B494C4C2063617573656420627920AD
:1007500000627573793A2070617573656420666F05
:100760007220696E7075740A00627573793A207030
:10077000617573656420666F7220757365720A0017
:10078000627573793A2070726F63657373696E670F
:100790000A006563686F3A004572726F723A004FE3
:1007A0004646004F4E00204A0020204D3432312072
:1007B0004900202047323920493939390A00556E1D
:1007C000696669656420426564204C6576656C697C
:1007D0006E67006163746976650A00696E000020C7
:1007E00053797374656D2076312E303120002020CE
:1007F000207C0A004E414E0020202E202020002088
:100800007C0020666F7220004C43443A0A00435338
:10081000563A0A003A0A0A000A42656420546F7088
:100820006F677261706879205265706F72740050E2
:10083000726F62696E67204661696C65640A005078
:10084000726F62696E67204661696C656400205A48
:100850003A200020593A200042656420583A20008E
:100860004732384C3000446F6E652E0A003F496EA7
:1008700076616C69642073746F7261676520736C54
:100880006F742E0A3F557365203020746F20003F2F
:10089000454550524F4D2073746F72616765206EED
:1008A0006F7420617661696C61626C652E0A004428
:1008B0006F6E652E0A003F496E76616C6964207325
:1008C000746F7261676520736C6F742E0A3F557385
:1008D00065203020746F20003F454550524F4D2019
:1008E00073746F72616765206E6F742061766169E1
:1008F0006C61626C652E0A003F5034206973206F72
:100900006E6C7920617661696C61626C65207768D4
:10091000656E20616E204C434420697320707265BF
:1009200073656E742E0A003F5032206973206F6E1B
:100930006C7920617661696C61626C6520776865AD
:100940006E20616E204C4344206973207072657381
:10095000656E742E0A00292E0A0A0050726F6269B1
:100960006E672061726F756E642028004D65736834
:1009700020696E76616C6964617465642E205072C2
:100980006F62696E67206D6573682E0A004D65732E
:1009900068207A65726F65642E0A00446566617529
:1009A0006C742073746F7261676520736C6F742050
:1009B000302073656C65637465642E0A0041707045
:1009C0006C79696E672074657374207061747465E6
:1009D000726E2E0A0A003F496E76616C69642028A7
:1009E00051292074657374207061747465726E2E61
:1009F00020283020746F2032290A0A0020696E7680
:100A0000616C6964617465642E0A0A004C6F6361ED
:100A100074696F6E7300456E74697265204D6573FD
:100A200068005374616E6461726420446576696124
:100A300074696F6E3A20004D65616E204D65736874
:100A4000204865696768743A200023206F66207328
:100A5000616D706C65733A20002E0A002F00507291
:100A60006F62696E67206D65736820706F696E7460
:100A70002000496E76616C6964206D617020747924
:100A800070652E0A0A003F28462961646520686562
:100A90006967687420666F7220426564204C6576D1
:100AA000656C20436F7272656374696F6E206E6F40
:100AB0007420706C61757369626C652E0A0A003F60
:100AC00043616E2774206163746976617465206187
:100AD0006E64206465616374697661746520617415
:100AE000207468652073616D652074696D652E0AD8
:100AF0000A00426F7468205820262059206C6F63CA
:100B00006174696F6E73206D7573742062652073F4
:100B100070656369666965642E0A0A003F496E76EE
:100B2000616C696420677269642073697A65202842
:100B30004A29207370656369666965642028322DCF
:100B400039292E0A0A003F285029686173652076EA
:100B5000616C756520696E76616C69642028302D42
:100B600036292E0A0A003F2856296572626F73657E
:100B7000206C6576656C20696D706C617573696257
:100B80006C652028302D34292E0A0A003F2852296E
:100B9000657065746974696F6E20636F756E74201B
:100BA000696E76616C69642028312B292E0A0A004F
:100BB000B405AF05AA05A5055D0A0062656420704D
:100BC0006C616E65206E6F726D616C203D205B0004
:100BD000436F756C64206E6F7420636F6D706C650D
:100BE0007465204C53462100436F727265637465CF
:100BF000645F5A3D000A0A002F0054696C74696EE4
:100C000067206D65736820706F696E7420003F45C2
:100C100072726F722070726F62696E6720706F6996
:100C20006E742E2041626F7274696E67206F7065FA
:100C3000726174696F6E2E0A00436F72726563741D
:100C400065645F5A3D0054696C74696E67206D6518
:100C500073682028332F33290A00436F727265634B
:100C60007465645F5A3D0054696C74696E67206DE9
:100C70006573682028322F33290A00436F7272652A
:100C8000637465645F5A3D0054696C74696E6720D3
:100C90006D6573682028312F33290A00646F6E65F3
:100CA0000A00496E73756666696369656E742064CF
:100CB0006174610A004578747261706F6C61746967
:100CC0006E67206D6573682E2E2E0000002041ABEC
:100CD000AA6242ABAACE4200001643ABAA444356D6
:100CE0005573430000914300002041ABAA6242AB20
:100CF000AACE4200001643ABAA44435655734300A4
:100D00000091432F2F616374696F6E3A006E6F74A8
:100D1000696669636174696F6E2000656E64006264
:100D20007574746F6E00486F74656E6420746F6FB5
:100D300020636F6C640A00706175736564005061B4
:100D40007573650057616974696E6720666F7220FC
:100D50006865617475702E0A004C656176696E670E
:100D600020473236003F53706563696669656420C9
:100D7000582C5920636F6F7264696E617465206FBF
:100D80007574206F6620626F756E64732E0A003F63
:100D900028522965706561742076616C7565206ED6
:100DA0006F7420706C61757369626C653B206D7542
:100DB0007374206265206174206C656173742031E6
:100DC0002E0A003F2852296570656174206D757385
:100DD0007420626520737065636966696564207755
:100DE00068656E206E6F74207573696E6720616E22
:100DF000204C43442E0A003F537065636966696561
:100E000064206E6F7A7A6C652074656D70657261AE
:100E100074757265206E6F7420706C617573696291
:100E20006C652E0A003F53706563696669656420CE
:100E300066696C616D656E742073697A65206E6F8A
:100E40007420706C61757369626C652E0A003F5383
:100E50007065636966696564207072696D65206C90
:100E6000656E677468206E6F7420706C617573694D
:100E7000626C652E0A003F5072696D65206C656E6C
:100E8000677468206D757374206265207370656384
:100E90006966696564207768656E206E6F74207579
:100EA00073696E6720616E204C43442E0A003F53E5
:100EB0007065636966696564206E6F7A7A6C652017
:100EC00073697A65206E6F7420706C6175736962E6
:100ED0006C652E0A003F52657472616374696F6EAF
:100EE000204D756C7469706C696572206D757374D2
:100EF000206265207370656369666965642E0A0007
:100F00003F537065636966696564205265747261F8
:100F10006374696F6E204D756C7469706C6965726D
:100F2000206E6F7420706C61757369626C652E0A37
:100F3000003F537065636966696564206C6179651B
:100F40007220686569676874206E6F7420706C61C8
:100F5000757369626C652E0A0043292E0A003F539F
:100F60007065636966696564206265642074656D97
:100F70007065726174757265206E6F7420706C613B
:100F8000757369626C65202834302D004732362035
:100F90007374617274696E672E2E2E0A004F464676
:100FA0000A004661646520486569676874200042EC
:100FB0006564204C6576656C696E672000466169E2
:100FC0006C656420746F20656E61626C652042659B
:100FD00064204C6576656C696E670A00496E7661BF
:100FE0006C6964206D6573682E0A0076616C6964B3
:100FF0000A53746F7261676520736C6F743A2000D6
:10100000696E004D65736820697320003F557365F4
:10101000203020746F20003F496E76616C69642037
:1010200073746F7261676520736C6F742E0A003F72
:10103000454550524F4D2073746F72616765206E45
:101040006F7420617661696C61626C652E0A004183
:101050006363757261637920446563726561736966
:101060006E67210044656372656173696E67204134
:101070006363757261637920446574656374656444
:101080002E0A004732385A004163637572616379F2
:101090003A2000206F662000446964200047333402
:1010A0002061626F727465642E0A00416363757219
:1010B0006163792041636869657665640054617293
:1010C0006765742061636375726163792061636829
:1010D00069657665642E0A000A5A322D5A313D0040
:1010E00050726F62696E67204661696C656400507A
:1010F000726F62696E67206661696C65640A000AD6
:1011000047333420497465726174696F6E3A200008
:101110003F2841296D706C696669636174696F6EFF
:10112000206F7574206F6620626F756E647320285F
:10113000302E352D322E30292E0A003F28542961B9
:1011400072676574206163637572616379206F757E
:1011500074206F6620626F756E64732028302E30A5
:10116000312D312E30292E0A003F2849297465720D
:101170006174696F6E206F7574206F6620626F7581
:101180006E64732028312D3330292E0A0020204D23
:101190003432322053005A204175746F2D416C69EE
:1011A000676E0046696E6973686564210A003A20BB
:1011B0007A3A2000206F662000476F696E672074BE
:1011C0006F3A20580043570A00206469723A0020A1
:1011D000616E676C653A0053746172742072616469
:1011E0006975733A00506F736974696F6E696E67E1
:1011F000207468652070726F62652E2E2E0A003F83
:101200004C656773206F66206D6F76656D656E74D3
:1012100020696D706C61757369626C652028302D72
:101220003135292E0A003F2028582C5929206F7566
:1012300074206F6620626F756E64732E0A005072A0
:101240006F6265206F7574206F6620626F756E64C3
:1012500073003F53616D706C652073697A65206E11
:101260006F7420706C61757369626C652028342D11
:101270003530292E0A004D3438205A2D50726F62B5
:1012800065205265706561746162696C697479206A
:10129000546573740A003F2856296572626F73653E
:1012A000206C6576656C20696D706C617573696220
:1012B0006C652028302D34292E0A005374616E6429
:1012C00061726420446576696174696F6E3A2000CA
:1012D0002052616E67653A2000204D61783A200007
:1012E000204D696E3A2000205369676D613A2000F5
:1012F0004D65616E3A200020440020204D32303090
:10130000205300202844697361626C6564293A00A7
:1013100046696C616D656E742073657474696E677F
:10132000730020204D3230312058004D617820412B
:101330006363656C65726174696F6E2028756E6990
:1013400074732F7332290020204D3230332058001F
:101350004D617820666565647261746573202875D7
:101360006E6974732F73290020520020204D323093
:1013700034205000416363656C65726174696F6EFF
:101380002028756E6974732F7332292028503C70A1
:1013900072696E742D616363656C3E20523C7265A8
:1013A00074726163742D616363656C3E20543C7498
:1013B000726176656C2D616363656C3E29005741EF
:1013C000524E494E4721204C6F77205A204A657271
:1013D0006B206D6179206C65616420746F20756E7F
:1013E00077616E746564207061757365732E0A0091
:1013F00020540020530020204D323035204200413F
:101400006476616E6365642028423C6D696E5F732B
:1014100065676D656E745F74696D655F75733E2099
:10142000533C6D696E5F66656564726174653E20EC
:10143000543C6D696E5F74726176656C5F6665655C
:1014400064726174653E20583C6D61785F6A6572B4
:101450006B3E20593C6D61785F6A65726B3E205A25
:101460003C6D61785F6A65726B3E20453C6D6178CA
:101470005F6A65726B3E29002044002049002020ED
:101480004D333031205000486F74656E64205049F0
:10149000440020440020490020204D3330342050A7
:1014A0000042656420504944003F28422961756428
:1014B000207261746520696D706C61757369626C0E
:1014C000652E0A0020626175642072617465207364
:1014D000657420746F20002053657269616C200070
:1014E00020580020204D61783A2000200020204D17
:1014F000696E3A2000203B200020204D32313120FF
:101500005300536F667420656E6473746F7073005C
:1015100020440020204D35393320592046002044F6
:101520000020204D3539332058204600496E707513
:10153000742053686170696E670047323800203B41
:101540000020550020204D363033204C0046696C79
:10155000616D656E74206C6F61642F756E6C6F6168
:1015600064003B200020496E76616C6964206578D8
:10157000747275646572200047322F4733206261B0
:101580006420706172616D65746572730A00536CDA
:101590006565702E2E2E005A2050726F62652050A5
:1015A000617374204265640A005A2050726F62654C
:1015B00020506173742042656400205A3A20002054
:1015C000593A200042656420583A20004D657368FE
:1015D00020706F696E74206F7574206F6620726161
:1015E0006E67650A0070726F6D70745F0062656788
:1015F000696E004D302053746F70004D312053746C
:101600006F70004E6F204D6F76652E002569730058
:1016100025696D20256973002569682025696D207D
:1016200025697300256964202569682025696D2076
:10163000256973002569792025696420256968205A
:1016400025696D20256973005072696E7420746974
:101650006D653A20006D3B002054696D65206C6516
:1016600066743A2000253B002050726F67726573E4
:10167000733A2000204D3733006F6B006F666600B1
:10168000DA05D505CE05C705B90544454255473AA3
:10169000004D313133205300417274696C6C6572B6
:1016A00079205369646577696E64657220583120CA
:1016B0004F46462E002F2F00250A0046523A0020A2
:1016C000466C6F773A20003A200020536572766F9F
:1016D0002000206F7574206F662072616E67650A46
:1016E00000536572766F200050726F6265204F66FE
:1016F00066736574205A0050726F6265204F66668B
:10170000736574205A0064697300656E0043290A8A
:101710000061626C656420286D696E2074656D706F
:101720002000436F6C642065787472756465732063
:101730006172652000424C546F75636820485320E5
:101740006D6F646520004D65736820706F696E74FD
:10175000206F7574206F662072616E67650A004D98
:1017600034323120696E636F727265637420706108
:1017700072616D657465722075736167650A004FEB
:10178000666673657473204170706C69656400549B
:101790006F6F206661722066726F6D20726566657C
:1017A00072656E636520706F696E740A00454550FE
:1017B000524F4D204F4B0A00206F72203020746F23
:1017C0002064697361626C650A003F4672657175D9
:1017D000656E637920284629206D757374206265D3
:1017E0002067726561746572207468616E20003FC5
:1017F0005A657461202844292076616C7565206FD4
:101800007574206F662072616E67652028302D31F7
:10181000290A00290A0020746F20003F5A206F75A2
:1018200074206F662072616E6765202800290A00A7
:1018300020746F20003F59206F7574206F662072EE
:10184000616E676520282D00290A0020746F200032
:101850003F58206F7574206F662072616E67652037
:10186000282D002E0A002028302D31302900207626
:10187000616C7565206F7574206F662072616E678C
:101880006500416476616E6365204B3D003F2859D9
:1018900029206F7574206F6620626F756E64732ED9
:1018A0000A003F285829206F7574206F6620626FE8
:1018B000756E64732E0A0020696E64657820696E07
:1018C00076616C69642028312E2E32292E0A003F61
:1018D0002853292050726F62652D706F7369746987
:1018E0006F6E003F285329206973207265717569F6
:1018F0007265642E0A006F6B0020204D3230362056
:101900005800486F6D65206F6666736574004469A2
:1019100066663A2020200046726F6D5374703A005C
:10192000537465707065723A00556E4C6576656CDF
:101930003A004C6576656C65643A005261773A20EE
:10194000202020000A4C6F676963616C3A00436F86
:10195000756E7420453A004361703A007D7D7D0AC2
:10196000002C7A3A002C793A007D2C6D61783A7B14
:10197000783A002C7A3A002C793A007D7D2C776FEA
:10198000726B3A7B6D696E3A7B783A002C7A3A003A
:101990002C793A007D2C6D61783A7B783A002C7A6C
:1019A0003A002C793A00617265613A7B66756C6C1D
:1019B0003A7B6D696E3A7B783A00434F4E46494711
:1019C0005F4558504F5254004D4541545041434B90
:1019D00000434F4F4C45525F54454D504552415482
:1019E000555245004348414D4245525F54454D5084
:1019F0004552415455524500424142595354455075
:101A000050494E470041524353004D4F54494F4EA9
:101A10005F4D4F44455300544845524D414C5F5033
:101A2000524F54454354494F4E00455854454E4437
:101A300045445F4D323000435553544F4D5F464946
:101A4000524D574152455F55504C4F4144004C4612
:101A50004E5F5752495445004C4F4E475F46494CE4
:101A6000454E414D45004155544F5245504F5254FB
:101A70005F53445F5354415455530053445F57528E
:101A80004954450052455045415400534443415246
:101A9000440050524F4D50545F535550504F525484
:101AA00000484F53545F414354494F4E5F434F4D9D
:101AB0004D414E445300454D455247454E43595FB5
:101AC00050415253455200434153455F4C494748AA
:101AD000545F4252494748544E45535300544F4770
:101AE000474C455F4C494748545300534F46545761
:101AF0004152455F504F574552004255494C445F53
:101B000050455243454E54004C4556454C494E476E
:101B10005F44415441005A5F50524F424500525574
:101B20004E4F5554004155544F4C4556454C00506E
:101B300052494E545F4A4F420050524F475245530C
:101B400053004155544F5245504F52545F54454DE8
:101B500050004155544F5245504F52545F504F53CF
:101B600000564F4C554D455452494300454550523F
:101B70004F4D0042494E4152595F46494C455F54D2
:101B800052414E534645520053455249414C5F58CD
:101B90004F4E5F584F4646004649524D57415245B9
:101BA0005F4E414D453A4D61726C696E20322E3167
:101BB0002E32202D20444947412D54656368204131
:101BC000535758312076312E3020284D61792031FD
:101BD0003420323032332031333A30303A34312904
:101BE00020534F555243455F434F44455F55524C38
:101BF0003A6769746875622E636F6D2F4D61726C00
:101C0000696E4669726D776172652F4D61726C699C
:101C10006E2050524F544F434F4C5F5645525349DC
:101C20004F4E3A312E30204D414348494E455F5486
:101C30005950453A417274696C6C657279205369E8
:101C4000646577696E646572205831204558545236
:101C5000554445525F434F554E543A3120555549EE
:101C6000443A63656465326132662D343161322DE8
:101C7000343734382D396231322D6335356336329D
:101C800066333637666600203B0020204D383531FC
:101C90002058005A2D50726F6265204F666673653A
:101CA000740042656420436F6F6C696E672E2E2E40
:101CB000004265642048656174696E672E2E2E00AF
:101CC000206661696C6564212042616420686561F9
:101CD0007465722069640A00504944204175746F2C
:101CE00074756E650023646566696E6520444546BB
:101CF00041554C545F0000626564004B6420004B0A
:101D00006920004B7020005049442074756E696E44
:101D10006720646F6E65002066696E69736865642C
:101D2000212050757420746865206C617374204B99
:101D3000702C204B6920616E64204B6420636F6EB1
:101D40007374616E74732066726F6D2062656C6F60
:101D50007720696E746F20436F6E66696775726174
:101D600074696F6E2E680A00504944204175746F83
:101D700074756E6500206661696C65642120746904
:101D80006D656F75740A00504944204175746F7415
:101D9000756E65004175746F74756E652066616956
:101DA0006C6564212054696D656F75742E00206622
:101DB00061696C6564212054656D7065726174752C
:101DC000726520746F6F20686967680A0050494423
:101DD000204175746F74756E6500204B643A200065
:101DE000204B693A2000204B703A200020436C6160
:101DF0007373696320504944200A00204E6F206F9E
:101E000076657273686F6F740A002054753A20000B
:101E1000204B753A2000206D61783A2000206D69D2
:101E20006E3A200020643A200020626961733A20F3
:101E30000048656174696E672E2E2E0020737461F0
:101E400072740A00504944204175746F74756E6550
:101E5000004175746F74756E65206661696C6564A8
:101E6000212054656D706572617475726520746FA0
:101E70006F20686967682E00206661696C6564215F
:101E80002054656D706572617475726520746F6F32
:101E900020686967680A00504944204175746F746E
:101EA000756E6500504944204175746F74756E6598
:101EB00000486F6D696E67204661696C6564006FEC
:101EC00070656E00545249474745524544003A20D8
:101ED000007A5F6D696E00795F6D696E00785F6D85
:101EE000696E005265706F7274696E6720656E640A
:101EF00073746F70207374617475730A0020746F4B
:101F00006F206C6F6E6720657874727573696F6E81
:101F10002070726576656E7465640A0020636F6C6C
:101F20006420657874727573696F6E20707265765F
:101F3000656E7465640A006E6F74696669636174C6
:101F4000696F6E2000486F6D6520257320466972A9
:101F5000737400000040C0000040C0000000005743
:101F600061726E696E673A20486F6D696E672042D4
:101F7000756D702044697669736F72203C20310A58
:101F80000002020400809743008097430000C8438A
:101F90000000A0400000A0400000004053544F50FB
:101FA0005045442E20005072696E7465722073741F
:101FB0006F707065642064756520746F206572723F
:101FC0006F72732E2046697820746865206572727E
:101FD0006F7220616E6420757365204D3939392028
:101FE000746F20726573746172742E202854656D4D
:101FF00070657261747572652069732072657365AE
:10200000742E205365742069742061667465722093
:1020100072657374617274696E67290A0020657253
:10202000726F72202D2072657374617274207769EB
:102030007468204D3939390A00424C546F75636811
:102040000021212053544F502063616C6C65642043
:1020500062656361757365206F66200000009643BA
:10206000000096430000C843000040C0000040C08C
:102070000000000053657474696E67732053746FB9
:1020800072656400290A002062797465733B2063DD
:102090007263200053657474696E67732053746FA4
:1020A000726564202800454550524F4D20496E69A5
:1020B0007469616C697A65640A004D6573682073A0
:1020C0006176656420696E20736C6F7420003F55E3
:1020D0006E61626C6520746F2073617665206D653A
:1020E000736820646174612E0A0020736C6F743D04
:1020F00000206D65736865735F656E643D004532F1
:10210000454E443D00206D65736820736C6F747399
:1021100020617661696C61626C652E0A003F496ED0
:1021200076616C696420736C6F742E0A004D657360
:1021300068206C6F616465642066726F6D20736CDB
:102140006F7420003F556E61626C6520746F206C67
:102150006F6164206D65736820646174612E0A008C
:1021600048617264636F6465642044656661756C80
:10217000742053657474696E6773204C6F61646575
:10218000640020583A0020286D6D2900203B204C27
:102190006576656C696E67200020204D34323020F2
:1021A0005300556E696669656420426564204C651C
:1021B00076656C696E670020204D393030204B0009
:1021C0004C696E65617220416476616E63650020C2
:1021D0006D65736865732E0A0A00454550524F4D70
:1021E0002063616E20686F6C6420004163746976BF
:1021F00065204D65736820536C6F74200020204D5E
:102200003134392043203B20556E69747320696E48
:102210002043656C736975730A0054656D7065724F
:10222000617475726520556E6974730020204732A1
:1022300031203B004C696E65617220556E69747384
:10224000003F4D65736820746F6F20626967206678
:102250006F7220454550524F4D2E0A004545505251
:102260004F4D206461746173697A65206572726F85
:10227000722E0A0055424C2072657365740A002064
:102280006C6F616465642066726F6D2073746F7229
:102290006167652E0A004D657368200053746F7284
:1022A00065642073657474696E67732072657472F7
:1022B000696576656400290A002062797465733B5C
:1022C0002063726320002073746F726564207365ED
:1022D0007474696E6773207265747269657665647B
:1022E000202800454550524F4D204352432045720F
:1022F000726F7200202863616C63756C6174656431
:1023000029210A0020213D2000454550524F4D20F3
:10231000435243206D69736D61746368202D2028DA
:1023200073746F7265642920002053697A653A20BE
:1023300000496E6465783A20000000484300004878
:10234000430000A04100002042F43DA042F43DA023
:102350004296E3C7430080DE43D0070000D0070069
:10236000006400000010270000454550524F4D20EA
:1023700056657273696F6E204572726F7200204DE0
:1023800061726C696E3D563837290A0045455052D6
:102390004F4D2076657273696F6E206D69736D6144
:1023A0007463682028454550524F4D3D0024F40485
:1023B000D9201BC40C5C0E9804C4095F0265077128
:1023C00001F405F900FB04B30048048700C1036968
:1023D000005803550003034500BE023A0084023151
:1023E0000053022A002902250004022000E4011CF7
:1023F00000C8011900AF01170098011400840113EF
:1024000000710110006101100051010E0043010D27
:102410000036010B002B010B0020010B00150109F8
:10242000000C01090003010800FB000800F300088C
:1024300000EB000700E4000600DE000600D80006FE
:1024400000D2000600CC000500C7000500C2000550
:1024500000BD000400B9000400B5000400B1000490
:1024600000AD000400A9000400A5000300A20003C1
:10247000009F0004009B00030098000300950002E9
:102480000093000300900003008D0002008B000306
:102490000088000200860002008400030081000220
:1024A000007F0002007D0002007B00020079000234
:1024B0000077000100760002007400020072000143
:1024C00000710002006F0002006D0001006C00024C
:1024D000006A000100690002006700010066000157
:1024E000006500010064000200620001006100015B
:1024F00000600001005F0002005D0001005C00015F
:10250000005B0001005A0001005900010058000161
:102510000057000100560001005500010054000161
:10252000005300000053000100520001005100015F
:1025300000500001004F0001004E0000004E00015D
:10254000004D0001004C0001004B0000004B000159
:10255000004A000100490001004800000048000155
:102560000047000100460000004600010045000051
:102570000045000100440001004300000043000149
:102580000042000000420001004100000041000143
:1025900000400001003F0000003F0001003E00003D
:1025A000003E0001003D0000003D0001003C000035
:1025B000003C0000003C0001003B0000003B00012B
:1025C000003A0000003A0001003900000039000123
:1025D000003800000038000000380001003700001B
:1025E0000037000100360000003600000036000110
:1025F0000035000000350000003500010034000007
:1026000000340000003400010033000000330000FB
:1026100000330001003200000032000000320001EF
:1026200000310000003100000031000100300000E6
:102630000030000000300001002F0000002F0000DB
:10264000002F0000002F0001002E0000002E0000CF
:10265000002E0001002D0000002D0000002D0000C4
:10266000002D0001002C0000002C0000002C0000B8
:10267000002C0001002B0000002B0000002B0000AC
:10268000002B0001002A0000002A0000002A0000A0
:10269000002A000100290000002900000029000094
:1026A0000029000000290001002800000028000087
:1026B000002800000028000000280001002700007A
:1026C000002700000027000000270000002700016D
:1026D0000026000000260000002600000026000062
:1026E0000026000100250000002500000025000054
:1026F0000025000000250000002500010024000046
:102700000024000000240000002400000024000138
:10271000002300000023000000230000002300002D
:10272000002300000023000000230001002200001D
:102730000022000000220000002200000022000011
:102740000022000100210000002100000021000003
:1027500000210000002100000021000000210001F4
:1027600000200000002000000020000000200000E9
:1027700000200000002000000020000000200001D8
:10278000001F0000001F0000001F0000001F0000CD
:10279000001F0000001F0000001F0001001E0000BD
:1027A000001E0000001E0000001E00000024F4D4E3
:1027B0003050C38E20C2A24017828B7011127A91C2
:1027C0000D816CD90AA861E108C7586607615143B9
:1027D000061E4B5D05C145A7041A411104093D9829
:1027E00003713931034036DB0265339102D4305432
:1027F00002802E1D02632CEE01752AC501B028A0AF
:1028000001102781018F2564012B244B01E0223424
:1028100001AC211F018D200D01801FFC00841EEDE5
:1028200000971DDF00B81CD200E61BC600201BBCB1
:1028300000641AB200B219A8000A19A0006A189917
:1028400000D117910040178B00B516840031167E19
:1028500000B31579003A157300C7146F0058146A55
:1028600000EE1366008813630025135E00C7125B39
:10287000006C12570015125400C111510070114F15
:102880000021114B00D61049008D1047004610441E
:102890000002104200C00F4000800F3E00420F3C7B
:1028A00000060F3B00CB0E3800930E37005C0E3550
:1028B00000270E3400F30D3200C10D3100900D30B1
:1028C00000600D2E00320D2D00050D2C00D90C2BB3
:1028D00000AE0C2900850C29005C0C2700350C2764
:1028E000000E0C2600E80B2400C40B2400A00B23D0
:1028F000007D0B23005A0B2100390B2100180B20FF
:1029000000F80A1F00D90A1E00BB0A1E009D0A1DFE
:1029100000800A1D00630A1C00470A1B002C0A1BCA
:1029200000110A1A00F7091A00DD091900C4091973
:1029300000AB091900920917007B091800630917F9
:10294000004C09160036091600200916000A091560
:1029500000F5081500E0081400CC081400B80814AD
:1029600000A4081400900813007D0812006B0813DF
:1029700000580812004608120034081100230811FC
:10298000001208110001081100F0071000E0071004
:1029900000D0071000C0071000B0070F00A10710FB
:1029A0000091070E0083070F0074070F0065070EE4
:1029B0000057070E0049070E003B070D002E070EBB
:1029C0000020070D0013070D0006070D00F9060C87
:1029D00000ED060D00E0060C00D4060C00C8060C45
:1029E00000BC060C00B0060C00A4060B0099060CF7
:1029F000008D060B0082060B0077060B006C060BA1
:102A00000061060A0057060B004C060A0042060A3F
:102A10000038060A002E060A0024060A001A060AD2
:102A2000001006090007060A00FD050900F4050963
:102A300000EB050900E2050900D9050900D00509E8
:102A400000C7050900BE050900B5050800AD050869
:102A500000A50509009C050800940508008C0508E0
:102A600000840508007C050800740508006C050753
:102A700000650508005D050700560508004E0507BE
:102A80000047050700400508003805070031050725
:102A9000002A050700230507001C05060016050788
:102AA000000F0507000805060002050700FB0406E5
:102AB00000F5040700EE040600E8040600E204073F
:102AC00000DB040600D5040600CF040600C9040696
:102AD00000C3040600BD040600B7040600B10405E7
:102AE00000AC040600A6040600A00405009B040632
:102AF0000095040500900406008A0405008504057D
:102B000000800406007A04050075040500700405C1
:102B1000006B04050066040500610405005C040503
:102B20000057040500520405004D04050048040543
:102B300000430405003E0404003A04050035040582
:102B400000300404002C04050027040400230405BD
:102B5000001E0404001A04040016040500110404F5
:102B6000000D04040009040500040404000004042A
:102B700000FC030400F8030400F4030400F0030461
:102B800000EC030400E8030400E4030400E0030491
:102B900000DC030400D8030400D4030400D00304C1
:102BA00000CC030400C8030300C503030020436FE7
:102BB000756E7420583A00004500626564002C2050
:102BC00073797374656D2073746F70706564212000
:102BD0004865617465725F49443A20004572723AF3
:102BE000204D415854454D50004D415854454D508D
:102BF000207472696767657265640048656174690D
:102C00006E67204661696C65640048656174696E31
:102C100067206661696C6564004D3131322053680C
:102C20007574646F776E004572723A204D494E5448
:102C3000454D50004D494E54454D502074726967C2
:102C4000676572656400544845524D414C205255A9
:102C50004E4157415900546865726D616C20527540
:102C60006E6177617900202F002042403A002040B9
:102C70003A0020573A0020573A002053004D313097
:102C800036205000496E76616C69642065787472F4
:102C9000756465720A0070012C0190012701B00172
:102CA0002201C0011D01F0011801100213013002C0
:102CB0000E016002090190020401C002FF0000033E
:102CC000FA004003F5008003F000D003EB0020047D
:102CD000E6007004E100E004DC004005D700C00518
:102CE000D2004006CD00D006C8008007C3003008DF
:102CF000BE00F008B900C009B400B00AAF00B00BC4
:102D0000AA00D00CA500000EA000500F9B00C01020
:102D100096005012910000148C00C0158700B01767
:102D20008200B0197D00D01B7800001E7300402087
:102D30006E0090226900F024640040275F00902913
:102D40005A00E02B5500102E500020304B0010325E
:102D50004600E033410090353C00103737007038B2
:102D60003200A0392D00B03A2800A03B2300603C7F
:102D70001E00103D1900903D1400103E0F00703EE3
:102D80000A00C03E0500003F0000403FFBFF803FBF
:102D9000F6FFC03FF1FF2020506C616E6E657242FD
:102DA000756666657242797465733A2000204672D2
:102DB0006565204D656D6F72793A200020436F6D17
:102DC00070696C65643A204D61792031342032306D
:102DD00032330A00204C617374205570646174654D
:102DE000643A20323032322D31322D3137207C207E
:102DF000417574686F723A2028444947412D5465E3
:102E000063682C2041535758312076312E30290ADF
:102E1000004D61726C696E20322E312E320A002014
:102E2000536F6674776172652052657365740A002A
:102E3000205761746368646F672052657365740A14
:102E4000002042726F776E206F7574205265736533
:102E5000740A002045787465726E616C2052657347
:102E600065740A00506F77657255700A007374615B
:102E700072740A00205A3A0020593A0020583A0049
:102E8000656E6473746F7073206869743A20000013
:102E9000000A0B02090C0D0E0807030401000000D4
:102EA0000000000000000000000000000000000022
:102EB00000000000000000000000001211100000DF
:102EC0000000000000000000000000000000000002
:102ED0000000000000D21F0000DA170000E50F001C
:102EE000008A0900004C050000CE020000710100BC
:102EF00000BB000000FFFFFF82213D313931353139
:102F0000726573756D6564004469736D69737300F0
:102F1000526573756D696E670053656E64204D313F
:102F2000303820746F20726573756D650A00496EC4
:102F3000736572742066696C616D656E7420616E74
:102F4000642073656E64204D3130380A0052656824
:102F500065617420446F6E650052656865617469CF
:102F60006E672E2E2E00526568656174004865619B
:102F70007465722054696D656F75740053656E6475
:102F8000204D31303820746F2068656174206E6F79
:102F90007A7A6C650A004E6F7A7A6C65205061729D
:102FA0006B65640073686F7700626567696E0050D7
:102FB000757267654D6F7265005061757365640069
:102FC000436F6E74696E7565004C6F61642046696D
:102FD0006C616D656E74205400496E736572742067
:102FE00066696C616D656E7420616E642073656ED8
:102FF00064204D3130380A00220A00556E6B6E6F26
:10300000776E20636F6D6D616E643A2022002045FB
:1030100000205A0020590020204D393220580053FA
:10302000746570732070657220756E69740000009D
:103030002200250028002B002E0031003400020160
:103040000000050108010B010000210024002700F9
:103050002A002D00300033000101000004010701A7
:103060000A0105050505070508080808020202020D
:103070000A0A080804040404010101010101010114
:103080000303030303030303040707070C0C0C0CDF
:103090000C0C0C0C020202020606060606060606C8
:1030A0000B0B0B0B0B0B0B0B010210202008081055
:1030B00020401020408002010201080402010102A8
:1030C0000408102040808040201008040201800481
:1030D00002018040201008040201080402010102DC
:1030E0000408102040800102040810204080207451
:1030F0006F6F206C6F6E6720657874727573696F7F
:103100006E2070726576656E7465640A0020636F68
:103110006C6420657874727573696F6E2070726567
:1031200076656E7465640A006F6B0A00526573659C
:103130006E643A200020453A00205A3A0020593A5D
:1031400000583A00706F7765726F6666005072695A
:103150006E7465722068616C7465642E206B696C96
:103160006C28292063616C6C6564210A000019F1E8
:1031700011241FBECFEFD1E2DEBFCDBF00E00CBFF8
:1031800084B780931A1714BE0FB6F894A89580914F
:103190006000886180936000109260000FBE13E0B1
:1031A000A0E0B2E0EAE5FFE002E00BBF02C007905A
:1031B0000D92A639B107D9F727E1A6E9B3E001C01E
:1031C0001D92AA31B207E1F718E1C8EBD8E100E09F
:1031D00006C021970109802FFE010F946303C73BAE
:1031E000D10780E00807A9F70E9476F20D94AB079B
:1031F0000C9400008F929F92AF92BF92CF92DF9279
:10320000EF92FF920F931F93CF93DF93EC018A010C
:10321000072E000C880B990B0E94C2FC4B015C012D
:10322000C880D980EA80FB80A70196010F94A3058E
:1032300018162CF488829982AA82BB8210C0B80129
:10324000110F880B990B0E94C2FC4B015C01AC0171
:103250009B01C701B6010F94A30518165CF3DF911B
:10326000CF911F910F91FF90EF90DF90CF90BF9083
:10327000AF909F908F900895AF92BF92CF92DF92C0
:10328000EF92FF920F931F93CF93DF93C2E3DCE0A3
:1032900005EF1BE082E4A82E8CE0B82EC12CD12CC7
:1032A0007601C39469917991899199910E94C0FCAA
:1032B000288939894A895B890E9421FD0F94C504B8
:1032C000F80161937193819391938F01C616D7068C
:1032D000E806F90610F46B017C01AC16BD0611F787
:1032E0006FEF7FEFCB01A70196010F94E6022093C9
:1032F000050C3093060C4093070C5093080CDF919B
:10330000CF911F910F91FF90EF90DF90CF90BF90E2
:10331000AF900895CF92DF92EF92FF928091470590
:10332000882309F457C0C0904305D0904405E0902D
:103330004505F090460520E030E0A901C701B6013F
:103340000E94BCFC882309F445C020E030E040E046
:103350005FE3C701B6010E9421FD9B01AC010E9401
:1033600021FD2BED3FE049E450E40E9421FD9B014B
:10337000AC0160E070E080E89FE30F9458046B01BB
:103380007C01C0925804D0925904E0925A04F09201
:103390005B0460911A0270911B02072E000C880BCF
:1033A000990B0E94C2FC2AE037ED43E25CE30E94E5
:1033B00021FDA70196010E9421FD60936402709394
:1033C00065028093660290936702FF90EF90DF9012
:1033D000CF900895C12CD12C80E8E82E8FE3F82EF1
:1033E000D0CFFC017081472F50E0062E02C05595CA
:1033F00047950A94E2F740FF14C040914B0450E017
:10340000062E02C0559547950A94E2F740FF09C081
:1034100021E030E001C0220F6A95EAF720952723CA
:1034200020830895CF93DF9324E0829FC00111246D
:10343000EC01CD59DD4EFC01E555FA4F845B9B4F05
:10344000DC012D913D914D915C9160817181828172
:1034500093810F947C03688379838A839B83DF91B4
:10346000CF9108958091470490914804A091490418
:10347000B0914A048093600290936102A09362022B
:10348000B0936302809145049091460490935F024B
:1034900080935E0208958091600290916102A091F4
:1034A0006202B09163028093470490934804A09312
:1034B0004904B0934A0480915E0290915F02909318
:1034C00046048093450484E690E090935F028093E5
:1034D0005E020895CF92DF92EF92FF92CF93DF9337
:1034E000EC01FB01C080D180E280F38023EA31E06F
:1034F00040E450ECC701B6010F94A30587FD23C03B
:1035000023E030E046E953E4C701B6010E94BCFC69
:103510001816CCF0C880D980EA80FB8023EA31E01D
:1035200040E450ECC701B6010F94A30587FD0BC022
:10353000C1E023E030E046E953E4C701B6010E9450
:10354000BCFC18160CF4C0E08C2FDF91CF91FF90DB
:10355000EF90DF90CF9008954F925F926F927F929D
:103560008F929F92AF92BF92CF92DF92EF92FF9293
:10357000CF93DF93CDB7DEB76E970FB6F894DEBF6B
:103580000FBECDBF9E8F8D8FFC01C4A8D5A8E6A825
:10359000F7A820E030E0A901C701B6010E94BCFCF9
:1035A000882309F497C1A701960160E070E080E8E4
:1035B0009FE30F9458046B017C01ED8DFE8D2081FB
:1035C0003181428153810E9421FD6D837E838F83EF
:1035D0009887ED8DFE8D2481358146815781C70105
:1035E000B6010E9421FD2B013C01ED8DFE8D24854D
:1035F000358546855785C701B6010E9421FD4B01DF
:103600005C012D813E814F815885CA01B9010E941C
:1036100021FD9B01AC01C501B4010F947B03698BB3
:103620007A8B8B8B9C8BED8DFE8D20893189428925
:103630005389C701B6010E9421FD4B015C01A30122
:103640009201C301B2010E9421FD9B01AC01C501A1
:10365000B4010F947B036D8B7E8B8F8B988FED8DD8
:10366000FE8D2489358946895789C701B6010E9494
:1036700021FD4B015C01A30192016D817E818F814F
:1036800098850E9421FD9B01AC01C501B4010F94F6
:103690007B0369837A838B839C832D893E894F8941
:1036A000588D69897A898B899C890E9421FD4B01FB
:1036B0005C0129813A814B815C81CA01B9010E9478
:1036C00021FD9B01AC01C501B4010F947B03698707
:1036D0007A878B879C8720E030E0A9010F94A305AF
:1036E00089849A84AB84BC8487FF04C0B7FAB09401
:1036F000B7F8B094ED8DFE8D24A135A146A157A158
:1037000060A171A182A193A10F947C032FEF36EEEB
:103710004BED5EE20E9421FDA50194010F94A305EB
:1037200087FFD8C0ED8DFE8D20853185428553857C
:10373000C701B6010E9421FD6D877E878F87988B18
:10374000ED8DFE8D248D358D468D578DC701B601CB
:103750000E9421FD4B015C012D853E854F855889D6
:10376000C301B2010E9421FD9B01AC01C501B4015E
:103770000F947B034B015C01ED8DFE8D208D318D0F
:10378000428D538DC701B6010E9421FD6B017C0162
:103790002D853E854F8558896D817E818F819885E5
:1037A0000E9421FD9B01AC01C701B6010F947B0370
:1037B000698F7A8F8B8F9C8FA501940169817A81A3
:1037C0008B819C810E9421FD6B017C01298D3A8DAA
:1037D0004B8D5C8D6D897E898F89988D0E9421FD2E
:1037E0009B01AC01C701B6010F947B0329853A8583
:1037F0004B855C850F9458046B017C01ED8DFE8D2B
:10380000C0A6D1A6E2A6F3A6298D3A8D4B8D5C8D7C
:1038100069817A818B819C810E9421FD69837A83F1
:103820008B839C83A501940169897A898B899C8902
:103830000E9421FD9B01AC0169817A818B819C8171
:103840000F947B0329853A854B855C850F9458043A
:103850004B015C01ED8DFE8D84A695A6A6A6B7A6AC
:103860002D813E814F815885C701B6010E9421FDFF
:103870002D853E854F8558890F947C036B017C0113
:10388000A3019201C501B4010E9421FD9B01AC017D
:10389000C701B6010F947C039058ED8DFE8D60AB8F
:1038A00071AB82AB93AB90E080E06E960FB6F8946C
:1038B000DEBF0FBECDBFDF91CF91FF90EF90DF90C5
:1038C000CF90BF90AF909F908F907F906F905F90C0
:1038D0004F90089581E090E0E8CF90E080E0089577
:1038E00020910504833021F425FD0CC024FD0CC07B
:1038F00030E0A90102C0559547958A95E2F7CA01C3
:103900008170089581E0089580E0089580912004F9
:1039100084FD0BC08091220487FD07C09091230491
:10392000937081E019F480E0089581E00895FC012E
:1039300065917591859194910895809164048111A8
:103940000EC020912002309121022150310981E0E6
:103950004091A3125091A412421753070CF080E03B
:1039600008950F931F9341E050E0082E02C0440FCA
:10397000551F0A94E2F7052E000C660B770B009199
:103980000004109101042091020430910304402BA3
:10399000512B622B732B40930004509301046093CE
:1039A00002047093030490911102891303C081E013
:1039B0008093300C1F910F910895282F809311024E
:1039C000803240F580910404281724F081E0820FB2
:1039D0008093040481E090E002C0880F991F2A952B
:1039E000E2F7092E000CAA0BBB0B4091000450918A
:1039F0000104609102047091030484239523A6239B
:103A0000B72321E0892B8A2B8B2B09F420E020930C
:103A1000300C08951092300C0895840F911DFC0114
:103A2000808190E002C0959587956A95E2F7817054
:103A30000895FC0120812617170611F00CF0608311
:103A400008954F925F926F927F928F929F92AF9262
:103A5000BF92CF92DF92EF92FF920F931F93CF937B
:103A6000DF93C82F062F542E622EE62EF12C37E05E
:103A7000732EC82ED12CF701789EE00DF11D112474
:103A8000EE0FFF1FEE0FFF1FEF58FB4F608171819C
:103A9000828193819B01AC010F947F06882309F4F6
:103AA0007AC0C50D0C2E000CDD0B060D002E000C8F
:103AB000110B7C9EF0017D9EF00D1124E00FF11F93
:103AC000EE0FFF1FEE0FFF1FEF58FB4F808091801E
:103AD000A280B380A5019401C501B4010F947F06B3
:103AE000811159C0C50DD11D57FCDA957C9EF0019E
:103AF0007D9EF00D1124060D111D67FC1A95E00F37
:103B0000F11FEE0FFF1FEE0FFF1FEF58FB4F40801E
:103B1000518062807380A3019201C301B2010F94AE
:103B20007F06811138C0A3019201C501B4010E9432
:103B3000BCFC87FD0CC0A5019401C501B4010F9424
:103B40007C03A30192010F947B034B015C0187E08E
:103B50008C9DF0018D9DF00D1124EE0DFF1DEE0FDB
:103B6000FF1FEE0FFF1FEF58FB4F80829182A28252
:103B7000B38281E0DF91CF911F910F91FF90EF9081
:103B8000DF90CF90BF90AF909F908F907F906F907D
:103B90005F904F90089580E0EDCF8F929F92AF920B
:103BA000BF92CF92DF92EF92FF920F931F93CF932A
:103BB000DF9380EBE82E8BE0F82E98EBC92E9BE08C
:103BC000D92EF70185919491FC01A4903296B4907E
:103BD0003197C491329604910496FC018491882314
:103BE000F1F088248A94AC1614F488248394002E6F
:103BF000000C110B0C2E000CDD0BB016110669F138
:103C00009A2C9C161D0649F020E0482D6B2D892D1D
:103C100018DF811102C0980CF4CFB394EECF882442
:103C20008A94B01614F4882483940C2E000CDD0BB7
:103C3000002E000C110BAC161D0679F09B2C901673
:103C4000110649F0282D40E0692D8A2DFADE8111F8
:103C500002C0980CF4CFA394EECFF2E0EF0EF11C6B
:103C6000CE14DF0409F0ADCFDF91CF911F910F91FA
:103C7000FF90EF90DF90CF90BF90AF909F908F908C
:103C800008954F925F926F927F928F929F92AF9220
:103C9000BF92CF92DF92EF92FF920F931F93CF9339
:103CA000DF934090CF035090D0036090D103709089
:103CB000D20301E714E0C7E07801D7E0F701819073
:103CC0009190A190B1907F01A5019401C501B4012B
:103CD0000F947F0681110FC06701F4E0CF1AD1085D
:103CE000A5019401C301B2010F947C03F601608326
:103CF000718382839383D15009F7C150045E1F4FB3
:103D0000C111DACFDF91CF911F910F91FF90EF900A
:103D1000DF90CF90BF90AF909F908F907F906F90EB
:103D20005F904F9008958F929F92AF92BF92CF92E3
:103D3000DF92EF92FF920F931F93CF93DF93EC01EB
:103D40007B018A016901FB0120813181428153811C
:103D5000688179818A819B810F947C036883798350
:103D60008A839B83F80120813181428153816C8158
:103D70007D818E819F810F947C036C837D838E83F4
:103D80009F83F60120813181428153816885798545
:103D90008A859B850F947C03688779878A879B87B0
:103DA000F70160817181828193819B01AC010E9446
:103DB00021FD9B01AC016C857D858E859F850F94CF
:103DC0007C036C877D878E879F87F8016081718176
:103DD000828193819B01AC010E9421FD9B01AC017A
:103DE000688979898A899B890F947C03688B798B90
:103DF0008A8B9B8BF8012081318142815381F701AD
:103E000060817181828193810E9421FD9B01AC01BF
:103E10006C897D898E899F890F947C036C8B7D8B47
:103E20008E8B9F8BF6012081318142815381F70176
:103E300060817181828193810E9421FD9B01AC018F
:103E4000688D798D8A8D9B8D0F947C03688F798F17
:103E50008A8F9B8FF6012081318142815381F80145
:103E600060817181828193810E9421FD9B01AC015F
:103E70006C8D7D8D8E8D9F8D0F947C036C8F7D8FCF
:103E80008E8F9F8F88A099A0AAA0BBA0F701C080A9
:103E9000D180E280F38020E030E0A901C701B601C3
:103EA0000F94A30587FF04C0F7FAF094F7F8F09495
:103EB000A7019601B401C5010E94BCFC87FD02C0A8
:103EC00064017501C8A2D9A2EAA2FBA28CA09DA0A0
:103ED000AEA0BFA0F801C080D180E280F38020E0D6
:103EE00030E0A901C701B6010F94A30587FF04C004
:103EF000F7FAF094F7F8F094A7019601B401C50120
:103F00000E94BCFC87FD02C064017501CCA2DDA249
:103F1000EEA2FFA220E030E040E85FE36CA97DA9BB
:103F20008EA99FA90F947C036CAB7DAB8EAB9FAB2E
:103F3000DF91CF911F910F91FF90EF90DF90CF9085
:103F4000BF90AF909F908F9008952FEB280F2A314C
:103F500008F047C0E22FF0E0809120049091210406
:103F6000A0912204B091230404C0B695A79597951B
:103F700087952A95D2F780FD02C081700895EA5F87
:103F8000FB4FE081EE2341F18091F30B9091F40B14
:103F9000E80FF92FF11D808190ED980F9A3030F0E5
:103FA0008E3251F4818180538A3098F4F093FD036E
:103FB000E093FC0381E008958D3211F08B3249F4D7
:103FC000818190ED980F9A3088F38E3211F48281BE
:103FD000EACFF0E0E0E0EACF1092FD031092FC039C
:103FE000E9CF80E00895B1DF882341F081E020919E
:103FF000FC033091FD03232B09F480E00895CF9258
:10400000DF92EF92FF92E0914513F091461320E08A
:1040100030E046E953E464817581868197810F948D
:104020007C036B017C0120E030E041E953E40F9414
:10403000A305181634F4C12CD12C81E9E82E83E4B1
:10404000F82EC701B601FF90EF90DF90CF90089552
:10405000CF92DF92EF92FF92E0914513F0914613D9
:1040600020E030E040E450E46481758186819781EE
:104070000F947B036B017C0120E030E040E251E4CF
:104080000E94BCFC87FF06C0C12CD12C80E2E82E28
:1040900081E4F82EC701B601FF90EF90DF90CF903A
:1040A0000895CF92DF92EF92FF92E0914513F09145
:1040B000461320E030E046E953E46081718182815B
:1040C00093810F947C036B017C0120E030E041E997
:1040D00053E40F94A305181634F4C12CD12C81E9B4
:1040E000E82E83E4F82EC701B601FF90EF90DF9031
:1040F000CF900895CF92DF92EF92FF92E091451317
:10410000F091461320E030E040E450E4608171819A
:10411000828193810F947B036B017C0120E030E06E
:1041200040E251E40E94BCFC87FF06C0C12CD12CA8
:1041300080E2E82E81E4F82EC701B601FF90EF90EF
:10414000DF90CF90089508954F925F926F927F9283
:104150008F929F92AF92BF92CF92DF92EF92FF9297
:104160001F93CF93DF9300D000D01F921F92CDB743
:10417000DEB76C017B01442309F487C0FB0180801A
:104180009180A280B380E0904513F0904613F70130
:104190002481358146815781C501B4010F947B0389
:1041A0006D837E838F839887F60140805180628083
:1041B0007380F7012081318142815381C301B201B3
:1041C0000F947B0369837A838B839C83BE016B5F2F
:1041D0007F4FCE0101967ED9182F882309F43EC067
:1041E00089DF27E137EB41ED58E30F947B039B0117
:1041F000AC01C301B2010F94A30587FD2EC051DFAE
:1042000027E137EB41ED58E30F947C039B01AC01B0
:10421000C301B2010E94BCFC1816FCF019DF27E1B3
:1042200037EB41ED58E30F947B039B01AC01C501D3
:10423000B4010F94A30587FD10C0E1DE27E137EB41
:1042400041ED58E30F947C039B01AC0111E0C501E3
:10425000B4010E94BCFC18160CF410E0812F2896C3
:104260000FB6F894DEBF0FBECDBFDF91CF911F9187
:10427000FF90EF90DF90CF90BF90AF909F908F9086
:104280007F906F905F904F90089524D9182F8823C6
:1042900029F3A0904513B0904613F5012081318198
:1042A00042815381F60160817181828193810F94F3
:1042B0007C032B013C011EDF27E137EB41ED58E386
:1042C0000F947B039B01AC01C301B2010F94A305C2
:1042D00087FDC3CFE6DE27E137EB41ED58E30F94CE
:1042E0007C039B01AC01C301B2010E94BCFC181607
:1042F0000CF4B3CFF5012481358146815781F70154
:1043000060817181828193810F947C036B017C01B8
:104310009FDE27E137EB41ED58E30F947B039B01D0
:10432000AC01C701B6010F94A30587FD96CF67DEE8
:1043300027E137EB41ED58E30F947C039B01AC017F
:1043400011E0C701B60185CF462FBC016C5F7F4FDE
:10435000FBCE2FEFFC01208321830895682F70E0AE
:104360008730A0F4660F771F660F771FFB01E553B8
:10437000F34F4591559165917491F42FE52F362FA8
:10438000272F6F2F7E2F832F922F0895072E000C3B
:10439000880B990B0E94C2FC2BEA3AEA4AE352E4EA
:1043A0000E9421FD20E030E040E251E40F947C03C4
:1043B000F62FE72F382F292FE4CF682F70E08730B2
:1043C000A0F4660F771F660F771FFB01E951F34FCB
:1043D0004591559165917491F42FE52F362F272F34
:1043E0006F2F7E2F832F922F0895072E000C880B9E
:1043F000990B0E94C2FC2BEA3AEA4AE352E40E947B
:1044000021FD20E030E040E251E40F947C03F62FE0
:10441000E72F382F292FE4CF0F931F93CF93DF93EC
:1044200000D000D01F921F92CDB7DEB78C01FC01E7
:104430008081C3DF69837A838B839C83F8018181C8
:104440008DDFE62F462F572FBC014D835E836F8390
:10445000788729813A814B815C816E2F7E818F81A3
:10446000988528960FB6F894DEBF0FBECDBFDF91BA
:10447000CF911F910F910895861797070CF4CB01E8
:104480000895BC016C5F7F4F25C8EAE7F1E18081A8
:1044900081830895681779070CF4CB010895CF92B2
:1044A000DF92EF92FF92DC0141E754E097E030E0C9
:1044B00020E0CD90DD90ED90FC901397F901EE0F88
:1044C000FF1FEE0FFF1FE40FF51FC082D182E282B3
:1044D000F3822F5F3F4F2730310559F79150445EEB
:1044E0005F4F9111E4CFFF90EF90DF90CF90089550
:1044F0009091C3038093C303892F08950F931F9353
:10450000CF938C0120E030E040E251E4FC01608177
:104510007181828193810F947B032BEA3AEA4AEB03
:1045200051E40F947C0328EF3AE84FEA5CE30E94E1
:1045300021FD0F94C004C62F673008F0CFEF20E0B4
:1045400030E040E251E4F801648175818681978111
:104550000F947B032BEA3AEA4AEB51E40F947C0375
:1045600028EF3AE84FEA5CE30E9421FD0F94C00473
:10457000962F673008F09FEF8C2FCF911F910F91EE
:1045800008958091C2038823D1F10FB607FC2DC096
:104590009091B0038091B103981304C08091C00042
:1045A00086FD2DC08091C00085FF1EC08091B103A3
:1045B0002091B003821306C08091C1008F7D80934B
:1045C000C10012C0E82FF0E0E055FC4F92818F5FF0
:1045D0008F709093C6008093B1039091C000906457
:1045E0009093C000281741F3D3CF9091B0038091EE
:1045F000B103981303C08091C00086FFF6CF0895E1
:10460000EF92FF921F93CF93DF9391E7E92E94E00F
:10461000F92E17E0D0E0C0E0FE01EE0FFF1FEE0F15
:10462000FF1FEE0DFF1D60817181828193819B01CF
:10463000AC010F947F06811111C02196C730D105BE
:1046400059F711508CE1E80EF11C1111E3CF81E014
:10465000DF91CF911F91FF90EF90089580E0F8CF08
:104660000F931F93CF93DF9306E41CE0CEE1DCE0D1
:10467000F80121913191419151918F0160E070E0F9
:1046800080E89FE30F9458046993799389939993F1
:10469000FCE0CE32DF0761F70E9408B6DF91CF91D0
:1046A0001F910F910C943C194F925F926F927F92E1
:1046B0008F929F92AF92BF92CF92DF92EF92FF9232
:1046C000CF93DF9300D000D0CDB7DEB79E838D832C
:1046D000DC014D905D906D907C90139714968D90B9
:1046E0009D90AD90BC90179718968D919D910D90CF
:1046F000BC91A02D89839A83AB83BC83A3019201D3
:10470000C301B2010E9421FD6B017C01A50194014E
:10471000C501B4010E9421FD9B01AC01C701B60196
:104720000F947C036B017C0129813A814B815C8170
:10473000CA01B9010E9421FD9B01AC01C701B6016C
:104740000F947C030F9436069B01AC0160E070E08F
:1047500080E89FE30F9458046B017C01AC019B013E
:10476000C301B2010E9421FDED81FE81608371834E
:1047700082839383A7019601C501B4010E9421FDA4
:10478000AD81BE8114966D937D938D939C93179705
:10479000A701960169817A818B819C810E9421FD0C
:1047A000ED81FE81608771878287938726960FB699
:1047B000F894DEBF0FBECDBFDF91CF91FF90EF9099
:1047C000DF90CF90BF90AF909F908F907F906F9031
:1047D0005F904F90089520E030E040E251E40F9464
:1047E0007B0328EF3AE84FEA5CE30E9421FD0F9437
:1047F000F1040F94C004862F663014F085E008950C
:1048000067FD80E008952F923F924F925F926F92E2
:104810007F928F929F92AF92BF92CF92DF92EF9250
:10482000FF920F931F93CF93DF93CDB7DEB72C97F3
:104830000FB6F894DEBF0FBECDBF9A8389837A8707
:104840006987FC016081718182819381C4DFB82E08
:10485000E985FA856081718182819381BCDF382E80
:104860002B2D0B2C000C330B3C872B87082F880F2C
:10487000110B8B2DA2DD6B017C0181E08B0D9DDD89
:104880002B013C018B85EB85FC8536970CF085E090
:104890008F5F282F30E03E832D83C701B6010F9430
:1048A000C50470E090E080E00E94C0FC4B015C0118
:1048B00027E0222E8B859C85289EF001299EF00DF5
:1048C0001124E00FF11FEE0FFF1FEE0FFF1FEF5837
:1048D000FB4FC080D180E280F380A5019401E98183
:1048E000FA8160817181828193810F947B03698356
:1048F0007A838B839C83C301B2010F94C50470E05B
:1049000090E080E00E94C0FCA50194010F947B031D
:104910004B015C012D813E81229EF001239EF00D12
:104920001124E00FF11FEE0FFF1FEE0FFF1FEF58D6
:10493000FB4FA701960160817181828193810F9461
:104940007B0329813A814B815C810E9421FDA50175
:1049500094010F945804A70196010F947C032B0136
:104960003C010630110514F005E010E00F5F10E087
:1049700027E08B859C85289FF001299FF00D11244D
:10498000E00FF11FEE0FFF1FEE0FFF1FEF58FB4F61
:10499000C080D180E280F3808D819E81289FF001CC
:1049A000299FF00D1124E00FF11FEE0FFF1FEE0FF6
:1049B000FF1FEF58FB4FA701960160817181828133
:1049C00093810F947B0329813A814B815C810E9402
:1049D00021FDA50194010F945804A70196010F949D
:1049E0007C0369837A838B839C8381E0830DB6DCAF
:1049F0006D837E838F839887832DB0DC6B017C0170
:104A0000AC019B01E985FA85608171818281938186
:104A10000F947B034B015C01A301920169817A81B0
:104A20008B819C810F947B039B01AC01C501B40178
:104A30000E9421FD4B015C01A70196016D817E81E1
:104A40008F8198850F947B039B01AC01C501B40154
:104A50000F945804A30192010F947C036B017C0115
:104A6000AC019B010F947F06882319F0C12CD12C37
:104A70007601C701B6012C960FB6F894DEBF0FBEC3
:104A8000CDBFDF91CF911F910F91FF90EF90DF90FD
:104A9000CF90BF90AF909F908F907F906F905F90DE
:104AA0004F903F902F9008954F925F926F927F9218
:104AB0008F929F92AF92BF92CF92DF92EF92FF922E
:104AC000CF93DF9300D000D0CDB7DEB72091CD0BD0
:104AD000222309F43EC09E838D83BC016C5F7F4F0F
:104AE00092DE4B015C01AD81BE8118964D905D90C8
:104AF0006D907C901B97AC019B01C301B2010F9498
:104B00007B036B017C018091350590913605A09166
:104B10003705B091380589839A83AB83BC8320E045
:104B200030E0A901BC01CD010E94BCFC882349F002
:104B300020E030E0A901C701B6010E94BCFC1816B4
:104B4000ECF0AD81BE811896CD92DD92ED92FC9293
:104B50001B9726960FB6F894DEBF0FBECDBFDF9130
:104B6000CF91FF90EF90DF90CF90BF90AF909F904C
:104B70008F907F906F905F904F90089529813A8138
:104B80004B815C81C301B2010F94A30587FFE1CF84
:104B9000209160043091610440916204509163045B
:104BA000C501B4010E9421FD9B01AC0160E070E0F1
:104BB00080E89FE30F947B039B01AC01C701B60122
:104BC0000F945804ED81FE816087718782879387F7
:104BD000C0CFCF93DF93CDB7DEB72C970FB6F89445
:104BE000DEBF0FBECDBF19821A821B821C821D82BE
:104BF0001E821F82188619861A861B861C86AE01A5
:104C00004F5F5F4FBC0188E692E00E9439E42C962A
:104C10000FB6F894DEBF0FBECDBFDF91CF910895E0
:104C20002F923F924F925F926F927F928F929F92BC
:104C3000AF92BF92CF92DF92EF92FF920F931F93AA
:104C4000CF93DF93CDB7DEB7CB54D1090FB6F8942D
:104C5000DEBF0FBECDBF9AAF89AF62ED7BE08EECB9
:104C60009BE00E946A1A882309F481C12091D60B27
:104C70003091D70B4091D80B5091D90B2DA33EA367
:104C80004FA358A7409168025091690260916A024F
:104C900070916B024DA75EA76FA778AB9A01AB012D
:104CA0006091CE0B7091CF0B8091D00B9091D10B76
:104CB0000F947B032B013C0160916C0270916D029B
:104CC00080916E0290916F0269AB7AAB8BAB9CAB1B
:104CD0009B01AC016091D20B7091D30B8091D40BEE
:104CE0009091D50B0F947B0369A77AA78BA79CA7FC
:104CF0008091700290917102A0917202B091730242
:104D00008DAB9EABAFABB8AF9C01AD016DA17EA1E9
:104D10008FA198A50F947B03362E272E4C0120914E
:104D200074023091750240917602509177022BAF58
:104D30003CAF4DAF5EAF6091DA0B7091DB0B8091B1
:104D4000DC0B9091DD0B0F947B0323966CAF7DAF52
:104D50008EAF9FAF2397A3019201C301B2010E94BE
:104D600021FD6B017C0129A53AA54BA55CA5CA01D3
:104D7000B9010E9421FD9B01AC01C701B6010F944E
:104D80007C0369A37AA38BA39CA30F9436062DEC16
:104D90003CEC4CE45EE30E9421FD0F94AF056D8F67
:104DA0007E8F8F8F98A3AD8CBE8CA114B10409F4B3
:104DB000C9C0B50190E080E00E94C0FC9B01AC013D
:104DC00060E070E080E89FE30F9458046B017C0181
:104DD000AC019B01C301B2010E9421FD2B013C01EA
:104DE000A701960169A57AA58BA59CA50E9421FD26
:104DF00069A77AA78BA79CA7A7019601632D722D9F
:104E0000C4010E9421FD28966FAF289729967FAF95
:104E100029972A968FAF2A972B969FAF2B97A7019A
:104E2000960123966CAD7DAD8EAD9FAD23970E940C
:104E300021FD23966CAF7DAF8EAF9FAF2397C50149
:104E4000019785015C01232D322DA401632D722D64
:104E5000C4010E9421FD29A13AA14BA15CA10F949C
:104E60007C030F943606A70196010E9421FD698BF1
:104E70007A8B8B8B9C8B1D8A1E8A1F8A188E198EAB
:104E80001A8E1B8E1C8E80E1E8E6F2E0DE011196A0
:104E900001900D928A95E1F78091CD0B882309F45A
:104EA00081C0C0903505D0903605E0903705F09070
:104EB000380520E030E0A901C701B6010E94BCFC22
:104EC000882309F4D0C0A70196016DA17EA18FA10E
:104ED00098A50E94BCFC87FF65C020E030E0A901D6
:104EE0006DA17EA18FA198A50E94BCFC18160CF0A4
:104EF0004BC4A70196016DA17EA18FA198A50F9427
:104F0000A30587FF3AC420915C0430915D04409171
:104F10005E0450915F046DA17EA18FA198A50E94AF
:104F2000BCFC81113CC480911C0290911D02A09197
:104F30001E02B0911F0227968CAF9DAFAEAFBFAFE0
:104F400027979BC028963FAE289729962FAE299782
:104F50002A968FAE2A972B969FAE2B97C12CD12CD9
:104F600050E8E52E5FE3F52E01E010E06CCF81E024
:104F7000C55BDF4F0FB6F894DEBF0FBECDBFDF912C
:104F8000CF911F910F91FF90EF90DF90CF90BF9046
:104F9000AF909F908F907F906F905F904F903F90D9
:104FA0002F900895AE014F5E5F4F1A01A114B10416
:104FB00009F450C0BE016F5E7F4F1B01A301920137
:104FC00069817A818B819C810F947C0369837A83C8
:104FD0008B839C8329A53AA54BA55CA56D817E8119
:104FE0008F8198850F947C036D837E838F83988750
:104FF00028962FAD289729963FAD29972A964FAD31
:105000002A972B965FAD2B9769857A858B859C8532
:105010000F947C0369877A878B879C8723962CADB6
:105020003DAD4EAD5FAD23976D857E858F859889AB
:105030000F947C036D877E878F87988BA10169AD64
:105040007AADCE0101960E9439E471E0A71AB10849
:1050500009F0B4CFA10169AD7AAD8EEC9BE00E945E
:1050600039E480E085CF40E050E060E87FE32796B8
:105070004CAF5DAF6EAF7FAF2797A30192016DA5D7
:105080007EA58FA598A90F947C036DA77EA78FA7F7
:1050900098AB69837A838B839C8329A53AA54BA51A
:1050A0005CA569A97AA98BA99CA90F947C0369AB1B
:1050B0007AAB8BAB9CAB6D837E838F83988728966E
:1050C0002FAD289729963FAD29972A964FAD2A975D
:1050D0002B965FAD2B976DA97EA98FA998AD0F94E4
:1050E0007C0369877A878B879C8723962CAD3DAD9F
:1050F0004EAD5FAD23976BAD7CAD8DAD9EAD0F9486
:105100007C036D877E878F87988BCE0141961C012B
:1051100020E030E040E251E46DA57EA58FA598A97E
:105120000F947B0328EF3AE84FEA5CE30E9421FDED
:105130000F94C004D62E20E030E040E251E469A98B
:105140007AA98BA99CA90F947B0328EF3AE84FEA30
:105150005CE30E9421FD0F94C0042D2D0D2C000C4A
:10516000330B862F062E000C990B37FD86C2273095
:1051700031050CF096C27901AFEFEA1AFA0ACD2C8C
:10518000AD2CB12C97FD3CC3873091050CF0A2C229
:10519000FC013196D62E862E912CB6E0EB16F1044A
:1051A0001CF046E0E42EF12CE630F10514F0E6E0C8
:1051B000F0E0A901440F551F440F551F440F551F20
:1051C000BA01621B730B7EA36DA3DB01A80FB91F8D
:1051D000AA0FBB1FAA0FBB1FAF58BB4F2D913D910C
:1051E0004D915C912D8F3E8F4F8F58A39701220FC9
:1051F000331F220F331F220F331F2E193F09D901EE
:10520000A80FB91FAA0FBB1FAA0FBB1FAF58BB4FD8
:105210004D915D916D917C9149A35AA36BA37CA3A1
:10522000ADA1BEA1AE0FBF1FAA0FBB1FAA0FBB1F10
:10523000AF58BB4F6D917D918D919C916DA37EA3D5
:105240008FA398A7E20FF31FEE0FFF1FEE0FFF1FB4
:10525000EF58FB4F80819181A281B3818BAF9CAFCE
:10526000ADAFBEAF2D8D3E8D4F8D58A1CA01B90196
:105270000F947F06811155C229A13AA14BA15CA1CF
:10528000CA01B9010F947F06811155C22DA13EA11B
:105290004FA158A5CA01B9010F947F06811146C2DA
:1052A0002BAD3CAD4DAD5EADCA01B9010F947F068B
:1052B000811132C296E09C1508F4C7C1F501EE0FCA
:1052C000FF1FEE0FFF1FE951F34F85919591A591B7
:1052D000B4918DAB2C969FAF2C975D01A6E0AD15D8
:1052E00008F49EC1F401EE0FFF1FEE0FFF1FE55300
:1052F000F34F85919591A591B4916C017D012DA9F4
:105300002C963FAD2C97A5016DA57EA58FA598A9DC
:105310000F947B034B015C019601A70169A97AA94F
:105320008BA99CA90F947B036B017C012D8D3E8D75
:105330004F8D58A169A17AA18BA19CA10F947B03E9
:1053400028EF3AE84FEA5CE30E9421FD6DAB7EABAB
:105350008FAB98AF2DA13EA14FA158A56BAD7CADF1
:105360008DAD9EAD0F947B0328EF3AE84FEA5CE3E6
:105370000E9421FD6BAF7CAF8DAF9EAF2DA93EA9E2
:105380004FA958ADC501B4010E9421FD2D8D3E8D60
:105390004F8D58A10F947C0369A37AA38BA39CA380
:1053A0002BAD3CAD4DAD5EADC501B4010E9421FDFC
:1053B0002DA13EA14FA158A50F947C0329A13AA18C
:1053C0004BA15CA10F947B0328EF3AE84FEA5CE322
:1053D0000E9421FD6DA37EA38FA398A70150110900
:1053E00009F4EDC029853A854B855C852D8F3E8F6C
:1053F0004F8F58A3A70196016DA17EA18FA198A5FB
:105400000E9421FD29A13AA14BA15CA10F947C032C
:1054100027962CAD3DAD4EAD5FAD27970E9421FD87
:105420002D8D3E8D4F8D58A10F947C0369877A870F
:105430008B879C87A10169AD7AADCE0101960E9450
:1054400039E429813A814B815C81C301B2010F9417
:105450007C036DA77EA78FA798AB69837A838B8324
:105460009C832D813E814F81588569A57AA58BA5A6
:105470009CA50F947C0369AB7AAB8BAB9CAB6D8323
:105480007E838F83988728962FAD289729963FADE6
:1054900029972A964FAD2A972B965FAD2B976D8D46
:1054A0007E8D8F8D98A10F947C036D8F7E8F8F8F53
:1054B00098A369877A878B879C8723962CAD3DAD0F
:1054C0004EAD5FAD23976D857E858F8598890F944E
:1054D0007C036D877E878F87988BA3019201C5011E
:1054E000B4010F947C034B015C0129A53AA54BA59F
:1054F0005CA5C701B6010F947C036B017C0120E021
:1055000030E0A901C501B4010F94A30587FD00CEC9
:105510002BEA3AEA4AE352E4C501B4010E94BCFC1A
:1055200018160CF4F5CD20E030E0A901C701B60152
:105530000F94A30587FDECCD2BEA3AEA4AE352E447
:10554000C701B6010E94BCFC18160CF4E1CDA30102
:1055500092016DA97EA98FA998AD0E9421FD9B01A2
:10556000AC0169A17AA18BA19CA10F947C0369A3D2
:105570007AA38BA39CA32DA93EA94FA958AD6BADCF
:105580007CAD8DAD9EAD0F947B0328EF3AE84FEADA
:105590005CE30E9421FDA30192010E9421FD9B0179
:1055A000AC016DA17EA18FA198A50F947C036DA382
:1055B0007EA38FA398A70150110909F01BCF80E1AA
:1055C000EEECFBE0DE01119601900D928A95E1F779
:1055D0002DA13EA14FA158A5C701B6010E9421FDF2
:1055E00029A13AA14BA15CA10F947C0327962CAD75
:1055F0003DAD4EAD5FAD27970E9421FD9B01AC01F3
:1056000069857A858B859C850F947C0369877A8769
:105610008B879C87A10169AD7AADCE0101961FCD24
:10562000B401990C880B990B0E94C2FC2BEA3AEA50
:105630004AE352E40E9421FD20E030E040E251E4E0
:105640000F947C036B017C015ACEB501BB0C880B17
:10565000990B0E94C2FC2BEA3AEA4AE352E40E9408
:1056600021FD20E030E040E251E40F947C036DAB7B
:105670002C967FAF2C975C0131CE97FD24C08730EC
:1056800091050CF05DC0FC013196D62E862E912C32
:10569000B12CA12CC12CEE24E394F12C30E020E0BD
:1056A00083CD97FF29C046E0C42E26E030E056E0C7
:1056B000E52EF12C5901912C812CD12C90E080E029
:1056C000E1E0F0E076CDC12C30E020E0EE24E39480
:1056D000F12CF0CF76E0872E912CE6E0DE2E86E0EE
:1056E00090E056E0E516F1040CF461CD86E090E020
:1056F00046E0E42EF12C5BCD873091058CF156E02D
:10570000852E912C66E0D62E76E0A72EB12CE6E011
:10571000CE2E26E030E0EACF1BAE1CAE1DAE1EAE94
:10572000C9CD1D8E1E8E1F8E18A2A6CD1DA21EA233
:105730001FA218A6B5CD19A21AA21BA21CA2A6CD03
:10574000F6E08F2E912CA6E0DA2EB12CA12CC12CE4
:1057500030E020E086E090E0EE24E394F12C27CDC9
:10576000FC013196D62E862E912C26E0A22EB12C4D
:1057700036E0C32E26E030E014CD27961CAE1DAED9
:105780001EAE1FAE279779CC60E070E080E89FE303
:1057900027966CAF7DAF8EAF9FAF27976ECC2DA1B4
:1057A0003EA14FA158A520935C0430935D04409323
:1057B0005E0450935F042091600430916104409135
:1057C0006204509163046DA17EA18FA198A50E94EF
:1057D00021FD9B01AC0160E070E080E89FE30F9445
:1057E0007B0327966CAF7DAF8EAF9FAF27976093FB
:1057F0001C0270931D0280931E0290931F023DCCE9
:1058000046E0E416F1040CF456CF912C812CD12CF7
:10581000E1E0F0E090E080E0A6E0EA2EF12CC9CCD7
:105820000F931F938091CB0B813019F50E9444B9DF
:1058300000912D0410912E0420912F0430913004FA
:10584000601B710B820B930B28EE33E040E050E0BD
:105850000F94E6026091290470912A0480912B0430
:1058600090912C04620F731F841F951F1F910F913D
:1058700008956091310470913204809133049091C5
:105880003404D6CF8091CB0B813079F482E08093C1
:10589000CB0B0E9444B9609331047093320480931F
:1058A00033049093340481E0089580E00895682FD4
:1058B000880F770B880B990B0C9418B5BC01990FC6
:1058C000880B990B0C9418B563E00C944DEB809108
:1058D000FC039091FD03009731F04AE050E070E046
:1058E00060E00C9427FB60E070E0CB010895CF935B
:1058F000DF93CDB7DEB760970FB6F894DEBF0FBE6B
:10590000CDBF80E090E0A6E1B3E48D839E83AF83BA
:10591000B8878D879E87AF87B88B0E947A2069836E
:105920007A838B839C830E94512069877A878B8737
:105930009C8780E1FE013196A8E4B5E001900D92CC
:105940008A95E1F760960FB6F894DEBF0FBECDBF23
:10595000DF91CF9108958091FC039091FD03009712
:1059600031F04AE050E070E060E00C94FBF960E058
:1059700070E0CB010895EFDF97FD0AC0ECDF6F3FC9
:1059800071058105910509F02CF4E5DF862F089556
:1059900080E008958FEF08958091FC039091FD03BE
:1059A000892B39F0E8DF91E0811101C090E0892F67
:1059B000089591E0FCCFCF93DF93C82FD62F0E949C
:1059C000F31F882319F0DF91CF91E6CF8C2F0E942F
:1059D000A51F811101C08D2FDF91CF910895CF9325
:1059E000C62F0E94F31F882311F0CF91C4CF8C2FB4
:1059F000CF910895B0DFCB010895CF93DF93EB01F2
:105A00000E94F31F882319F0DF91CF91F3CFCE01CD
:105A1000DF91CF9108950F931F93CF938091FC0353
:105A20009091FD03009709F1FC018F01C1912C2F8A
:105A30002F7DA1F0C53431F0C53621F0C83511F005
:105A4000C83799F7F801108270E060E00E94A5F86D
:105A5000F801C083CF911F910F91089570E060E02D
:105A6000CF911F910F910C94A5F860E070E0CB01ED
:105A7000F1CFCF92DF92EF92FF926A017B010E94F9
:105A8000F31F882329F0FF90EF90DF90CF90C3CFD2
:105A9000C701B601FF90EF90DF90CF9008954F922D
:105AA0005F926F927F92AF92BF92CF92DF92EF920E
:105AB000FF920F931F93CF93DF938CE5A82E83E083
:105AC000B82E08E612E0CEECDBE093E6C92E92E1B8
:105AD000D92EF12CF50181915F010E94F31F8823DB
