:100000000C9480110C94C0110C94C0110C94C0116C
:100010000C94C0110C94C0110C94C0110C94C0111C
:100020000C94C0110C94C0110C94C0110C94C0110C
:100030000C94C0110C94C0110C94C0110C94C011FC
:100040000C94C0110C94CD8D0C94C0110C94C01163
:100050000C94C0110C94D67B0C94C0110C94687A4B
:100060000C94C0110C942A6C0C94F46B0C94C01179
:100070000C94C0110C94C0110C94C0110C94C011BC
:100080000C94C0110C94C0110C94C0110C94C011AC
:100090000C94C0110C94C0110C94C0110C94C0119C
:1000A0000C94C0110C94C0110C94C0110C94C0118C
:1000B0000C94C0110C94C0110C94C0110C94C0117C
:1000C0000C94C0110C94C0110C94C0110C94C0116C
:1000D0000C94C0110C94C0110C94C0110C94C0115C
:1000E0000C94C011084AD73B3BCE016E84BCBFFDC7
:1000F000C12F3D6C74319ABD56833DDA3D00C77FF8
:1001000011BED9E4BB4C3E916BAAAABE0000008090
:100110003F05A84CCDB2D44EB93836A9020C50B91F
:10012000918688083CA6AAAA2ABE000000803F004B
:100130004E414E494E495459494E46CDCCCC3D0ACC
:10014000D7233C17B7D13877CC2B329595E6241FAF
:10015000B14F0A000020410000C84200401C462068
:10016000BCBE4CCA1B0E5AAEC59D7400407A10F33B
:100170005A00A0724E18090010A5D4E80000E876D5
:1001800048170000E40B54020000CA9A3B0000002C
:10019000E1F505000080969800000040420F000045
:1001A00000A08601000000102700000000E8030006
:1001B0000000006400000000000A000000000001D0
:1001C00000000000002C76D888DC674F0823DFC1D0
:1001D000DFAE59E1B1B796E5E3E453C63AE651998B
:1001E0007696E8E6C28426EB898C9B62ED407C6FB4
:1001F000FCEFBC9C9F40F2BAA56FA5F490055A2A6B
:10020000F75C936B6CF9676DC11BFCE0E40D47FE76
:10021000F520E6B500D0ED902E030094357705006B
:1002200080841E080000204E0A000000C80C3333F2
:1002300033330F986E12831141EF8D2114893BE601
:100240005516CFFEE6DB18D1844B381BF77C1D908A
:100250001DA4BBE424203284725E228100C9F124F3
:10026000ECA1E53D27434F4D4D554E49434154497F
:100270004F4E0044525952554E004552524F525320
:1002800000494E464F004543484F0053544F50508D
:1002900045442E20005072696E7465722073746F2D
:1002A000707065642064756520746F206572726F6C
:1002B00072732E2046697820746865206572726FAB
:1002C0007220616E6420757365204D393939207450
:1002D0006F20726573746172742E202854656D707E
:1002E00065726174757265206973207265736574D7
:1002F0002E205365742069742061667465722072C3
:10030000657374617274696E67290A004E6F2043C9
:100310006865636B73756D2077697468206C696EAE
:1003200065206E756D6265722C204C617374204C73
:10033000696E653A2000636865636B73756D206D47
:1003400069736D617463682C204C617374204C690F
:100350006E653A20004C696E65204E756D6265725F
:10036000206973206E6F74204C617374204C696E29
:1003700065204E756D6265722B312C204C61737453
:10038000204C696E653A20004D3131300053657262
:1003900069616C20737461747573206D69736D612C
:1003A0007463680A00746F6F206D75636820696EEE
:1003B0006163746976652074696D65202D206375AD
:1003C0007272656E7420636F6D6D616E643A2000A9
:1003D0002121204B494C4C20636175736564206278
:1003E000792000627573793A2070617573656420B5
:1003F000666F7220696E7075740A00627573793A5F
:100400002070617573656420666F72207573657204
:100410000A00627573793A2070726F63657373694D
:100420006E670A006563686F3A004572726F723AD0
:10043000002F2F616374696F6E3A006E6F74696686
:1004400069636174696F6E20006E6F7469666963B9
:100450006174696F6E2000656E6400627574746FFC
:100460006E00486F74656E6420746F6F20636F6CEC
:10047000640A00706175736564005061757365008E
:10048000416363757261637920446563726561736A
:10049000696E67210044656372656173696E6720E8
:1004A0004163637572616379204465746563746543
:1004B000642E0A004732385A0041636375726163E3
:1004C000793A2000206F6620004469642000473399
:1004D000342061626F727465642E0A004163637533
:1004E000726163792041636869657665640054616F
:1004F00072676574206163637572616379206163FB
:100500006869657665642E0A000A5A322D5A313DB3
:100510000050726F62696E67204661696C656400A5
:1005200050726F62696E67206661696C65640A006B
:100530000A47333420497465726174696F6E3A20DA
:10054000003F2841296D706C696669636174696F49
:100550006E206F7574206F6620626F756E647320F5
:1005600028302E352D322E30292E0A003F285429CE
:100570006172676574206163637572616379206F6E
:100580007574206F6620626F756E64732028302E3C
:1005900030312D312E30292E0A003F28492974652B
:1005A000726174696F6E206F7574206F6620626F60
:1005B000756E64732028312D3330292E0A002020D7
:1005C0004D3432322053005A204175746F2D416CE6
:1005D00069676E0046696E6973686564210A003A4E
:1005E000207A3A2000206F662000476F696E6720EE
:1005F000746F3A20580043570A00206469723A0029
:1006000020616E676C653A00537461727420726188
:10061000646975733A00506F736974696F6E696EBF
:1006200067207468652070726F62652E2E2E0A0036
:100630003F4C656773206F66206D6F76656D656EE4
:100640007420696D706C61757369626C6520283007
:100650002D3135292E0A003F2028582C5929206F8A
:100660007574206F6620626F756E64732E0A005079
:10067000726F6265206F7574206F6620626F756E91
:100680006473003F53616D706C652073697A6520F7
:100690006E6F7420706C61757369626C65202834AC
:1006A0002D3530292E0A004D3438205A2D50726FC6
:1006B0006265205265706561746162696C69747904
:1006C00020546573740A003F2856296572626F735F
:1006D00065206C6576656C20696D706C61757369F9
:1006E000626C652028302D34292E0A005374616E07
:1006F0006461726420446576696174696F6E3A2042
:10070000002052616E67653A2000204D61783A20E2
:1007100000204D696E3A2000205369676D613A20D0
:10072000004D65616E3A200020440020204D32309B
:1007300030205300202844697361626C6564293A53
:100740000046696C616D656E742073657474696EC2
:1007500067730020204D3230312058004D617820E1
:10076000416363656C65726174696F6E2028756E94
:100770006974732F7332290020204D323033205892
:10078000004D617820666565647261746573202828
:10079000756E6974732F73290020520020204D322A
:1007A0003034205000416363656C65726174696F19
:1007B0006E2028756E6974732F7332292028503C7F
:1007C0007072696E742D616363656C3E20523C7279
:1007D0006574726163742D616363656C3E20543C83
:1007E00074726176656C2D616363656C3E290020CF
:1007F000540020530020204D323035204200416407
:1008000076616E6365642028423C6D696E5F736536
:10081000676D656E745F74696D655F75733E2053B7
:100820003C6D696E5F66656564726174653E2054F7
:100830003C6D696E5F74726176656C5F6665656458
:10084000726174653E20583C6D61785F6A65726BB9
:100850003E20593C6D61785F6A65726B3E205A3C60
:100860006D61785F6A65726B3E20453C6D61785FB3
:100870006A65726B3E290020440020490020204D0B
:10088000333031205000486F74656E642050494405
:100890000020440020490020204D333034205000F7
:1008A000426564205049440020440020204D3539E1
:1008B00033205920460020440020204D3539332074
:1008C00058204600496E7075742053686170696ED7
:1008D000670047323800203B0020550020204D366D
:1008E0003033204C0046696C616D656E74206C6F0E
:1008F00061642F756E6C6F6164003B200020496E4F
:1009000076616C6964206578747275646572200024
:10091000536C6565702E2E2E005A2050726F6265E2
:100920002050617374204265640A005A2050726F2F
:10093000626520506173742042656400205A3A2039
:100940000020593A200042656420583A2000707215
:100950006F6D70745F00626567696E004D30205383
:10096000746F70004D312053746F70004E6F204DC6
:100970006F76652E002569730025696D20256973E2
:10098000002569682025696D202569730025696443
:10099000202569682025696D2025697300256979FE
:1009A00020256964202569682025696D20256973E3
:1009B000005072696E742074696D653A20006D3B59
:1009C000002054696D65206C6566743A2000253BF3
:1009D000002050726F67726573733A2000204D37A4
:1009E00033006F6B006F666600860281027A0273C5
:1009F00002650244454255473A004D313133205398
:100A000000417274696C6C65727920536964657712
:100A1000696E646572205831204F46462E002F2F94
:100A2000002058004F4646004F4E0020204D617870
:100A30003A2000200020204D696E3A2000203B2003
:100A40000020204D323131205300536F66742065F1
:100A50006E6473746F707300250A0046523A00206A
:100A6000466C6F773A200050726F6265204F666661
:100A7000736574205A0050726F6265204F6666730A
:100A80006574205A0064697300656E0043290A008A
:100A900061626C656420286D696E2074656D7020DC
:100AA00000436F6C642065787472756465732061AF
:100AB000726520004F666673657473204170706CB8
:100AC00069656400546F6F206661722066726F6D95
:100AD000207265666572656E636520706F696E74FD
:100AE0000A00454550524F4D204F4B0A003F2842C7
:100AF00029617564207261746520696D706C61751F
:100B00007369626C652E0A002062617564207261EF
:100B100074652073657420746F20002053657269BA
:100B2000616C2000206F72203020746F2064697324
:100B300061626C650A003F4672657175656E637926
:100B400020284629206D75737420626520677265C0
:100B500061746572207468616E20003F5A6574612B
:100B6000202844292076616C7565206F7574206F8C
:100B7000662072616E67652028302D31290A0029B0
:100B80000A0020746F20003F5A206F7574206F6632
:100B90002072616E6765202800290A0020746F208A
:100BA000003F59206F7574206F662072616E676513
:100BB00020282D00290A0020746F20003F58206F44
:100BC0007574206F662072616E676520282D002E77
:100BD0000A002028302D313029002076616C75659F
:100BE000206F7574206F662072616E6765004164C6
:100BF00076616E6365204B3D003F285929206F7553
:100C000074206F6620626F756E64732E0A003F2831
:100C10005829206F7574206F6620626F756E64733B
:100C20002E0A0020696E64657820696E76616C69B1
:100C3000642028312E2E32292E0A003F28532920E5
:100C400050726F62652D706F736974696F6E003FCB
:100C50002853292069732072657175697265642E45
:100C60000A00496E76616C696420657874727564F7
:100C700065720A006F6B0020204D3230362058001C
:100C8000486F6D65206F66667365740044696666BB
:100C90003A2020200046726F6D5374703A005374EE
:100CA00065707065723A005261773A20202020000A
:100CB0000A4C6F676963616C3A00436F756E74200C
:100CC000453A004361703A007D7D7D0A002C7A3AF6
:100CD000002C793A007D2C6D61783A7B783A002CB3
:100CE0007A3A002C793A007D7D2C776F726B3A7BD3
:100CF0006D696E3A7B783A002C7A3A002C793A008A
:100D00007D2C6D61783A7B783A002C7A3A002C7908
:100D10003A00617265613A7B66756C6C3A7B6D690D
:100D20006E3A7B783A00434F4E4649475F455850EC
:100D30004F5254004D4541545041434B00434F4F97
:100D40004C45525F54454D50455241545552450013
:100D50004348414D4245525F54454D5045524154E0
:100D600055524500424142595354455050494E470F
:100D70000041524353004D4F54494F4E5F4D4F4435
:100D8000455300544845524D414C5F50524F5445D5
:100D90004354494F4E00455854454E4445445F4DD9
:100DA000323000435553544F4D5F4649524D5741E1
:100DB00052455F55504C4F4144004C464E5F575290
:100DC000495445004C4F4E475F46494C454E414DB6
:100DD00045004155544F5245504F52545F53445F64
:100DE0005354415455530053445F5752495445009E
:100DF00052455045415400534443415244005052DF
:100E00004F4D50545F535550504F525400484F531C
:100E1000545F414354494F4E5F434F4D4D414E4403
:100E20005300454D455247454E43595F504152533B
:100E3000455200434153455F4C494748545F425235
:100E4000494748544E45535300544F47474C455F1C
:100E50004C494748545300534F4654574152455FFD
:100E6000504F574552004255494C445F50455243FC
:100E7000454E54004C4556454C494E475F444154FD
:100E800041005A5F50524F42450052554E4F555403
:100E9000004155544F4C4556454C005052494E5414
:100EA0005F4A4F420050524F4752455353004155FD
:100EB000544F5245504F52545F54454D5000415588
:100EC000544F5245504F52545F504F5300564F4C61
:100ED000554D455452494300454550524F4D0042EF
:100EE000494E4152595F46494C455F5452414E5319
:100EF0004645520053455249414C5F584F4E5F584A
:100F00004F4646004649524D574152455F4E414D6E
:100F1000453A4D61726C696E20322E312E32202D91
:100F200020444947412D5465636820415357583147
:100F30002076312E3020284D617920313420323016
:100F400032332031333A31353A32362920534F5536
:100F50005243455F434F44455F55524C3A6769746D
:100F60006875622E636F6D2F4D61726C696E466994
:100F7000726D776172652F4D61726C696E2050528F
:100F80004F544F434F4C5F56455253494F4E3A31A1
:100F90002E30204D414348494E455F545950453A03
:100FA000417274696C6C6572792053696465776904
:100FB0006E6465722058312045585452554445524C
:100FC0005F434F554E543A3120555549443A636575
:100FD0006465326132662D343161322D34373438F4
:100FE0002D396231322D633535633632663336370B
:100FF00066660047322F4733206261642070617259
:10100000616D65746572730A00203B0020204D38C5
:1010100035312058005A2D50726F6265204F666638
:101020007365740020573A0042656420436F6F6C0B
:10103000696E672E2E2E00426564204865617469D2
:101040006E672E2E2E00206661696C656421204239
:101050006164206865617465722069640A005049A2
:1010600044204175746F74756E650023646566690C
:101070006E652044454641554C545F0000626564EE
:10108000004B6420004B6920004B70200050494405
:101090002074756E696E6720646F6E6500206669E6
:1010A0006E697368656421205075742074686520CA
:1010B0006C617374204B702C204B6920616E64202E
:1010C0004B6420636F6E7374616E74732066726F0D
:1010D0006D2062656C6F7720696E746F20436F6E50
:1010E00066696775726174696F6E2E680A0050498F
:1010F00044204175746F74756E6500206661696C7B
:101100006564212074696D656F75740A00504944E7
:10111000204175746F74756E65004175746F7475D8
:101120006E65206661696C6564212054696D656F28
:1011300075742E00206661696C6564212054656DAC
:10114000706572617475726520746F6F206869676D
:10115000680A00504944204175746F74756E6500CB
:10116000204B643A2000204B693A2000204B703A13
:10117000200020436C617373696320504944200A46
:1011800000204E6F206F76657273686F6F740A006F
:101190002054753A2000204B753A2000206D61786C
:1011A0003A2000206D696E3A200020643A20002029
:1011B000626961733A200048656174696E672E2E1A
:1011C0002E002073746172740A00504944204175E6
:1011D000746F74756E65004175746F74756E6520FB
:1011E0006661696C6564212054656D706572617417
:1011F00075726520746F6F20686967682E002066BD
:1012000061696C6564212054656D706572617475E7
:10121000726520746F6F20686967680A00504944DE
:10122000204175746F74756E650050494420417596
:10123000746F74756E6500486F6D696E67204661E6
:10124000696C6564006F70656E005452494747458C
:10125000524544003A20007A5F6D696E00795F6DF7
:10126000696E00785F6D696E005265706F727469A7
:101270006E6720656E6473746F702073746174752B
:10128000730A0020746F6F206C6F6E67206578742E
:10129000727573696F6E2070726576656E746564C1
:1012A0000A0020636F6C6420657874727573696FCF
:1012B0006E2070726576656E7465640A00486F6DA5
:1012C0006520257320466972737400000040C000D9
:1012D0000040C0000000005761726E696E673A20DE
:1012E000486F6D696E672042756D7020446976693C
:1012F000736F72203C20310A000202040080974381
:10130000008097430000C8430000A0400000A040B8
:101310000000004000009643000096430000C843D0
:10132000000040C0000040C000000000536574741D
:10133000696E67732053746F72656400290A002018
:1013400062797465733B2063726320005365747423
:10135000696E67732053746F726564202800454579
:1013600050524F4D20496E697469616C697A6564A9
:101370000A0048617264636F646564204465666155
:10138000756C742053657474696E6773204C6F615B
:101390006465640020286D6D290020204D393030AF
:1013A000204B004C696E65617220416476616E630A
:1013B000650020204D3134392043203B20556E6993
:1013C000747320696E2043656C736975730A0054E9
:1013D000656D706572617475726520556E697473A0
:1013E000002020473231203B004C696E656172203D
:1013F000556E69747300454550524F4D20646174B9
:101400006173697A65206572726F722E0A00537477
:101410006F7265642073657474696E67732072659A
:101420007472696576656400290A002062797465C2
:10143000733B2063726320002073746F72656420B5
:1014400073657474696E677320726574726965760A
:101450006564202800454550524F4D20435243209B
:101460004572726F7200202863616C63756C6174E1
:10147000656429210A0020213D2000454550524F36
:101480004D20435243206D69736D61746368202D54
:10149000202873746F7265642920002053697A656F
:1014A0003A2000496E6465783A2000000048430005
:1014B0000048430000A04100002042F43DA042F457
:1014C0003DA04296E3C7430080DE43D0070000D032
:1014D0000700006400000010270000454550524FEF
:1014E0004D2056657273696F6E204572726F72007F
:1014F000204D61726C696E3D563837290A004545AA
:1015000050524F4D2076657273696F6E206D69730E
:101510006D617463682028454550524F4D3D002051
:10152000583A0024F404D9201BC40C5C0E9804C45F
:10153000095F0265077101F405F900FB04B3004877
:10154000048700C10369005803550003034500BE2A
:10155000023A008402310053022A002902250004C5
:10156000022000E4011C00C8011900AF0117009817
:101570000114008401130071011000610110005179
:10158000010E0043010D0036010B002B010B002062
:10159000010B00150109000C01090003010800FB03
:1015A000000800F3000800EB000700E4000600DE7E
:1015B000000600D8000600D2000600CC000500C7D7
:1015C000000500C2000500BD000400B9000400B51C
:1015D000000400B1000400AD000400A9000400A54F
:1015E000000300A20003009F0004009B000300987A
:1015F0000003009500020093000300900003008D9B
:101600000002008B000300880002008600020084B4
:10161000000300810002007F0002007D0002007BC9
:1016200000020079000200770001007600020074D9
:1016300000020072000100710002006F0002006DE4
:101640000001006C0002006A0001006900020067EE
:1016500000010066000100650001006400020062F4
:1016600000010061000100600001005F0002005DF8
:101670000001005C0001005B0001005A00010059FC
:1016800000010058000100570001005600010055FC
:1016900000010054000100530000005300010052FB
:1016A00000010051000100500001004F0001004EF8
:1016B0000000004E0001004D0001004C0001004BF5
:1016C0000000004B0001004A0001004900010048F1
:1016D00000000048000100470001004600000046ED
:1016E00000010045000000450001004400010043E6
:1016F00000000043000100420000004200010041E0
:1017000000000041000100400001003F0000003FD8
:101710000001003E0000003E0001003D0000003DD1
:101720000001003C0000003C0000003C0001003BC8
:101730000000003B0001003A0000003A00010039BF
:1017400000000039000100380000003800000038B7
:1017500000010037000000370001003600000036AD
:1017600000000036000100350000003500000035A3
:101770000001003400000034000000340001003398
:10178000000000330000003300010032000000328E
:101790000000003200010031000000310000003183
:1017A0000001003000000030000000300001002F78
:1017B0000000002F0000002F0000002F0001002E6D
:1017C0000000002E0000002E0001002D0000002D62
:1017D0000000002D0000002D0001002C0000002C56
:1017E0000000002C0000002C0001002B0000002B4A
:1017F0000000002B0000002B0001002A0000002A3E
:101800000000002A0000002A000100290000002931
:101810000000002900000029000000290001002824
:101820000000002800000028000000280000002818
:10183000000100270000002700000027000000270B
:1018400000000027000100260000002600000026FE
:1018500000000026000000260001002500000025F1
:1018600000000025000000250000002500000025E4
:1018700000010024000000240000002400000024D7
:1018800000000024000100230000002300000023CA
:1018900000000023000000230000002300000023BC
:1018A00000010022000000220000002200000022AF
:1018B00000000022000000220001002100000021A1
:1018C0000000002100000021000000210000002194
:1018D0000000002100010020000000200000002086
:1018E0000000002000000020000000200000002078
:1018F000000000200001001F0000001F0000001F6A
:101900000000001F0000001F0000001F0000001F5B
:101910000001001E0000001E0000001E0000001E4E
:1019200000000024F4D43050C38E20C2A24017829D
:101930008B7011127A910D816CD90AA861E108C7E8
:10194000586607615143061E4B5D05C145A7041A41
:10195000411104093D9803713931034036DB0265BA
:10196000339102D4305402802E1D02632CEE017597
:101970002AC501B028A001102781018F2564012B01
:10198000244B01E0223401AC211F018D200D018088
:101990001FFC00841EED00971DDF00B81CD200E67E
:1019A0001BC600201BBC00641AB200B219A8000AB2
:1019B00019A0006A189900D117910040178B00B543
:1019C00016840031167E00B31579003A157300C7EE
:1019D000146F0058146A00EE136600881363002524
:1019E000135E00C7125B006C12570015125400C141
:1019F00011510070114F0021114B00D61049008D7C
:101A00001047004610440002104200C00F40008002
:101A10000F3E00420F3C00060F3B00CB0E380093F8
:101A20000E37005C0E3500270E3400F30D3200C176
:101A30000D3100900D3000600D2E00320D2D00058F
:101A40000D2C00D90C2B00AE0C2900850C29005C54
:101A50000C2700350C27000E0C2600E80B2400C4D0
:101A60000B2400A00B23007D0B23005A0B2100390F
:101A70000B2100180B2000F80A1F00D90A1E00BB1A
:101A80000A1E009D0A1D00800A1D00630A1C0047F3
:101A90000A1B002C0A1B00110A1A00F7091A00DDA4
:101AA000091900C4091900AB091900920917007B34
:101AB000091800630917004C0916003609160020A2
:101AC0000916000A091500F5081500E0081400CCF5
:101AD000081400B8081400A4081400900813007D2E
:101AE0000812006B08130058081200460812003450
:101AF000081100230811001208110001081100F05C
:101B0000071000E0071000D0071000C0071000B059
:101B1000070F00A107100091070E0083070F007444
:101B2000070F0065070E0057070E0049070E003B20
:101B3000070D002E070E0020070D0013070D0006ED
:101B4000070D00F9060C00ED060D00E0060C00D4B0
:101B5000060C00C8060C00BC060C00B0060C00A465
:101B6000060B0099060C008D060B0082060B007711
:101B7000060B006C060B0061060A0057060B004CB2
:101B8000060A0042060A0038060A002E060A002449
:101B9000060A001A060A001006090007060A00FDD8
:101BA000050900F4050900EB050900E2050900D963
:101BB000050900D0050900C7050900BE050900B5E3
:101BC000050800AD050800A50509009C050800945E
:101BD0000508008C050800840508007C05080074D1
:101BE0000508006C050700650508005D050700563F
:101BF0000508004E050700470507004005080038A6
:101C0000050700310507002A050700230507001C0A
:101C1000050600160507000F050700080506000267
:101C2000050700FB040600F5040700EE040600E8C3
:101C3000040600E2040700DB040600D5040600CF1A
:101C4000040600C9040600C3040600BD040600B76C
:101C5000040600B1040500AC040600A6040600A0BA
:101C60000405009B04060095040500900406008A04
:101C700004050085040500800406007A040500754B
:101C8000040500700405006B04050066040500618E
:101C90000405005C04050057040500520405004DCE
:101CA00004050048040500430405003E0404003A0E
:101CB00004050035040500300404002C0405002749
:101CC000040400230405001E0404001A0404001682
:101CD000040500110404000D0404000904050004B7
:101CE00004040000040400FC030400F8030400F4EE
:101CF000030400F0030400EC030400E8030400E420
:101D0000030400E0030400DC030400D8030400D44F
:101D1000030400D0030400CC030400C8030300C57F
:101D200003030020436F756E7420583A000045008D
:101D3000626564002C2073797374656D2073746F11
:101D40007070656421204865617465725F49443A2A
:101D500020004572723A204D415854454D50004D77
:101D6000415854454D5020747269676765726564C7
:101D70000048656174696E67204661696C6564003E
:101D800048656174696E67206661696C6564004DC1
:101D90003131322053687574646F776E004572720A
:101DA0003A204D494E54454D50004D494E54454DF5
:101DB00050207472696767657265640054484552C3
:101DC0004D414C2052554E4157415900546865725F
:101DD0006D616C2052756E6177617900202F002053
:101DE00042403A0020403A0020573A002053004D2C
:101DF00031303620500070012C0190012701B001D4
:101E00002201C0011D01F00118011002130130026E
:101E10000E016002090190020401C002FF000003EC
:101E2000FA004003F5008003F000D003EB0020042B
:101E3000E6007004E100E004DC004005D700C005C6
:101E4000D2004006CD00D006C8008007C30030088D
:101E5000BE00F008B900C009B400B00AAF00B00B72
:101E6000AA00D00CA500000EA000500F9B00C010CF
:101E700096005012910000148C00C0158700B01716
:101E80008200B0197D00D01B7800001E7300402036
:101E90006E0090226900F024640040275F009029C2
:101EA0005A00E02B5500102E500020304B0010320D
:101EB0004600E033410090353C0010373700703861
:101EC0003200A0392D00B03A2800A03B2300603C2E
:101ED0001E00103D1900903D1400103E0F00703E92
:101EE0000A00C03E0500003F0000403FFBFF803F6E
:101EF000F6FFC03FF1FF2020506C616E6E657242AC
:101F0000756666657242797465733A200020467280
:101F10006565204D656D6F72793A200020436F6DC5
:101F200070696C65643A204D61792031342032301B
:101F300032330A00204C61737420557064617465FB
:101F4000643A20323032322D31322D3137207C202C
:101F5000417574686F723A2028444947412D546591
:101F600063682C2041535758312076312E30290A8E
:101F7000004D61726C696E20322E312E320A0020C3
:101F8000536F6674776172652052657365740A00D9
:101F9000205761746368646F672052657365740AC3
:101FA000002042726F776E206F75742052657365E2
:101FB000740A002045787465726E616C20526573F6
:101FC00065740A00506F77657255700A007374610A
:101FD00072740A00205A3A0020593A0020583A00F8
:101FE000656E6473746F7073206869743A200000C2
:101FF000002200250028002B002E003100340002B2
:10200000010000050108010B01050505050705088C
:10201000080808020202020A0A080804040404016B
:10202000010101010101010303030303030303048D
:102030000707070C0C0C0C0C0C0C0C02020202061D
:10204000060606060606060B0B0B0B0B0B0B0B010D
:1020500002102020080810204010204080020102B9
:102060000108040201010204081020408080402081
:1020700010080402018004020180402010080402BC
:10208000010804020101020408102040800102043A
:10209000081020408000000A0B02090C0D0E0807F2
:1020A0000304010000000000000000000000000028
:1020B0000000000000000000000000000000000020
:1020C00000121110000000000000000000000000DD
:1020D0000000000000000000000000D21F0000DA35
:1020E000170000E50F00008A0900004C050000CE33
:1020F00002000071010000BB000000FFFFFF5072F2
:102100006F62696E67204661696C65640A0050728F
:102110006F62696E67204661696C656400205A3A97
:10212000200020593A200042656420583A20001FC0
:1021300015CE22CA22C622726573756D656400448D
:1021400069736D69737300526573756D696E6700AD
:1021500053656E64204D31303820746F2072657382
:10216000756D650A00496E736572742066696C61ED
:102170006D656E7420616E642073656E64204D31F0
:1021800030380A0052656865617420446F6E6500DE
:10219000526568656174696E672E2E2E00526568FF
:1021A000656174004865617465722054696D656F7E
:1021B00075740053656E64204D31303820746F2083
:1021C00068656174206E6F7A7A6C650A004E6F7A6A
:1021D0007A6C65205061726B65640073686F77007C
:1021E000626567696E0050757267654D6F72650054
:1021F00050617573656400436F6E74696E75650038
:102200004C6F61642046696C616D656E742054008A
:10221000496E736572742066696C616D656E7420B9
:10222000616E642073656E64204D3130380A00227F
:102230000A00556E6B6E6F776E20636F6D6D616E09
:10224000643A202200204500205A00205900202016
:102250004D393220580053746570732070657220B8
:10226000756E6974004572726F7220777269746955
:102270006E6720746F20454550524F4D210A002053
:10228000746F6F206C6F6E672065787472757369F8
:102290006F6E2070726576656E7465640A002063E7
:1022A0006F6C6420657874727573696F6E207072DC
:1022B0006576656E7465640A006F6B0A005265731B
:1022C000656E643A200020453A00205A3A002059B1
:1022D0003A00583A00706F7765726F666600507208
:1022E000696E7465722068616C7465642E206B6918
:1022F0006C6C28292063616C6C6564210A0045A41C
:1023000011241FBECFEFD1E2DEBFCDBF00E00CBF76
:1023100084B780936A1514BE0FB6F894A89580917F
:102320006000886180936000109260000FBE13E02F
:10233000A0E0B2E0EAEEF0E701E00BBF02C00790D8
:102340000D92AC33B107D9F725E1ACE3B3E001C09E
:102350001D92AA36B207E1F711E1C0E8D1E100E031
:1023600006C021970109802FFE010E9461B5CF3779
:10237000D10780E00807A9F70E9403A50C9473B861
:102380000C940000AF92BF92CF92DF92EF92FF9237
:102390000F931F93CF93DF93CFECDAE002E91AE0BB
:1023A0008FEDA82E8AE0B82EC12CD12C7601C394D3
:1023B00069917991899199910E94CAAE2889398948
:1023C0004A895B890E942BAF0E94C3B6F8016193D2
:1023D0007193819391938F01C616D706E806F9068B
:1023E00010F46B017C01AC16BD0611F76FEF7FEFA7
:1023F000CB01A70196010E94F0B42093A20A30936A
:10240000A30A4093A40A5093A50ADF91CF911F918C
:102410000F91FF90EF90DF90CF90BF90AF90089515
:10242000CF92DF92EF92FF928091EC03882309F420
:1024300057C0C090E803D090E903E090EA03F09021
:10244000EB0320E030E0A901C701B6010E94C6AE4F
:10245000882309F445C020E030E040E05FE3C70195
:10246000B6010E942BAF9B01AC010E942BAF2BED5C
:102470003FE049E450E40E942BAF9B01AC0160E0D7
:1024800070E080E89FE30E9456B66B017C01C09229
:10249000CF03D092D003E092D103F092D2036091A7
:1024A000170270911802072E000C880B990B0E94DE
:1024B000CCAE2AE037ED43E25CE30E942BAFA701EC
:1024C00096010E942BAF609357027093580280933D
:1024D000590290935A02FF90EF90DF90CF900895A9
:1024E000C12CD12C80E8E82E8FE3F82ED0CFFC0150
:1024F0007081472F50E0062E02C0559547950A94EB
:10250000E2F740FF14C04091C20350E0062E02C023
:10251000559547950A94E2F740FF09C021E030E065
:1025200001C0220F6A95EAF720952723208308959A
:10253000CF93DF9324E0829FC0011124EC01C050AF
:10254000DF4EFC01EB5BFB4F8D539C4FDC012D916B
:102550003D914D915C9160817181828193810E9456
:102560007AB5688379838A839B83DF91CF910895BD
:102570008F929F92AF92BF92CF92DF92EF92FF9293
:10258000CF93DF9320911B02222309F48EC0EC012C
:102590008091C203E82E80FF2CC080901D02909095
:1025A0001E02A0901F02B0902002288139814A812A
:1025B0005B81C501B4010E94A1B7181624F488827A
:1025C0009982AA82BB828090290290902A02A090D0
:1025D0002B02B0902C02288139814A815B81C50190
:1025E000B4010E94C6AE87FF04C088829982AA8285
:1025F000BB82E1FE2CC08090210290902202A0902C
:102600002302B09024022C813D814E815F81C5015F
:10261000B4010E94A1B7181624F48C829D82AE8268
:10262000BF8280902D0290902E02A0902F02B09039
:1026300030022C813D814E815F81C501B4010E9431
:10264000C6AE87FF04C08C829D82AE82BF82E2FE4E
:102650002CC0C0902502D0902602E0902702F09076
:102660002802288539854A855B85C701B6010E9405
:10267000A1B7181624F4C886D986EA86FB86C090CE
:102680003102D0903202E0903302F090340228857B
:1026900039854A855B85C701B6010E94C6AE87FFB2
:1026A00004C0C886D986EA86FB86DF91CF91FF9069
:1026B000EF90DF90CF90BF90AF909F908F90089554
:1026C0008091BE039091BF03A091C003B091C1035C
:1026D0008093130290931402A0931502B0931602F4
:1026E0008091BC039091BD039093120280931102DC
:1026F00008958091130290911402A0911502B09157
:1027000016028093BE039093BF03A093C003B093BF
:10271000C10380911102909112029093BD038093A6
:10272000BC0384E690E09093120280931102089516
:1027300090E080E0089520917C03833021F425FD12
:102740000CC024FD0CC030E0A90102C0559547958E
:102750008A95E2F7CA018170089581E0089580E0CA
:1027600008958091970384FD0BC08091990387FDA4
:1027700007C090919A03937081E019F480E0089566
:1027800081E00895FC01659175918591949108957A
:102790002FEB280F2A3108F047C0E22FF0E080919C
:1027A000970390919803A0919903B0919A0304C064
:1027B000B695A795979587952A95D2F780FD02C083
:1027C00081700895E358FC4FE081EE2341F1809140
:1027D0008E0A90918F0AE80FF92FF11D808190EDFC
:1027E000980F9A3030F08E3251F4818180538A30C4
:1027F00098F4F0937403E093730381E008958D32AD
:1028000011F08B3249F4818190ED980F9A3088F362
:102810008E3211F48281EACFF0E0E0E0EACF10924C
:10282000740310927303E9CF80E00895B1DF882329
:1028300041F081E02091730330917403232B09F45C
:1028400080E008958091D30381110EC02091190278
:1028500030911A022150310981E04091421150918A
:102860004311421753070CF080E008950F931F9314
:1028700041E050E0082E02C0440F551F0A94E2F7D1
:10288000052E000C660B770B0091770310917803EF
:102890002091790330917A03402B512B622B732BBB
:1028A00040937703509378036093790370937A038E
:1028B00090910802891303C081E08093CD0A1F9193
:1028C0000F910895282F80930802803240F580915F
:1028D0007B03281724F081E0820F80937B0381E043
:1028E00090E002C0880F991F2A95E2F7092E000C8C
:1028F000AA0BBB0B40917703509178036091790349
:1029000070917A0384239523A623B72321E0892B92
:102910008A2B8B2B09F420E02093CD0A0895109286
:10292000CD0A08954091FD0321E0422768E070E060
:102930000C94D6734091FD0321E042276CE070E0D7
:102940000C94D6734091FD0321E0422764E070E0CF
:102950000C94D6734091FD0321E0422761E070E0C2
:102960000C94D6734091FD0321E0422761E070E0B2
:102970000C94D6734091FD0321E0422768E070E09B
:102980000C94D6734091FD0321E042276CE070E087
:102990000C94D67341E061E070E00C94D6734091E2
:1029A000FD0321E042270C94D6736CE070E00C9498
:1029B0002F7964E070E00C942F7961E070E00C9462
:1029C0002F7961E070E00C942F796CE070E00C944A
:1029D0002F790F931F93CF93DF9303EE1AE0CBEB86
:1029E000DAE0F80121913191419151918F0160E03C
:1029F00070E080E89FE30E9456B6699379938993CB
:102A00009993FAE0CB3CDF0761F70E94B673DF9140
:102A1000CF911F910F91B6CCCF93DF93CDB7DEB797
:102A20002C970FB6F894DEBF0FBECDBF19821A8265
:102A30001B821C821D821E821F82188619861A869E
:102A40001B861C86AE014F5F5F4FBC018BE592E099
:102A50000E94C3A22C960FB6F894DEBF0FBECDBF66
:102A6000DF91CF9108950F931F938091670A813072
:102A700019F50E9496790091A4031091A503209165
:102A8000A6033091A703601B710B820B930B28EEFA
:102A900033E040E050E00E94F0B46091A0037091F8
:102AA000A1038091A2039091A303620F731F841F5F
:102AB000951F1F910F9108956091A8037091A9032C
:102AC0008091AA039091AB03D6CF8091670A8130A1
:102AD00079F482E08093670A0E9496796093A80354
:102AE0007093A9038093AA039093AB0381E00895A8
:102AF00080E008958091730390917403009731F002
:102B00004AE050E070E060E00C9431AD60E070E0CD
:102B1000CB0108958091730390917403009731F075
:102B20004AE050E070E060E00C9405AC60E070E0DA
:102B3000CB010895EFDF97FD0AC0ECDF6F3F710511
:102B40008105910509F02CF4E5DF862F089580E0DA
:102B500008958FEF0895CF93C62F68DE882311F074
:102B6000CF91E8CF8C2FCF910895809173039091EE
:102B70007403892B39F0DEDF91E0811101C090E010
:102B8000892F089591E0FCCFCF93DF93C82FD62FE4
:102B90004DDE882319F0DF91CF91E7CF8C2FF8DD40
:102BA000811101C08D2FDF91CF910895B3DFCB014B
:102BB0000895CF93DF93EB0139DE882319F0DF917D
:102BC000CF91F4CFCE01DF91CF9108950F931F9352
:102BD000CF938091730390917403009709F1FC01E6
:102BE0008F01C1912C2F2F7DA1F0C53431F0C53656
:102BF00021F0C83511F0C83799F7F801108270E05C
:102C000060E00E94AFAAF801C083CF911F910F919D
:102C1000089570E060E0CF911F910F910C94AFAADE
:102C200060E070E0CB01F1CFCF92DF92EF92FF92A4
:102C30006A017B01FBDD882329F0FF90EF90DF9094
:102C4000CF90C4CFC701B601FF90EF90DF90CF9037
:102C500008954F925F926F927F92AF92BF92CF9200
:102C6000DF92EF92FF920F931F93CF93DF9382E057
:102C7000A82E83E0B82E0BE512E0C9E6DAE090E07A
:102C8000C92E91E1D92EF12CF50181915F01CEDDA4
:102C9000882339F09BDF2B013C018091CD0A8823EA
:102CA00051F0F80180819181A281B3818883998359
:102CB000AA83BB8312C08F2D3EDD882309F463C035
:102CC000F8012081318142815381C301B2010E9408
:102CD0007AB5688379838A839B83F3940C5F1F4F53
:102CE0002496F4E0CF0ED11C83E0F812CDCF85E41A
:102CF0009DDD882309F451C069DF6B017C0183E00D
:102D00001ADD882371F020916702309168024091AA
:102D1000690250916A02C701B6010E947AB56B013F
:102D20007C01C092750AD092760AE092770AF092FE
:102D3000780A40E050E0BA0186E476DF20E030E037
:102D4000A9010E94A1B718167CF440DF20E030E012
:102D500040E752E40E9456B6609313027093140247
:102D60008093150290931602DF91CF911F910F91DE
:102D7000FF90EF90DF90CF90BF90AF907F906F90DB
:102D80005F904F900895F6012081318142815381F7
:102D9000C301B2010E9479B59CCF809167029091E6
:102DA0006802A0916902B0916A028093750A9093BB
:102DB000760AA093770AB093780ABBCF8F929F923E
:102DC000AF92BF92CF92DF92EF92FF92CF93DF93B9
:102DD000CDB7DEB760970FB6F894DEBF0FBECDBF9C
:102DE00080E090E0A6E1B3E48D839E83AF83B88753
:102DF0008D879E87AF87B88BE0919611F0919711E0
:102E000080809180A280B38020E030E040E450E4F4
:102E1000C501B4010E9479B56B017C0120E030E06E
:102E200040E251E40E94C6AE87FF06C0C12CD12CFF
:102E300090E2E92E91E4F92EC982DA82EB82FC82DB
:102E400020E030E046E953E4C501B4010E947AB5C0
:102E50006B017C0120E030E041E953E40E94A1B71E
:102E6000181634F4C12CD12C81E9E82E83E4F82E15
:102E7000C986DA86EB86FC8680E1FE013196ADEEEE
:102E8000B3E001900D928A95E1F760960FB6F89441
:102E9000DEBF0FBECDBFDF91CF91FF90EF90DF90EF
:102EA000CF90BF90AF909F908F900895CF93DF9376
:102EB0008091D303811119C0C0911902D0911A02D7
:102EC000219720E030E040E05FE360913E11709197
:102ED0003F1180914011909141110E947AB50E945A
:102EE000BEB621E06C177D070CF020E0822FDF9149
:102EF000CF9108954F925F926F927F928F929F929F
:102F0000AF92BF92CF92DF92EF92FF920F931F93F7
:102F1000CF93DF93CDB7DEB76E970FB6F894DEBFD1
:102F20000FBECDBF9E8F8D8F5B018A01FC01FF9686
:102F300020813181428153812D833E834F83588785
:102F4000CA01B9010E94CAAE6B017C01D5012D9165
:102F50003D914D915C910E942BAF0E9440B62B0198
:102F60003C01F8012081318142815381C701B601C2
:102F70000E942BAF0E9440B64B015C01C301B2011D
:102F80000E94C3B669877A878B879C8768377105EB
:102F90008105910540F428E730E040E050E02987C2
:102FA0003A874B875C87C501B4010E94C3B6698329
:102FB0007A838B839C83683771058105910540F482
:102FC00088E790E0A0E0B0E089839A83AB83BC837C
:102FD000AD8DBE8D95964D905D906D907C9098973F
:102FE000FD01E55BFF4F60817181828193816115F5
:102FF00071058105910509F45BC10E94CCAE6D8716
:103000007E878F87988B9B01AC0160E070E080E841
:103010009FE30E9456B620E030E040E05FE30E946C
:103020002BAF4B015C01A7019601C701B6010E94BD
:103030002BAF6B017C0169817A818B819C810E941D
:10304000CAAE9B01AC010E942BAF9B01AC01C70132
:10305000B6010E9479B5A50194010E942BAF6D8B3A
:103060007E8B8F8B988F69857A858B859C850E9456
:10307000CAAE9B01AC010E942BAF698B7A8B8B8B04
:103080009C8B9B01AC01C701B6010E9479B5A501DB
:1030900094010E942BAF698F7A8F8B8F9C8F0E9437
:1030A00040B60E94C3B66B017C016D897E898F8911
:1030B000988D0E94EFB60E94C3B64B015C01D70108
:1030C000C601880D991DAA1DBB1DA3019201281BD5
:1030D000390B4A0B5B0BDA01C901B7FF5DC0C301B5
:1030E000B2010E94CAAE298D3A8D4B8D5C8D0E9433
:1030F0007AB52D893E894F89588D0E9479B520E097
:1031000030E040E05FE30E942BAF0E9440B66B01CD
:103110007C0120E030E0A9010E94A1B718161CF044
:10312000C12CD12C7601C701B6010E94C3B66B0138
:103130007C014C145D046E047F0410F47301620181
:10314000530142018C189D08AE08BF08C701B601A3
:103150000E94CAAE6D837E838F8398872D853E85BE
:103160004F855889CA01B9010E947AB59B01AC010B
:103170006D817E818F8198850E942BAF29893A8944
:103180004B895C890E947AB50E94E7B70E94C3B65A
:103190006D837E838F839887AD8DBE8D9996CD92FA
:1031A000DD92ED92FC929C97D301C2018819990996
:1031B000AA09BB09ED8DFE8D85A796A7A7A7B0AB81
:1031C000ED5BFF4F29853A854B855C8520833183F4
:1031D00042835383ED8DFE8DE95BFF4F89819A8198
:1031E000AB81BC8180839183A283B383ED8DFE8DFF
:1031F00086A997A9A0ADB1AD892B8A2B8B2B09F499
:1032000040C061A172A183A194A10E94CAAE209185
:10321000B60A3091B70A4091B80A5091B90A0E9493
:103220002BAF6B017C01C301B2010E94CAAE9B01AE
:10323000AC01C701B6010E9456B66B017C016D81DD
:103240007E818F8198850E94CAAEA70196010E9457
:103250002BAF0E94C3B6AD8DBE8DDC967C936E9372
:10326000DB9769817A818B819C810E94CAAEA7011C
:1032700096010E942BAF0E94C3B6ED8DFE8D76AFF6
:1032800065AF6E960FB6F894DEBF0FBECDBFDF916F
:10329000CF911F910F91FF90EF90DF90CF90BF9053
:1032A000AF909F908F907F906F905F904F90089518
:1032B000812C912C5401C12CD12C76016DCF8091A1
:1032C0009B1190919C11891B8F7019F490E080E004
:1032D000089590919811992351F0833030F48FEF35
:1032E000890F19F080939811F1CF10929811809165
:1032F0009C1120E5829FC0011124895E944FFC013E
:10330000208120FDE3CF20919C112F5F2F7020930F
:10331000991130919C1120919A11321304C020917F
:10332000991120939A11089590916F0081E091FD79
:1033300002C080E0089590916F009D7F90936F0090
:103340000895EFE6F0E08081826080830895CF9257
:10335000DF92EF92FF92CF93DF93C82FE5DF94E0E7
:10336000C99FE0011124FE01EE5EFB4FC080D180B9
:10337000E280F3808111E5DFC554D54FC701B60166
:103380000E94CCAE288139814A815B810E942BAF9B
:10339000DF91CF91FF90EF90DF90CF900895CF9382
:1033A000DF9380E0D4DFC0EBD3E0688379838A8346
:1033B0009B8381E0CCDF6C837D838E839F8382E05F
:1033C000C6DF688779878A879B87DF91CF910895C9
:1033D000CF92DF92EF92FF92CF93DF93C82FA4DFBB
:1033E00094E0C99FE0011124FE01EA5FFB4FC08019
:1033F000D180E280F3808111A4DFC554D54FC7018D
:10340000B6010E94CCAE288139814A815B810E943D
:103410002BAFDF91CF91FF90EF90DF90CF90089589
:10342000CF93DF93CDB7DEB72C970FB6F894DEBFFE
:103430000FBECDBF0E94337277DF9CE0E2E1F4E083
:10344000DE01119601900D929A95E1F7811179DFD5
:10345000CE0101960E94797F2C960FB6F894DEBFBC
:103460000FBECDBFDF91CF9108952F923F924F9223
:103470005F926F927F928F929F92AF92BF92CF9204
:10348000DF92EF92FF920F931F93CF93DF9300D0C1
:1034900000D01F92CDB7DEB780915B0290915C02A5
:1034A000A0915D02B0915E028A839B83AC83BD8351
:1034B00040905F02509060026090610270906202E2
:1034C0008090630290906402A0906502B0906602C2
:1034D000C0906702D0906802E0906902F0906A02A2
:1034E0000E94C21181E0809345110E94101200E2F7
:1034F00013E1ADE1B2E0BF83AE8384E1282E83E126
:10350000382E1982898114D8C8013CD9EE81FF81F7
:103510006193719381939193FF83EE83C10132D9BB
:10352000AE81BF8118966D937D938D939C931B976D
:10353000B981BF5FB9830C5F1F4FE4E02E0E311CD1
:10354000B33001F746DA2A813B814C815D8160917D
:103550005B0270915C0280915D0290915E020E941C
:10356000C6AE81112AC0A301920160915F027091E1
:10357000600280916102909162020E94C6AE811148
:103580001CC0A50194016091630270916402809156
:103590006502909166020E94C6AE81110EC0A7011D
:1035A0009601609167027091680280916902909122
:1035B0006A020E94C6AE8823C9F027960FB6F89417
:1035C000DEBF0FBECDBFDF91CF911F910F91FF9056
:1035D000EF90DF90CF90BF90AF909F908F907F90B3
:1035E0006F905F904F903F902F901ACF27960FB615
:1035F000F894DEBF0FBECDBFDF91CF911F910F9129
:10360000FF90EF90DF90CF90BF90AF909F908F9002
:103610007F906F905F904F903F902F900895CF9341
:10362000DF931F92CDB7DEB7898360E0CE010196AC
:103630000E94771261E0CE0101960E94771262E04B
:10364000CE0101960E94771289810F90DF91CF9170
:1036500008951F93CF93DF93CDB7DEB760970FB672
:10366000F894DEBF0FBECDBF182F99DE8091B00356
:103670009091B103A091B203B091B30389839A836F
:10368000AB83BC838091B4039091B503A091B60342
:10369000B091B7038D839E83AF83B8878091B803C1
:1036A0009091B903A091BA03B091BB0389879A871F
:1036B000AB87BC8783E04BDE6D877E878F87988BD7
:1036C0001E3F99F480E1FE013196ABE5B2E0019036
:1036D0000D928A95E1F760960FB6F894DEBF0FBEA3
:1036E000CDBFDF91CF911F91089524E0129FC001BB
:1036F0001124FC01E55AFD4FA1E0B0E0AC0FBD1F65
:103700008A0F9B1FDC014D915D916D917C914083EF
:10371000518362837383DFCF0C94B6738091AF03C0
:10372000659968C081608093AF0390910301809197
:10373000AF0391FD61C082608093AF038091AF03BE
:103740004B995CC084608093AF038091AF039091EC
:10375000AE03981709F454C092E09093AD038093A0
:10376000AE0380914204811105C08091660A8823CE
:1037700009F453C08091050480FF10C08091430478
:1037800080FF0CC08091AC0380FF08C08091650A67
:1037900081608093650A80E00E94A67F8091050485
:1037A00081FF10C08091430481FF0CC08091AC0365
:1037B00081FF08C08091650A82608093650A81E07C
:1037C0000E94A67F8091050482FF27C08091430458
:1037D00082FF23C08091660A8823F9F08091AC03B0
:1037E00082FF1BC08091650A84608093650A82E035
:1037F0000C94A67F8E7F97CF8D7F9ECF8B7FA3CF9C
:103800008091AD03882309F4ACCF81508093AD0340
:103810008111A7CF9093AC03A4CF08958091650A3E
:10382000882319F01092650A089560E087E392E119
:103830000E94508E1092670A1092A4031092A50362
:103840001092A6031092A7031092A8031092A90346
:103850001092AA031092AB031092A0031092A1033E
:103860001092A2031092A30308958091670A8130F9
:10387000E1F08230C1F4F7D86093A0037093A10304
:103880008093A2039093A30381E08093670A0E9430
:1038900096796093A4037093A5038093A6039093F5
:1038A000A70381E00895C6DFEFCF80E008958091FF
:1038B000670A8150823070F41092670A0E949679EC
:1038C0006093A8037093A9038093AA039093AB031A
:1038D00081E0089580E00895CF93DF93C0911611A1
:1038E000D0911711209729F1609112117091131145
:1038F00080911411909115110E94BEB66E5F7F4F9A
:1039000024976C177D07ACF4709324046093230410
:103910000E949679605A75418F4F9F4F609325049E
:10392000709326048093270490932804DF91CF910D
:1039300008951092250410922604109227041092E4
:103940002804F4CF8F929F92AF92BF92CF92DF92D2
:10395000EF92FF920F931F93CF93DF9310929C03EC
:1039600010929B032FE320939F0310929E031092CB
:103970009D0310929703109298031092990310924E
:103980009A039C01F90190812F5F3F4F9032D1F350
:103990009E34C9F4818190ED980F9A3020F08D32D9
:1039A00011F08B3281F432969F012F5F3F4F80815F
:1039B00080538A3008F46BC09F012F5F3F4F808196
:1039C000803209F466C0F0938F0AE0938E0A8F016B
:1039D0000F5F1F4FC0816AE270E0C8010E9448B8C3
:1039E000009731F0FC01319780818032E1F3118240
:1039F000CD3421F0C43511F0C734E1F5F8018081F0
:103A00000F5F1F4F8032D1F380538A3098F5C093F7
:103A10009F0330E020E06AE0AF014F5F5F4F629F9D
:103A2000C001639F900D11249C01205331098081B6
:103A3000280F311D87FD3A95FA01808180538A3025
:103A400058F330939E0320939D03DF0131968C91B0
:103A50008032D9F3CD3449F52E31310539F0D8F41F
:103A60002731310519F02C313105F9F4B0939C035D
:103A7000A0939B03DF91CF911F910F91FF90EF9047
:103A8000DF90CF90BF90AF909F908F900895F901F5
:103A90008BCFF90191CF2537310538F02737310524
:103AA00028F3203A83E0380709F3D0918E0A40E0EA
:103AB00050E0BA0110E000E0C12CD12C7601C39493
:103AC000FD0131968C91882309F47FC08132E1F4A5
:103AD000CD34D1F420323105B9F44093970350939B
:103AE00098036093990370939A03F0939C03E09377
:103AF0009B0363E270E0CF010E9448B8009709F48D
:103B0000B9CFFC011082B6CF81548A3108F058C079
:103B1000DF019D91903291F0A0EDA90FAA30E8F05D
:103B20009E3271F4918190539A30B8F001151105CD
:103B300019F48F010150110990E013C0FD01E8CF85
:103B40009D3211F09B3291F79181A0EDA90FAA301F
:103B500020F09E3259F79281E6CF9E2F9D1B309721
:103B600059F3A82FB0E04601570104C0880C991CF6
:103B7000AA1CBB1C8A95D2F7482959296A297B2996
:103B8000A358BC4F9C9380818154DF018A3108F493
:103B900097CFDF018191882309F492CF90ED980FA0
:103BA0009A30B8F393ED980F923098F38B3289F3F3
:103BB000CD010196EC91E03209F082CFDC01F8CF23
:103BC0000115110501F78D01DECF10939C030093C1
:103BD0009B034093970350939803609399037093CA
:103BE0009A0348CFCF93DF93C0914211D0914311F4
:103BF000209729F160913E1170913F118091401101
:103C0000909141110E94BEB66E5F7F4F24976C1752
:103C10007D07ACF470933C0460933B040E9496795A
:103C2000605C73468F4F9F4F60933D0470933E04DA
:103C300080933F0490934004DF91CF9108951092B8
:103C40003D0410923E0410923F0410924004F4CFC1
:103C5000843021E0920714F084E091E090934311C6
:103C600080934211BFCFCF93DF93EC01688170E066
:103C700085E00E949872698170E084E00E949872E9
:103C80006A8170E086E00E94987288819981482F4D
:103C9000490F5527551F8A81840F952F911D21E0CB
:103CA000833091050CF420E02093220403974CF01C
:103CB00088819981AA818093BD119093BE11A093B0
:103CC000BF11DF91CF9108958F929F92AF92BF92D3
:103CD000CF92DF92EF92FF92CF93DF9300D0CDB7D8
:103CE000DEB72FEF8417950731F16A01052E000C1E
:103CF000EE08FF084C01092E000CAA08BB08681743
:103D000079072CF0CB01461757070CF4CA019C0128
:103D1000990F440B550B281939094A095B09AFEF74
:103D2000B0E00E942EB5A7019601281939094A0969
:103D30005B090E9412B580913504821751F02093DF
:103D400035048FEF89831A8220952B83CE0101964B
:103D50008ADF0F900F900F90DF91CF91FF90EF903F
:103D6000DF90CF90BF90AF909F908F9008958F92EB
:103D70009F92AF92BF92CF92DF92EF92FF92CF933A
:103D8000DF9300D0CDB7DEB72FEF8417950731F161
:103D90006A01052E000CEE08FF084C01092E000CEC
:103DA000AA08BB08681779072CF0CB0146175707FC
:103DB0000CF4CA019C01990F440B550B28193909C1
:103DC0004A095B09AFEFB0E00E942EB5A70196014A
:103DD000281939094A095B090E9412B580913504F6
:103DE000821749F02093350429831A828FEF8B8341
:103DF000CE01019638DF0F900F900F90DF91CF9199
:103E0000FF90EF90DF90CF90BF90AF909F908F90FA
:103E10000895CF92DF92EF92FF926B017C0183E3D2
:103E2000C816D104E104F10470F082E3C81AD10885
:103E3000E108F10862E370E080E090E00E94FC7825
:103E40000E942690ECCFC701B6010E94FC78FF903B
:103E5000EF90DF90CF900C942690809142048111D6
:103E600004C08091660A882329F062E070E080E057
:103E700090E0CFCF08958091680A811119C0809198
:103E8000670A8230A9F0109277031092780310929B
:103E9000790310927A0310927B038FEF0E946214D1
:103EA00010926003109261031092620310926303F8
:103EB000DCCC81E00895CF93DF93EC01E62F660F11
:103EC000FF0BEB56FF4DE491E250E13108F0B0C03A
:103ED000F0E08827E159F04E8F4F0C9461B5801FB8
:103EE0001820182018201820AA1F8C1FCE1FCC1FA6
:103EF000AC1FF21FF01FD01F182016201420F41F33
:103F000082E1EFE6F2E0DE0101900D928A95E1F7A1
:103F1000CE01DF91CF91089581E020EB30E039832D
:103F2000288321EB30E03B832A831D821C8223EB14
:103F300030E03F832E8324EB30E0398728871B86CF
:103F40001A861D861C8692E09E878F8781E0888B6B
:103F5000198ADECF80E0E1CF81E08F5F20E930E099
:103F60003983288321E930E03B832A8322E930E04A
:103F70003D832C8328E930E03F832E832AE930E01B
:103F8000398728872CE930E03B872A8726E930E00B
:103F90003D872C8793E0D8CF80E0DFCF80E0DECF75
:103FA00081E08F5F20EA30E03983288321EA30E026
:103FB0003B832A8322EA30E03D832C8328EA30E0E9
:103FC0003F832E832AEA30E0398728872CEA30E0C5
:103FD0003B872A8726EA30E03D872C8794E0B4CFE0
:103FE00080E0DFCF80E0DECF81E08F5F20E231E054
:103FF0003983288321E231E03B832A8322E231E0C6
:104000003D832C8328E231E03F832E832AE231E096
:10401000398728872CE231E03B872A8726E231E086
:104020003D872C8795E090CF80E0DFCF80E0DECF2A
:1040300082E1FE0111928A95E9F76ACF9091C10061
:1040400095FD0CC09091C00095FF08C08093C600FC
:104050008091C00080648093C00008952091410346
:104060002F5F2F700FB607FC27C090914203921369
:1040700028C09091C00095FF1EC0909142034091CE
:104080004103941306C09091C1009F7D9093C1009D
:1040900012C0E92FF0E0EF5BFC4F32819F5F9F7011
:1040A0003093C600909342033091C0003064309347
:1040B000C000491741F3D9CF90914203921301C038
:1040C000FBCFE0914103F0E0EF5BFC4F8283209354
:1040D00041038091C10080628093C1000895CF9315
:1040E000DF93EC018991882311F0A8DFFBCFDF91EA
:1040F000CF910895F4DF8DE0A1DF8AE09FCFCF93C9
:10410000DF93EC01FE0184912196882311F096DF64
:10411000F9CFDF91CF9108950F931F93CF938C0127
:10412000C62F83EC9CE0EBDFC801E9DF8AE386DF82
:1041300080E38C0F83DF8AE0CF911F910F917ECFB8
:10414000CF92DF92EF92FF926A017B01D8DFC70125
:10415000B6010E9419728AE0FF90EF90DF90CF9035
:104160006DCFAF92BF92CF92DF92EF920F931F93DA
:10417000CF93DF935B01EA016901882309F45AC0F8
:1041800081E297E0BCDFF5016081718182819381DA
:1041900046E00E94CB7AE1100AC088E197E0AFDFE9
:1041A000688179818A819B8146E00E94CB7A81E196
:1041B00097E0A5DFF601608171818281938143E000
:1041C0000E94CB7A8AE097E09ADFF80160817181E2
:1041D0008281938143E00E94CB7A81E097E08FDF78
:1041E000F6012081318142815381F8016081718122
:1041F000828193810E9479B543E00E94CB7AEE20C0
:10420000D9F08AE01BDF8CEE96E079DF6881798156
:104210008A819B8146E00E94CB7A8AE00FDF8AE0A8
:10422000DF91CF911F910F91EF90DF90CF90BF90D2
:10423000AF9004CFE110E7CFDF91CF911F910F91A5
:10424000EF90DF90CF90BF90AF9008950F931F93A2
:10425000CF938C01C62F81E394E051DFC8014FDF7B
:10426000CC2329F08AE0CF911F910F91E7CECF9117
:104270001F910F9108950F931F93CF938C01C62F19
:1042800060E08EE499E0E2DFC80139DFCC2329F059
:104290008AE0CF911F910F91D1CECF911F910F91B5
:1042A000089561E087E594E0E6CFCF93DF93EC01DA
:1042B00060E08EE499E0CADF8BE594E020DF80E2E5
:1042C000BDDECE011CDF8AE0DF91CF91B7CEDF9259
:1042D000EF92FF920F931F93CF93DF93D82E7B0122
:1042E0008A01E901DEDFD092890A60E080EE91E286
:1042F000C2DF80E2A3DEC70102DF8AE09FDE011594
:10430000110511F0C801D1DF209711F0CE01CDDFEA
:1043100061E08BED91E2DF91CF911F910F91FF90C2
:10432000EF90DF90A8CFCF93DF93EC0160E08BE3B9
:1043300094E08CDFCE01D3DE8DE080DE8AE0DF9179
:10434000CF917CCE8AE294E0DACE84E294E0D7CEBC
:10435000CF92DF92EF92FF920F931F93CF93DF9351
:10436000CDB7DEB7A6970FB6F894DEBF0FBECDBFB0
:10437000182F55D9812309F467C040913403509117
:10438000350360913603709137034F8F58A369A3AB
:104390007AA330E020E0E0E090E0AC01022E02C021
:1043A000559547950A94E2F740FF11C063E270E02B
:1043B0006C0F7D1F6E0F711D4FE150E04C0F5D1FA4
:1043C000420F531FDA014C91DB014C93EF5F2F5FDB
:1043D0003F4F2330310509F78E010D5D1F4FE00F70
:1043E000F12FF11D10821F930F938DEBC82E82E1E8
:1043F000D82EDF92CF92CE0101967C019F938F93AE
:104400000E9497AEA2DFC70175DE1F930F93DF9264
:10441000CF92FF92EF920E9497AEC70184DF0FB652
:10442000F894DEBF0FBECDBF81E0A6960FB6F8941C
:10443000DEBF0FBECDBFDF91CF911F910F91FF90D7
:10444000EF90DF90CF90089580E0EFCF811101C011
:104450007CCF0895CF9384E50E941614C0E0882392
:10446000E9F00E949A15C82F1816C4F46EDF8DE487
:10447000E5DD60919D0370919E0390E080E00E94D5
:10448000AF718DEF98E03BDE6C2FCC0F770B880B74
:10449000990B0E9419728AE0D1DDCFEF8C2FCF915A
:1044A0000895FF920F931F93CF93DF939091CE0ABD
:1044B00093FD60C0C82FCEDFD82F87FD5BC083E59A
:1044C0000E941614182F882309F446C00E94D6159E
:1044D000BFDB61E08C2F0E940E7C01E083E50E942F
:1044E0001614882331F00E94D61590931002809301
:1044F0000F0282E40E941614882331F00E94D61520
:1045000090930E0280930D0286E40E94C8138823C4
:1045100069F10E94E6156093090270930A02809384
:104520000B0290930C02FF24F39420E030E0A901E9
:104530000E94C6AE811101C0F12CF0923A04CC2346
:10454000C9F00023B9F0612F8D2FDF91CF911F911A
:104550000F91FF900C947E7CC11102C000E0BECF91
:1045600082E50E9416148111B1CFF8CF60E070E0AF
:10457000CB01D1CFDF91CF911F910F91FF90089583
:104580000F931F93CF93811111C0C42F8B01DDDED8
:104590008AEF98E0B4DDC801B2DDCC2339F08AE3BC
:1045A0004DDD8AE0CF911F910F9148CDCF911F91A2
:1045B0000F910895CF92DF92EF92FF926A017B01F3
:1045C0009EDD44E0C701B601FF90EF90DF90CF90F1
:1045D0000C94CB7A4F925F926F927F928F929F92C0
:1045E000AF92BF92CF92DF92EF92FF92CF93DF9381
:1045F000CDB7DEB7E0970FB6F894DEBF0FBECDBFE4
:1046000084E09FE07CDD8AE019DD60E084EF9EE0DD
:1046100083DD60E08FED9EE07FDD61E088ED9EE070
:104620007BDD61E08DEC9EE077DD61E08EEB9EE06E
:1046300073DD61E08EEA9EE06FDD60E085EA9EE07A
:104640006BDD61E08BE99EE067DD60E081E99EE083
:1046500063DD60E08AE89EE05FDD61E082E89EE085
:104660005BDD60E084E79EE057DD61E086E69EE08A
:1046700053DD60E087E59EE04FDD60E089E49EE089
:104680004BDD60E083E39EE047DD61E082E29EE097
:1046900043DD61E08DE09EE03FDD61E08EEF9DE077
:1046A0003BDD60E087EF9DE037DD60E080EF9DE07F
:1046B00033DD60E087EE9DE02FDD60E082ED9DE080
:1046C0002BDD60E084EC9DE027DD60E08AEB9DE07F
:1046D00023DD60E083EA9DE01FDD60E086E99DE088
:1046E0001BDD61E083E89DE017DD60E086E79DE08B
:1046F00013DD61E081E79DE00FDD61E084E69DE090
:104700000BDD60E080E59DE007DD60E08DE39DE08E
:1047100003DD60E081EC91E10E949813682F6170E5
:1047200084E39DE0F9DC60E086E29DE0F5DCCE010B
:1047300001962CE0FC0111922A95E9F72CE0E1E8C2
:10474000F2E0DE011D9601900D922A95E1F70E949C
:10475000B812CE010D960E94B812E0E0F1E140805F
:1047600051806280738084809580A680B780C084E9
:10477000D184E284F38429813A814B815C81C30135
:10478000B2010E947AB5698F7A8F8B8F9C8F2D81B1
:104790003E814F815885C501B4010E947AB56D8F65
:1047A0007E8F8F8F98A329853A854B855C85C701BD
:1047B000B6010E947AB569A37AA38BA39CA32D8529
:1047C0003E854F855889C301B2010E947AB56DA319
:1047D0007EA38FA398A729893A894B895C89C50153
:1047E000B4010E947AB569A77AA78BA79CA72D89E7
:1047F0003E894F89588DC701B6010E947AB56DA7D1
:104800007EA78FA798AB20E030E040E450E4C301DE
:10481000B2010E9479B5AB01BC0182E19DE0CADE24
:1048200020E030E040E450E4C501B4010E9479B5D5
:10483000AB01BC018EE09DE0BDDE20E030E0A901CF
:10484000C701B6010E947AB5AB01BC018AE09DE0C8
:10485000B1DE20E030E046E953E4C301B2010E943A
:104860007AB5AB01BC0180E09DE0A4DE20E030E041
:1048700046E953E4C501B4010E947AB5AB01BC011D
:104880008CEF9CE097DE20E030E048EC53E4C70179
:10489000B6010E947AB5AB01BC0188EF9CE08ADECC
:1048A000498D5A8D6B8D7C8D87EE9CE083DE4D8D1E
:1048B0005E8D6F8D78A183EE9CE07CDE49A15AA1CC
:1048C0006BA17CA18FED9CE075DE4DA15EA16FA177
:1048D00078A585ED9CE06EDE49A55AA56BA57CA563
:1048E00081ED9CE067DE4DA55EA56FA578A98DECF6
:1048F0009CE060DE88EC9CE002DCE0960FB6F89469
:10490000DEBF0FBECDBFDF91CF91FF90EF90DF9064
:10491000CF90BF90AF909F908F907F906F905F905F
:104920004F900895CF93DF93C82F41E066E878E079
:1049300027DE8C2F8BDDCAE3D1E148A159A16AA102
:104940007BA18DE798E036DE2CEA35EC47E25EE3AA
:104950006CA17DA18EA19FA10E9456B6AB01BC01A6
:104960008AE798E027DE2CEA35EC47E25EE368A5AB
:1049700079A58AA59BA50E942BAFAB01BC0187E757
:1049800098E018DE8AE0DF91CF9158CB13DE8AE001
:1049900055CBCF93DF9360E87CE00E940B74C5E4B5
:1049A000D4E0488159816A817B8187E79CE002DEFF
:1049B0004C815D816E817F818BE492E2FBDD4885D5
:1049C00059856A857B8588E492E2DF91CF91DECFBD
:1049D0000F931F93CF93DF93C82F64EC78E00E946E
:1049E0000B7408E711E1F801408151816281738104
:1049F00089EB98E0DFDDF80144815581668177819C
:104A000086EB98E0C3DF8C2F21DDC6E6D1E148813B
:104A100059816A817B818BEA98E0CCDD4C815D8194
:104A20006E817F8188EA98E0DF91CF911F910F918D
:104A3000ADCFCF93DF9360EA78E00E940B74CEE0B5
:104A4000D1E148A159A16AA17BA187E998E0B2DD33
:104A50002CEA35EC47E25EE36CA17DA18EA19FA11B
:104A60000E9456B6AB01BC0184E998E0A3DD2CEAB4
:104A700035EC47E25EE368A579A58AA59BA50E946F
:104A80002BAFAB01BC0181E998E0DF91CF917ECFE4
:104A9000CF93DF936EEF77E00E940B746091DF0A93
:104AA0007091E00A8091E10A9091E20A0E94CAAEF8
:104AB000AB01BC0185EF97E07DDD40910F0B50917C
:104AC000100B6091110B7091120B82EF97E072DD69
:104AD0004091130B5091140B6091150B7091160BB4
:104AE0008FEE97E067DDC6EADAE0488159816A8196
:104AF0007B8181E29AE05EDD4C815D816E817F8108
:104B00008BE492E257DD488559856A857B8588E488
:104B100092E250DD4C855D856E857F8585E492E26D
:104B2000DF91CF9133CFCF93DF9365EA77E00E9497
:104B30000B74CFECDAE04CA95DA96EA97FA98CE9D2
:104B400097E038DD48AD59AD6AAD7BAD89E997E0B6
:104B500031DD4CAD5DAD6EAD7FAD8FEE97E0DF9199
:104B6000CF9114CFCF93DF9361E877E00E940B746D
:104B7000CFECDAE04CA15DA16EA17FA188E797E0C0
:104B800019DD48A559A56AA57BA58BE492E212DD43
:104B90004CA55DA56EA57FA588E492E20BDD48A932
:104BA00059A96AA97BA985E492E2DF91CF91EECE63
:104BB000CF93DF936CE577E00E940B74CFECDAE0E3
:104BC000688179818A819B810E94CAAEAB01BC0158
:104BD00083E597E0EFDC6C817D818E819F810E946F
:104BE000CAAEAB01BC018BE492E2E4DC6885798556
:104BF0008A859B850E94CAAEAB01BC0188E492E223
:104C0000D9DC6C857D858E859F850E94CAAEAB01FF
:104C1000BC0185E492E2DF91CF91B8CECF938111B0
:104C20000EC040E061E477E0ABDC8091EC038111E1
:104C300003C084E397E063DA8AE000DA86DBC091A0
:104C4000EC038BE297E05BDA6C2F70E090E080E0A1
:104C50000E9419724091E8035091E9036091EA03C0
:104C60007091EB0388E297E0CF9190CECF93DF93E2
:104C7000EB0145DABE01DD0F880B990BDF91CF9177
:104C80000C9419721F93CF93DF93182F41E067ECB8
:104C900075E076DC812FDADB61E070E08EEB95E089
:104CA000E5DFCDEED3E0488159816A817B8181E2E5
:104CB0009AE080DC4C815D816E817F818BE492E2A1
:104CC00065DE812FC3DB62E070E08EEB95E0CEDF26
:104CD000488559856A857B8581E29AE06BDC4C8545
:104CE0005D856E857F858BE492E2DF91CF911F9188
:104CF0004DCE05DA8AE0A2C9CF93C82FCB01FFD9E8
:104D000084E592E1FCD985E492E1CC2311F08AE4B8
:104D100092E1CF91EECFCF9389E692E1F0D98CB1B9
:104D2000C1E085FB882780F963E672E18C27E4DF28
:104D300080910301869581706DE572E18C27DCDF3F
:104D400089B183FB882780F967E572E18C27CF91D1
:104D5000D3CFCF93DF9365E170E10E940B74C091D4
:104D60009611D0919711488159816A817B818CE09D
:104D700090E120DC4C815D816E817F818BE492E249
:104D800019DC40919211509193116091941170919E
:104D9000951188E492E20EDC89E090E1B0D984E9D3
:104DA00093E1DF91CF91A5CFCF93DF93C82F41E05F
:104DB00065EE78E0E5DB8C2F49DBC0EED3E04C817B
:104DC0005D816E817F818CED98E0F4DB48815981B3
:104DD0006A817B8189ED98E0EDDB86ED98E08FD9E3
:104DE00084E993E1DF91CF9184CFCF93C82F41E045
:104DF00069EE73E1C5DB8C2F29DB81EE93E17FD96E
:104E000084E993E176DF41E06FEC73E18C2FB8DB4E
:104E10008C2F1CDB82EB93E172D98C2FFFDE8C2F61
:104E20000E9414748C2F9EDE8C2FC2DE8C2F7BDEB2
:104E30008C2F2EDE8C2FADDD8C2F24DF8C2F72DD9E
:104E40008C2FF7DD8C2F85DF8C2FC2DD41E063EAEC
:104E500073E18C2F95DB8C2FF9DA4091B60A5091D3
:104E6000B70A6091B80A7091B90A8AE993E18EDDB8
:104E70008C2FCF9199CFCF93DF93EC0160E089E441
:104E800094E0E4D9CE01DF91CF9133CF2F923F92BE
:104E90004F925F926F927F928F929F92AF92BF924A
:104EA000CF92DF92EF92FF920F931F93CF93DF93F6
:104EB000CDB7DEB7C758D1090FB6F894DEBF0FBE25
:104EC000CDBF2DB73EB7CA57DF4F39832883C658A9
:104ED000D04041E064E070E0CE0183589F4F0E94D3
:104EE000D67343E050E0BE0163587F4F8AE093E001
:104EF0000E945AB8892B71F1C058DF4F8881C05881
:104F0000D040882339F08FE3EE968FAFEE97EF967F
:104F10001FAEEF971ADA8EEF94E1F1D8CE018358E5
:104F20009F4FDDD880EF94E1EAD88BED94E1A3DFC9
:104F300081E08093FE038091FD03811106C0809182
:104F40004404833010F080E050DF8091FE0391E054
:104F5000892714C041E064E070E0CE018B589F4F78
:104F60000E94D673E9968CAD9DADAEADBFADE9970D
:104F70008638944CA84BB34231F180E0CA57DF4FDA
:104F800028813981C658D0400FB6F8943EBF0FBE75
:104F90002DBFC957DF4F0FB6F894DEBF0FBECDBF90
:104FA000DF91CF911F910F91FF90EF90DF90CF9005
:104FB000BF90AF909F908F907F906F905F904F9039
:104FC0003F902F90089541E062E070E0CE018F574E
:104FD0009F4F0E94D673ED961CAE1DAE1EAE1FAE47
:104FE000ED9710920D1110920C11CE018D579F4F1D
:104FF0000E94CA14CDB6DEB6CD57DF4F0881C35824
:10500000D04010E00D5F1F4F000F111F000F111F48
:105010008DB79EB7801B910B0FB6F8949EBF0FBE45
:105020008DBFEDB7FEB731965F012DB73EB7201BA0
:10503000310B0FB6F8943EBF0FBE2DBF8DB79EB794
:1050400001964C01EDB7FEB7E01BF10B0FB6F894DB
:10505000FEBF0FBEEDBF2DB73EB72F5F3F4F7901AB
:10506000B801C5010E94CF144091FD0381E048279B
:1050700064E070E08FED9AE00E94D673B801C4013D
:105080000E94CF14B801C7010E94CF141091FD03F4
:1050900011114DC0CD57DF4F8881C358D04090E0EB
:1050A0000296AFECBAE070E060E030E020E047ED5F
:1050B00054E1821793070CF492C0F501E60FF71F35
:1050C00040805180628073804D925D926D927D929E
:1050D000821793070CF489C0F401E60FF71F2080B4
:1050E00031800281E3812101602E7E2E50964D9207
:1050F0005D926D927C925397821793070CF47FC058
:10510000F701E60FF71F208031800281E381210142
:10511000602E7E2E90964D925D926D927C9293972A
:105120002F5F3F4F6C5F7F4F2430310511F683E0D6
:105130009BE00E94A21487E09BE00E94A2148BE0F7
:105140009BE00E94A2148FE09BE00E94A21483E1E6
:105150009BE00E94A21441E0412760E170E086EAF2
:105160009AE00E94D673CE0187589F4F0E94A214E6
:105170000FB6F894DEBE0FBECDBE85E494E00E946B
:10518000C214CE0183599F4F0E94AA148E010F5F53
:105190001F4FC8010E94A214CE0187589F4F0E9442
:1051A000A214CE0187589F4F0E94A214C8010E94EA
:1051B000CA14CE0183599F4F0E94CA14E980AE964B
:1051C0008FADAE97E89E7001112431E0E31AF1082B
:1051D00000F1CE0187589F4F0E94A214F6CFFA012A
:1051E00045905590659074906FCFE7ECF4E1459051
:1051F0005590659074901201062DE72D74CFE7EB62
:10520000F4E145905590659074901201062DE72DBC
:105210007ECF8AE891E10E94C2148AE0F82EFA94C7
:10522000CE01FF2029F087589F4F0E94A214F7CF8C
:105230008C579F4F0E94CA14CE018B579F4F0E94DC
:10524000CA14C8010E94BA14CE0183599F4F0E940C
:10525000BA14CC57DF4FE880C458D040CB57DF4F4B
:105260008881C558D040E89E7001112491E0E91A68
:10527000F10830F0CE0187589F4F0E94A214F6CF5C
:10528000C8010E94B214CE0183599F4F0E94AA14F4
:105290004091FD03FF24F3944F2560E170E0C801C5
:1052A0000E94D673C8010E94B2144091FD034F259D
:1052B00060E170E08DEE93E00E94D6734091FD03B3
:1052C0004F2564E170E0C8010E94D673F090FD03A1
:1052D000F1103AC089809A80AB80BC80A50194010E
:1052E000C501B4010E9429B881112EC049845A8495
:1052F0006B847C846D817E818F81988580925A1128
:1053000090925B11A0925C11B0925D112CEA35EC89
:1053100047E25EE30E942BAF60935E1170935F11D2
:1053200080936011909361112CEA35EC47E25EE3C3
:10533000C301B2010E9456B660936211709363116B
:10534000809364119093651141E04F2562E070E015
:10535000C8010E94D673C8010E949A14F090FD0300
:10536000F1103AC089809A80AB80BC80A50194017D
:10537000C501B4010E9429B881112EC049845A8404
:105380006B847C846D817E818F81988580922E11C3
:1053900090922F11A0923011B09231112CEA35EC7D
:1053A00047E25EE30E942BAF60933211709333119A
:1053B00080933411909335112CEA35EC47E25EE38B
:1053C000C301B2010E9456B6609336117093371133
:1053D0008093381190933911C8010E949A14C80122
:1053E0000E94AA14C8010E94AA14C8010E94AA140B
:1053F00085E0F80111928A95E9F7EE24E3944F2DA8
:105400004E2565E070E0C8010E94D673C8010E9475
:10541000B2144091FD034E2560E270E0C8010E9485
:10542000D673CE0183599F4F0E94B2144091FD0361
:105430004E2569E070E0C8010E94D6734091FD03DB
:1054400041110FC089818093EC038A819B81AC81DB
:10545000BD818093E8039093E903A093EA03B0939E
:10546000EB03FF24F3944F2562E170E0C8010E9432
:10547000D6734091FD034F2564E270E0C8010E949D
:10548000D6734091FD034F2560E170E0C8010E9492
:10549000D6734091FD034F2562E070E0C8010E9481
:1054A000D673C8010E94A2144091FD0341110CC0A3
:1054B00089819A81AB81BC818093B60A9093B70AA7
:1054C000A093B80AB093B90AFF24F3944F2560E182
:1054D00070E0C8010E94D6734091FD034F256CE631
:1054E00070E0C8010E94D67319821A821B821C8246
:1054F0001D821E821F82188619861A861B861C86AC
:10550000C8010E949A144091FD034F2568E070E0A5
:1055100080EE93E00E94D673C8010E94C214CE01AF
:105520008C579F4F0E94AA14CE0183599F4F0E940F
:10553000A214C8010E949214B80180E00E94658004
:10554000BE016B5F7F4F80E00E94F980C8010E941E
:105550009214B80181E00E946580BE016B5F7F4FAD
:1055600081E00E94F9808091900A9091910A813F98
:10557000924059F10E94A22186EF93E10E947F2080
:10558000F092FE030E94A5216091900A7091910A09
:105590006456710983EA94E169DB8BE994E10E9426
:1055A0007F206DE872E080E090E00E94AF718AE0B9
:1055B0000E941E208091FD038111BDCC8091FE03CD
:1055C0008111B9CC0E94351AB6CC1092FE032091FD
:1055D0000C1130910D11CF57DF4F88819981C1583F
:1055E000D0402817390741F1F092FE030E94A22112
:1055F000CF57DF4F08811981C158D0408BE794E124
:105600000E947F20B80190E080E00E94AF7100917D
:105610000C1110910D1186E794E10E947F20B801D2
:1056200090E080E00E94AF7186E694E10E947F20C6
:1056300085E594E120DCBECF8091FD038111BACFD6
:105640000E94A5218AE093E00E946F206091900A59
:105650007091910A6456710988E394E107DBC09068
:105660000C11D0900D11F12CE12C8BE294E10E94F1
:105670007F20C701B6010E94AF7188E294E10E94C9
:105680007F208EE094E1D6CF84E690E09093910A5B
:105690008093900A10920D1110920C11F7CB8F92FB
:1056A0009F92AF92BF92CF92DF92EF92FF92CF93F1
:1056B000DF9300D01F92CDB7DEB7AFECBAE090E039
:1056C00080E0FC01E553FB4E459155916591749145
:1056D0004D935D936D937D93FC01E554FB4E459195
:1056E00055916591749150964D935D936D937C9314
:1056F0005397FC01E555FB4E459155916591749189
:1057000090964D935D936D937C939397049680311F
:105710009105B9F680E29EE4A0E0B0E08093DF0A54
:105720009093E00AA093E10AB093E20A80E090E04F
:10573000AAE7B4E48093030B9093040BA093050BAA
:10574000B093060B80E090E4ACE1B6E48093070BE5
:105750009093080BA093090BB0930A0B80E090E0A4
:10576000AAEFB4E480930B0B90930C0BA0930D0B5A
:10577000B0930E0B10920F0B1092100B1092110B96
:105780001092120B1092130B1092140B1092150B17
:105790001092160B80E090E0A0E0B1E48093A60A9E
:1057A0009093A70AA093A80AB093A90A8093AA0A83
:1057B0009093AB0AA093AC0AB093AD0A8AE999E939
:1057C000A9E9BEE38093AE0A9093AF0AA093B00A12
:1057D000B093B10A80E090E0A0E2B1E48093B20A15
:1057E0009093B30AA093B40AB093B50A10924D04F3
:1057F00010924E0410924F041092500410924904DB
:1058000010924A0410924B0410924C0410924504DA
:1058100010924604109247041092480410928A1184
:1058200010928B1110928C1110928D1110928E117A
:1058300010928F111092901110929111109292115A
:105840001092931110929411109295110E94DE16ED
:105850008EEA97E4A9E6B1E480935A1190935B1124
:10586000A0935C11B0935D1180EA92E4AFE3BEE3D4
:1058700080935E1190935F11A0936011B0936111BA
:1058800080ED9EE1AEE8B3E48093621190936311E2
:10589000A0936411B093651183EC95E3A4E7B3E49E
:1058A00080932E1190932F11A0933011B09331114A
:1058B0008BEA9DE7A0EFB0E480933211909333110F
:1058C000A0933411B093351180E394E0A8EFB4E4D1
:1058D0008093361190933711A0933811B0933911FA
:1058E0001092EC0380E090E0A0EEBFE38093E80329
:1058F0009093E903A093EA03B093EB031092420460
:10590000109241040E942D1F88EB9EE1A5E0BEE3AA
:105910008093B60A9093B70AA093B80AB093B90AD5
:1059200080E090E0A8ECB2E48093E0039093E10380
:10593000A093E203B093E3031092E4031092E50313
:105940001092E6031092E703812C912C80E2A82E9E
:1059500082E4B82E89829A82AB82BC82BE016F5FDC
:105960007F4F80E00E9465809AE9C92E99E9D92E7F
:1059700099E1E92E9EE3F92EC982DA82EB82FC825C
:10598000BE016F5F7F4F80E00E94F98089829A821A
:10599000AB82BC82BE016F5F7F4F81E00E94658059
:1059A000C982DA82EB82FC82BE016F5F7F4F81E0A9
:1059B0000E94F9800E94351A82E793E15CDA0E9426
:1059C000A52182E793E195D90F900F900F900F904A
:1059D000DF91CF91FF90EF90DF90CF90BF90AF908D
:1059E0009F908F9008958F929F92AF92BF92DF9277
:1059F000EF92FF920F931F93CF93DF93CDB7DEB754
:105A0000C658D1090FB6F894DEBF0FBECDBFC3583C
:105A1000DF4F188219821A821B82CD57D0408091A5
:105A2000380390913903A0913A03B0913B03CF57CB
:105A3000DF4F88839983AA83BB83C158D04084E613
:105A400090E09093910A8093900A10920D11109219
:105A50000C111092FE0364E070E0CE018F579F4F4F
:105A60000E942F798091900A9091910A06969093C6
:105A7000910A8093900A10920D1110920C1181E0FE
:105A8000CA57DF4F8883C658D040CE018A579F4FF0
:105A90000E94E11468E470E08FEC9AE00E942F7994
:105AA00060E170E086EA9AE00E942F798AE097ED43
:105AB000A3EABCE3C358DF4F88839983AA83BB83DF
:105AC000CD57D040CE0183589F4F0E94D91485E412
:105AD00094E00E94E5147E018DE6E80EF11C8FEF44
